:020000040800F2
:1000000000400020E58300088D3800088F38000884
:1000100000000000000000000000000000000000E0
:1000200000000000000000000000000091380008FF
:100030000000000000000000933800089538000818
:1000400035840008358400083584000835840008AC
:10005000358400083584000835840008358400089C
:1000600035840008BD380008358400083584000850
:10007000AD380008D1380008E138000835840008A0
:10008000F1380008358400083584000835840008FC
:10009000358400083584000835840008358400085C
:1000A000358400083584000835840008358400084C
:1000B0003584000835840008358400089D38000820
:1000C0000448054B10B5834203D0044B002B00D0ED
:1000D000984710BDF4000020F4000020000000004C
:1000E00006480749091A8910CB0F591810B549104D
:1000F00003D0044B002B00D0984710BDF400002023
:10010000F40000200000000010B5074C2378002BFD
:1001100009D1FFF7D5FF054B002B02D0044800E0C2
:1001200000BF0123237010BDF80000200000000074
:1001300038840008054B10B5002B03D0044905484E
:1001400000E000BFFFF7CCFF10BDC046000000007C
:10015000FC0000203884000870B50D4E0D4DAD1B1D
:10016000AD1006D00024A300F35801349847A542EF
:10017000F9D108F061F9084E084DAD1BAD1006D05D
:100180000024A300F35801349847A542F9D170BD6B
:100190000889000808890008088900080C890008F7
:1001A000F0B50F2A38D90D0005430C000300AD0748
:1001B00036D110271500BC46103D2D092E013618EA
:1001C000B444276866681F605E60A768E6689F6041
:1001D000DE60103310346345F3D10F2401352D0157
:1001E000491914404519032C1CD90023CE58EE5050
:1001F0000433E61A032EF9D80323043CA40801347F
:10020000A4002D1909191A4005D00023CC5CEC5428
:1002100001339342FAD1F0BD0500002AF5D1FAE787
:100220000500F2E72200F8E7F0B5830746D0541E38
:10023000002A42D0CEB20200032502E01A00013C9F
:100240003BD3531C16702B42F8D1032C2DD9FF221F
:100250000A40150215432A0415430F2C16D927000E
:10026000103F3F093E01B4461E001A001036664496
:10027000156055609560D5601032B242F8D10F22FA
:1002800001373F01DB191440032C0ED9261FB60895
:10029000B700BC461A001F1D674420C2BA42FCD1F9
:1002A00003220136B6009B191440002C05D0C9B2B8
:1002B0001C19197001339C42FBD1F0BD14000300DE
:1002C000C3E7C0460CB400B59DB002910691094940
:1002D0001EAB07910491084904CB059102A9019333
:1002E00000F020F90023029A13701DB008BC02B080
:1002F0001847C046FFFFFF7F0802FFFF0EB400B59E
:100300000B499CB0079104910A491DAB05910A491C
:1003100004CB02900690086802A9019300F002F94C
:100320000023029A13701CB008BC03B01847C046E3
:10033000FFFFFF7F0802FFFF00000020F0B54646E8
:100340004F46D646C0B58E6881460C0090461D00CB
:1003500008689E4227D890228B89D200134234D05D
:100360000969421A92466269681C5700BF18FA0F61
:10037000D7197F1050443A00B84201D90700020053
:100380005B0524D51100484600F0CEFC061E31D096
:1003900052462169FFF704FFA3891B4A13408022BC
:1003A0001343A38118E01E002A00414600F018FC08
:1003B000A36800209E1B2368A6609C4665442560B8
:1003C0001CBC90469946A246F0BD3500ECE7484675
:1003D00000F010FD061E09D03000534650446761FE
:1003E000FF1A266120602E00A760DDE721694846DC
:1003F00000F044FC0C234A46136040220120A389EC
:1004000040421343A381DBE77FFBFFFFF0B5574674
:100410004E46DE464546E0B5936883B001900E0037
:100420009246002B6CD0136808688D681F0044E06A
:100430009022B389D20013422ED03169421A9346DA
:10044000706942001218D00F8218601C5210584474
:100450009046904201D9804602008020C0000342AD
:1004600037D01100019800F05FFC051E53D05A46AA
:100470003169FFF795FEB389294A1340802213435F
:10048000B381434628005A463561A04625005844AA
:1004900073619B1A3060B3604246494600F0A0FB8E
:1004A000B3685D1B3368B56043443360180053463E
:1004B0009B681C1B53469C6022D03B687C68994615
:1004C0000837A846002CF8D0AC42B1D22500A0468F
:1004D000E2E7019800F08EFC051ED2D1019C316943
:1004E000200000F0CBFB0C2323604022B3890120C5
:1004F0001343B3815246002340429360536003E0AC
:10050000002352460020536003B03CBC90469946FD
:10051000A246AB46F0BD0C23019A1360E5E7C04646
:100520007FFBFFFFF0B5DE46454657464E46E0B539
:100530009FB003901D008B898B4614001B0603D5CA
:100540000B69002B00D106E1002306AE7361203356
:1005500073761033B3768A4B0595984601239946F6
:100560002378002B00D189E02500252B03D117E04B
:10057000252B00D1C5E001352B78002BF8D12F1B9E
:100580007CD03B00220059460398FFF7D7FE431C5E
:1005900074D073699C462B7867447761002B6DD0CB
:1005A000012200235242726044326C1C3360F360BB
:1005B000B360B354B36507E04346C01A4B4683406B
:1005C0002C0032681343336021780522404600F046
:1005D000C7FA651C2F000028EED13368DA0602D571
:1005E00043222021B1541A0702D543222B21B154B2
:1005F00021782A294FD00A00303A2700092A0FD83B
:10060000F06801E02C00013583001B1829785B009D
:1006100098180A00303A2F00092AF3D9A51CF06077
:100620002E2943D0574C0322200000F099FA0028CD
:1006300053D04023001B834032682978134352482B
:10064000062233606C1C317600F08AFA00284ED006
:100650004E4B002B59D005AB00935A464C4B310002
:10066000039800E000BF82465346013306D0736909
:10067000534473612378002B00D075E75B469B8958
:100680005B0600D573E070691FB03CBC904699468C
:10069000A246AB46F0BD059A111D12680591002ACD
:1006A0003ADBF2606178A51C2E29BBD179782A2922
:1006B00038D1059BB9781A1D1B68FD1C0592736023
:1006C0000237002BAEDA01232E4C5B4203222000BE
:1006D000736000F045FA0028ABD12C003D0029786A
:1006E00006222948317600F03BFA0028B0D105AB4C
:1006F00000935A46264B3100039800F0DFF88246FB
:10070000B2E72F1B00D14BE73BE70722059B0733DE
:10071000934308330593AAE75242F260022213433F
:100720003360BFE70A000023303A73600020092AD3
:1007300001D90DE03D0083001B1869785B00981813
:100740000A00303A6F1C092AF4D90235706069E753
:100750002F00013566E7402100F0E6FA5B4618609D
:100760001861002806D040235A465361ECE6012068
:10077000404289E70C23039A0138136084E7C0469E
:10078000CC880008D4880008D88800080000000041
:100790003D030008F0B54F464646D646C0B51F009B
:1007A000089B914698468A680B6906000C009342A4
:1007B00000DA13004A4613604322A25C002A02D0EA
:1007C0004A460133136023689A0660D54B461B687E
:1007D00006209A1C4B461A602368190018421FD144
:1007E000E16800258A1A19218A461900A244002AC4
:1007F00007DC15E04B46E2681B680135D31AAB42B3
:100800000DDD0123524639003000C047431CF1D1B1
:10081000012040421CBC90469946A246F0BD21688A
:100820004323E35C5A1E93418A060AD53020E1181F
:100830004331087045215A1C615CA21843320233CF
:1008400011702200390043323000C047431CDFD012
:10085000E36821689C464B461D680623A268206910
:100860000B40042B19D0824221DD00239946121A35
:1008700091441A34002502E001354D4517D001237B
:10088000220039003000C047431CF5D1C0E70622E2
:100890001A420ED14A461268A2E76346591BCB435F
:1008A000DB170B4099468242E1DC0029E1DC0020A5
:1008B000B0E74323E35C5A1E9341C2E7F0B54546D7
:1008C0009846432357464E46DE469A46E0B50B7E91
:1008D00085B0170006000C000E9A8A446E2B52D089
:1008E0000FD8632B00D1E3E000D9CAE0002B58D029
:1008F000582B00D0F9E045216354974923688B4673
:1009000013E0732B00D1E1E000D985E06F2B00D11B
:10091000F2E0702B00D0E8E0202309680B4323604D
:100920004521782060548D498B4611680D1D08685B
:100930001560190603D4590601D50004000CDA0726
:1009400002D5202213432360002800D075E0202325
:1009500022689A43226013004322A0546268A26076
:10096000002A00DA84E004218B4323601023994697
:10097000002A00D07EE055464B46082B52D0534605
:100980005B1B236110E0636909689C4613681D1DA9
:1009900015601B686246080602D4490600D5C1E00E
:1009A0001A60002355462361434603AA00932100A1
:1009B0003B003000FFF7EEFE431C20D023692A00E5
:1009C00039003000C047431C19D022680398E368FF
:1009D00092071DD51A1A002A1ADD192399460025F7
:1009E000A14405E0E368039801351A1AAA420FDD15
:1009F00001234A4639003000C047431CF2D1012090
:100A0000404205B03CBC90469946A246AB46F0BD7C
:100A10009842F6DA1800F4E7752B6DD0782B64D184
:100A20000B687DE72368DB07A9D5636822699342D9
:100A3000A5DC3023013D2B70A1E710239946432309
:100A40000022E2546268A260002A2EDB216804239F
:100A500099432160002800D18AE75546494600F0B5
:100A6000A5FA5B465B5C013D2B700028F6D183E75D
:100A7000102399465B4625001A7842234235E254FA
:100A80007AE7642B01D0692B2FD113682168181DD8
:100A900010600D0601D44D0646D41868002846DBC8
:100AA0002D4B9B460A239946CCE70028D5D1E1E798
:100AB00013682500191D11601A684223E254413B56
:100AC0004235236143230022E2546DE71368191D68
:100AD00011601D6862680021280000F041F80028BC
:100AE00037D0401B60602061ECE742222500A35410
:100AF000012342352361E5E710682168051DAC46F6
:100B00000D0601D4490609D46146116000686F2BB7
:100B10001AD0114B9B460A23994690E761460088FC
:100B20001160F4E71A803CE70020185EB6E7432323
:100B30002D22E254084B62689B460A234042A26081
:100B40009946002A83DA88E7034B9B460823994697
:100B500075E760682061B5E7E0880008F488000860
:100B600070B5CCB2830734D0531E002A1BD0027854
:100B7000A24219D0032504E0013B14D30278A2421B
:100B800012D001302842F7D1032B0ED8002B0AD007
:100B90000278A24208D0C31802E00278A24203D031
:100BA00001308342F9D1002070BDFF220D062D0CCB
:100BB000114029430D04084E0D43026807496A405D
:100BC000511891433142E3D1043B0430032BF4D854
:100BD000DCE71300D8E7C04680808080FFFEFEFE81
:100BE000F0B588420AD98B18984207D2531E002AC2
:100BF00003D0CA5CC254013BFBD2F0BD0F2A09D816
:100C00000500002AF9D00023CC5CEC540133934258
:100C1000FAD1F2E70D0005430C000300AD0729D11E
:100C20001500103D2D092F013F18103726681E6052
:100C300066685E60A6689E60E6681034DE60103309
:100C4000BB42F3D10F2401352D0149191440451938
:100C5000032C11D90023CE58EE500433E61A032E8C
:100C6000F9D80323043CA4080134A4002D19091960
:100C70001A40C6E70500C6E72200C2E770B50500C6
:100C8000002915D00C1F2368002B27DB280000F05B
:100C9000EBF8244B1A68002A05D0A2420CD921682F
:100CA000601882421CD0626028001C6000F0DEF8F0
:100CB00070BDA34203D81A005368002BF9D1116804
:100CC0005018A04219D012D821686018834221D050
:100CD00063605460280000F0C9F8E9E7E418D5E73C
:100CE000106852688446614421606260DCE70C232E
:100CF00028002B6000F0BAF8DAE7206809185018CD
:100D000011608342E6D118685B68844661441160D3
:100D10005360DFE718685B68844661442160636064
:100D20005460D7E714010020F8B50323CD1C9D4380
:100D3000083506000C2D2AD20C25A94229D83000EE
:100D400000F092F82A4F3A68002A0AD013685B1B19
:100D500004D440E023685B1B1FD522005468002C9C
:100D6000F8D17B68002B3DD02900300000F06AF8F4
:100D7000431C29D00323C41C9C43A04205D0211A44
:100D8000300000F05FF8431C1ED025600AE0002D03
:100D9000D3DA0C2300203360F8BD0B2B0FD923606E
:100DA000E4182560300000F061F8200007220B30C5
:100DB000231D9043C31AEFD05A42E250ECE7A242FF
:100DC0000DD063685360EDE70C233000336000F012
:100DD0004DF80020E0E714000B2BE0D854683C608D
:100DE0001400DFE70021300000F02CF87860BBE74A
:100DF00014010020F8B507000C001500002917D0D9
:100E0000002A1AD000F034F82600A84201D330009E
:100E1000F8BD29003800FFF787FF061EF7D0210034
:100E20002A00FFF7BDF921003800FFF727FFEEE7A2
:100E30001100FFF779FF0600E9E7FFF71FFF002623
:100E4000E5E7C046002370B5064C050008002360A6
:100E500000F018F8431C00D070BD2368002BFBD0B5
:100E60002B60F9E7300C00207047C0467047C04641
:100E70000B1F1B68181F002B00DB70470B58C01896
:100E8000FBE7C046044A1368002B00D1034B181837
:100E9000106018007047C0461C010020380C00206C
:100EA000002243088B4274D303098B425FD3030AA9
:100EB0008B4244D3030B8B4228D3030C8B420DD3BC
:100EC000FF22090212BA030C8B4202D3121209024A
:100ED00065D0030B8B4219D300E0090AC30B8B4288
:100EE00001D3CB03C01A5241830B8B4201D38B0336
:100EF000C01A5241430B8B4201D34B03C01A5241DB
:100F0000030B8B4201D30B03C01A5241C30A8B421D
:100F100001D3CB02C01A5241830A8B4201D38B0208
:100F2000C01A5241430A8B4201D34B02C01A5241AC
:100F3000030A8B4201D30B02C01A5241CDD2C3091E
:100F40008B4201D3CB01C01A524183098B4201D39A
:100F50008B01C01A524143098B4201D34B01C01A85
:100F6000524103098B4201D30B01C01A5241C308FD
:100F70008B4201D3CB00C01A524183088B4201D36C
:100F80008B00C01A524143088B4201D34B00C01A58
:100F90005241411A00D20146524110467047FFE7C4
:100FA00001B5002000F006F802BDC0460029F7D0C8
:100FB00076E770477047C0468446081C6146FFE7E5
:100FC0001FB500F06DFB002801D40021C8421FBDF1
:100FD00010B500F0EFFA4042013010BD10B500F03E
:100FE0005FFB002801DB002010BD012010BDC046C2
:100FF00010B500F055FB002801DD002010BD0120D8
:1010000010BDC04610B500F0FDFA002801DC00203C
:1010100010BD012010BDC04610B500F0F3FA002845
:1010200001DA002010BD012010BDC0469E2110B580
:10103000C905041CFFF7F0FF002803D1201C00F0B5
:1010400075FE10BD9E21201CC90500F0ABFC00F010
:101050006DFE80231B069C466044F2E7F8B54746C8
:10106000CE4643025B0A4400C20F9C464800DD00A6
:101070004B02240E5B0A000E80B59846260091466E
:10108000C90FDB00271A8A4229D0002F15DD00285E
:101090004AD1002B00D095E0ED08FF2C00D188E06C
:1010A0006B025B0AE6B25B02F605580A3043D207D0
:1010B00010430CBC90469946F8BD002F00D087E045
:1010C000601CC0B2012800DCB6E0EE1A720100D547
:1010D000C5E0002E3DD1002200260023E3E7002FCB
:1010E00000DC96E000285DD0FF2C60D08022D20486
:1010F00013431B2F00DDECE02022D21B180093408D
:10110000F8405A1E93410343ED186B017BD501341F
:10111000FF2C00D1B7E0012207262A406B089A4D28
:101120001D4015432E4029E0FF2CB5D08022D2046B
:1011300013431B2F00DDB2E02022D21B1900934085
:10114000F9405A1E93410B43ED1A6B015BD5AD017B
:10115000AE09300002F07CFB05388640844265DC35
:10116000041B330020200134E340041BA640751EFD
:10117000AE41334307261D0000241E4001224B468A
:101180001A40002E04D00F232B40042B00D004352E
:101190006B0100D480E70134E6B2FF2C2FD1FF268B
:1011A000002380E7002B52D1FF2C00D074E70A0007
:1011B000ED08002DF3D08023DB032B435B025B0A99
:1011C000FF2670E7013F002FBED0FF2CB1D163E7AF
:1011D000002C47D0FF2869D08024E4047A422543BC
:1011E0001B2A00DDC5E02C002026D440B21A954011
:1011F0006A1E954125435D1B04008946A5E7AB01A6
:101200005B0A50E7002401224B461A406B07BAD113
:1012100042E7002F3BD10134E0B201284ADDFF2C28
:10122000BDD00726ED186D082E40A7E70723574DC0
:10123000241A35401E40A1E7002C1BD1002D6ED191
:10124000002B00D19AE00A001D003C0024E7013F7A
:10125000002F00D158E7FF2C00D04AE7A7E75E1B1C
:10126000894676E7002D1CD10A00FF281FD0040014
:101270001D0011E7002D5DD1002B17D18023002226
:10128000DB03FF260FE70A00FF2600230BE7002CF5
:1012900021D1002D66D1FF28E9D11D0087E7012368
:1012A00052E77A1CA7D0FA43FF2899D10A001D0003
:1012B000FF24F1E6002E21D1002D4FD0002B4CD081
:1012C000ED186B019ED5314B07362E4001241D4091
:1012D00054E7012318E7FF28DFD08024E4047F428D
:1012E00025431B2F4DDC2026F61B2C00B540FC406F
:1012F0006A1E95412543ED18040006E7002DCCD069
:10130000002B00D153E780216046C903084203D077
:101310004046084200D11D000121114047E7002B43
:1013200000D1B9E6EA1A500125D507265D1B2E40EB
:10133000894623E7FF24002B00D1ADE680226046DA
:10134000D203104204D04046104201D11D0089460C
:1013500001224B46FF241A409EE62B00DD080A00BE
:1013600000249DE67A1CC6D0FF43FF28B9D11D009A
:101370001DE701253FE7151E00D044E700220023AA
:1013800091E60125B7E7C046FFFFFF7DFFFFFFFBAA
:10139000F8B557464E464546DE464402E0B546009F
:1013A0008846640A360EC70F002E63D0FF2E24D065
:1013B0008023E400DB041C43002399469B467F3EC8
:1013C000434642465D02D20F5B006D0A1B0E9046FB
:1013D000924665D0FF2B55D080220021ED00D2042B
:1013E0007F3B1543F61A43464A467B400F2A00D9F5
:1013F0008DE06D48920082589746002C54D1082306
:101400009946063BFF269B46DAE70025534602290C
:101410001BD0032900D1BFE0012928D030007F3044
:10142000002820DD6A0704D00F222A40042A00D0B9
:1014300004352A0103D530005C4A80301540FE286F
:1014400003DCAC01640AC2B201E0FF2200246402A2
:10145000D205600ADB07104318433CBC904699460E
:10146000A246AB46F8BD0122101A1B287CDD0022E3
:101470000024ECE7002C1DD104239946033B0026F1
:101480009B469DE7FF3E002D20D1022143464A4660
:101490007B400A430F2AD8D8454892008258974685
:1014A000002D19D10121F1E70C239946093BFF26B4
:1014B0009B4685E7200002F0CBF97626431F9C402F
:1014C00000237642361A99469B4679E74A4603231B
:1014D0001A439146032186E7280002F0B9F9431F19
:1014E00036189D40763600217DE780240023E403F2
:1014F000FF22ACE700258023DB031C4228D01D42DD
:1015000026D12B435C02640A4346FF229FE7620117
:101510006C01A24224D21B210025013E01271000AC
:101520006D005200002801DB944201D8121B3D439C
:1015300001390029F3D11400621E944125436DE75F
:10154000BA46594625005346022900D061E77CE798
:101550008023DB031C436402640A3B00FF2276E71E
:10156000121B1A210125D9E79E362A00B5402C000E
:10157000C240651EAC411443620704D00F222240D2
:10158000042A00D00434620103D4A401640A0022B6
:101590005DE7012200245AE78024E4032C4364021F
:1015A000640AFF2253E7C0467C840008FFFFFFF770
:1015B000BC84000870B542004E024C0045026D0A22
:1015C000120EC30F760A240EC90FFF2A0FD0FF2C6C
:1015D00011D00120A24200D070BDB542FCD18B4297
:1015E0000DD0002AF8D12800451EA841F4E70120BB
:1015F000002DF1D1EBE70120002EEDD1E9E700202D
:10160000EAE7C04670B54A004E02450244006D0A42
:10161000240EC30F760A120EC90FFF2C15D0FF2A15
:101620000ED0002C15D1002A01D1002E1CD0002D87
:1016300014D08B4227D00220013B1840013870BDE6
:10164000002EEED002204042F9E7002DFAD1FF2A09
:101650000ED0002A0ED1002EEDD00BE0012301396F
:10166000994308000130EAE70020002DE7D0E2E7C7
:10167000002EE7D18B42DED1944205DD0221581EB7
:1016800008400138DBE70024A24204DCB542D2D88E
:101690000020B542D3D2581E012398430130CEE733
:1016A00030B5420044024D02C30F4800640A120ED6
:1016B0006D0A000EC90FFF2A12D0FF280CD0002A95
:1016C00012D1002819D1002D17D1002C2BD00220C7
:1016D000013B1840013826E0002DF0D0022022E026
:1016E000002CFBD1FF281FD000281FD1002D1DD1B9
:1016F0000220013B1840013815E0002C0ED08B422F
:10170000E5D10022904204DCAC42E0D80020AC429B
:1017100009D2581E01239843013004E00123013906
:1017200099430800013030BD002DD7D18B42CED176
:101730008242E7DD0221581E08400138F3E7C04627
:10174000F0B54E4657464546DE46E0B543025B0AD5
:10175000450083B00F1C99462D0EC60F002D57D0A3
:10176000FF2D24D08020DB00C004184300238146D5
:101770009A469B467F3D7C027A00FB0F640A120E5C
:10178000984623D0FF2A4BD0E30080240020E404B5
:101790007F3A1C43AD186B1C474601935346774074
:1017A0003A000F2B48D87D499B00CB589F46002B11
:1017B00000D085E008339A46063B9B467C027A00BF
:1017C000FB0FFF25640A120E9846DBD1002C00D0D7
:1017D00090E0524601231A4392460120DBE74C4633
:1017E00058461700022824D0032800D1CFE0002259
:1017F000002301284DD15802D205400AFF071043AB
:10180000384303B03CBC90469946A246AB46F0BD77
:10181000002B5BD104239A46033B00259B46AAE795
:10182000FF35002C60D1524602231A439246022013
:10183000B1E7FF220023DEE74B461B0C9C464B46DC
:101840002604360C180461463300220C6446000C52
:1018500043434E435043544380191A0C1218964286
:1018600003D9802149028C4664441B041B0C1004DC
:10187000C01883015E1EB341800E1843130C1B1960
:101880009B0103431C00230179D5012362081C40FE
:101890001443019A7F32002A4DDD630704D00F23E1
:1018A0002340042B00D00434230103D53C4B019A80
:1018B0001C408032FE2ABCDCA3015B0AD2B29AE74C
:1018C0000C239A46093BFF259B4654E7180001F07C
:1018D000BFFF4A46431F76259A4000236D4291463A
:1018E0002D1A9A469B4646E7524603231A439246D0
:1018F000032050E7200001F0ABFF431F2D1A9C404E
:10190000763D002047E780230027DB03FF2272E7B4
:10191000424666E74C463200584662E780234A4614
:10192000DB031A4222D01C4220D123435B025B0A14
:101930004746FF225FE701239A1A1B2A21DC230076
:101940000199D3409E318C401A0023005C1EA341B4
:1019500013435A0704D00F221A40042A00D004333C
:101960005A0111D49B015B0A002244E780234A46B6
:10197000DB0313435B025B0A3700FF223BE7019561
:1019800087E70022002336E70122002333E7802384
:10199000DB0323435B025B0AFF222CE7FC84000885
:1019A000FFFFFFF7F8B54746CE464400C20F80B5AB
:1019B00047024802400A8446664648007F0A240ED1
:1019C000F60025009046FB00000EC90FB146FF2827
:1019D00000D185E001267140261A914257D0002E91
:1019E00043DD002800D07FE04946002900D1AAE06D
:1019F000013E002E00D0F7E05B1A5A0100D48BE0C4
:101A00009B019C09200001F023FF0538844085429A
:101A100000DDD3E0451B230020200135EB40451BB2
:101A2000AC40621E94412343072400251C40012240
:101A300041460A40002C04D00F211940042900D04F
:101A40000433590100D480E00135ECB2FF2D00D001
:101A5000A3E0FF2400235B02E405580AD2072043D9
:101A600010430CBC90469946F8BD002E74D1601C02
:101A7000C0B2012800DCA7E04A469C1A620100D5EA
:101A8000B6E0002CBED1002200240023E3E7002EA4
:101A900000DC85E0002846D0FF2C49D08022484653
:101AA000D2041043814601221B2E09DC20204C4623
:101AB000801B84404A462000F240441EA04102435D
:101AC0009B185A0128D50135FF2D00D1A8E001222D
:101AD000072494491A405B080B4013431C40A6E7B7
:101AE000002E00D078E775E7FF2C54D080224946BD
:101AF000D2041143894601221B2E09DC20214846CD
:101B0000891B88404A460100F240481E81410A4331
:101B10009B1A5A0100D573E7012241460A40590732
:101B200000D089E711E04846002858D1FF2C0CD19D
:101B3000DB08002B00D18CE78020C00303435B024D
:101B40005B0AFF2487E7FF2C25D0DB08FF2DF0D0B0
:101B50005B025B0AECB27EE7002C4DD0FF2818D068
:101B60008024E404724223431B2A00DDC4E01C00ED
:101B70002025D440AA1A93405A1E934123434A4633
:101B80000500D31A884638E7721CF8D0F243FF28C4
:101B9000EAD10A004B46FF25D7E79B015B0A5AE7CB
:101BA000002E41D1651CE9B2012945DDFF2D00D190
:101BB0004FE707244B445B081C4038E707225A4B89
:101BC0002D1A2340144032E7002C1DD1002B7AD16E
:101BD0004B46002B00D191E00A000025B5E7013EFD
:101BE000002E19D14B446CE7FF2C84D1FF25ACE7C4
:101BF0004A468846D41A05E7002BC5D10A00FF28BB
:101C0000C8D005004B46A0E7002B49D14B46002B1E
:101C100077D00A00FF2598E7FF2C00D043E787E73D
:101C20000A00FF24002316E7002C15D1002B57D102
:101C3000FF28E6D14B467BE7002C20D1002B57D064
:101C40004946002953D04B445A0168D50724364AE7
:101C50001C4001251340EAE6FF28EBD08022D20485
:101C6000764213431B2E53DC2025AD1B1A00AB40DC
:101C7000F2405C1EA34113434B44050021E7002BB7
:101C8000D8D04946002900D152E78021C9030F422C
:101C900000D14DE76046084200D049E74B4647E790
:101CA0004846FF25002800D14FE78022D203174283
:101CB00004D06046104201D14B468846012241467D
:101CC000FF250A4041E7484600281FD01A1A500154
:101CD00020D54A460724D31A1C4088460025A6E68C
:101CE000741CC9D0F643FF28BCD14B4620E7994667
:101CF0004B460025DB082BE7012340E700220023A9
:101D0000A9E680230022DB03FF24A4E600251CE7CC
:101D10000123B1E7002AF1D013000025FCE60025DD
:101D2000FAE6C046FFFFFF7DFFFFFFFB41024200D6
:101D3000C30F490A120E00207E2A0DD99D2A0CD805
:101D4000802000040143952A0ADC9620821AD140A3
:101D50004842002B00D108007047034A9818FBE75F
:101D6000963A9140F4E7C046FFFFFF7F70B5002828
:101D70003DD0C317C5185D40C40F280001F068FDB1
:101D80009E22121A962A07DCD2B2082833DD0838C0
:101D900085406802400A23E0992A0BDD05232900CB
:101DA0001B1AD94003001B339D402B005D1EAB4125
:101DB00019430D00052801DD431F9D402B000F49ED
:101DC0000B406E0709D00F263540042D05D0043393
:101DD0005D0102D59F220B40121A9B01580AD2B214
:101DE0004002D205400AE4071043204370BD00249E
:101DF00000220020F4E76802400AF1E7FFFFFFFB42
:101E000070B5041E34D001F023FD9E22121A962ACA
:101E100007DCD2B208282EDD083884406002400A70
:101E200021E0992A09DD030021001B3399404B1E54
:101E3000994105231B1ADC400C43052801DD431F93
:101E40009C4023000D490B40650709D00F252C400D
:101E5000042C05D004335C0102D59F220B40121ADA
:101E60009B01580AD2B24002D205400A104370BD0D
:101E700000220020F7E76002400AF4E7FFFFFFFBC3
:101E8000F0B54F464646D6460C000903C0B5490A90
:101E9000470F5E0039431F03DB0F9C4665007B0A3A
:101EA000570F1F436D0DE40F760DA146C000B846D5
:101EB000D200AB1B64457BD0002B5FDD002E00D031
:101EC000A4E03E00164300D112E15E1E002E00D0B9
:101ED0009EE1871A4346B84280410125C91A404213
:101EE000091A0B0200D431E149024E0A002E00D13A
:101EF0006EE1300001F0ACFC0300083B1F2B00DD5D
:101F000061E120223900D21A9E40D1409F400E4309
:101F10009D4200DD51E15D1B6B1C1F2B00DD7CE150
:101F20002021C91A3D0030008F408840DD40791ED5
:101F30008F41310007222843D940002507433A400A
:101F4000002A09D00F233B40042B05D03B1DBB4288
:101F5000BF417F42C9191F000B0200D426E26A1C50
:101F6000C64B55056D0D9A4200D106E1C44AFF08E3
:101F70000A40530752023B43120B8EE0002B00D065
:101F8000B8E06B1C5B055B0D012B00DC30E1871AB0
:101F90004346B842B641CB1A76429E1B330200D567
:101FA0004CE13B003343A1D100220024002570E026
:101FB000002B00DCE5E0002E00D183E0AF4EB542FF
:101FC00060D0802636043743B846382B00DC3EE12B
:101FD000434613431F007A1E97413F1887428041B2
:101FE000404209180B0200D4B0E0A44B01359D42D9
:101FF00000D1C3E0A24A7B080A4001210F401F43E1
:102000005108D30707221F433A4099E79B4EB54238
:1020100038D0802636043743B846382B00DDDCE064
:102020001F2B00DC30E11E004746203EF740BC4637
:10203000202B04D04026F31A46469E403243170018
:1020400063467A1E97411F43CCE0002B00D104E287
:102050004346134300D159E14B07C008184380237E
:10206000C9081B03194208D04546ED081D4204D19A
:102070004346D008590708432900420FC9007F4D45
:102080001143C0004B07CA087C49C00803438D4276
:1020900068D012036D05120B6D0D0021120318009C
:1020A000130B0A0D12051A43764B2D0513402B43D3
:1020B0005B00E4075B08234319001CBC904699466B
:1020C000A246F0BD3E00164312D05E1E002E00D088
:1020D00000E18718874280414144404209180125A8
:1020E0000B0233D5022585E76446330041461000D4
:1020F0001D00C7E7002D00D0DAE00C000443F3D048
:102100005C1C00D19FE15D4CA64200D12FE1DB4376
:10211000382B00DD66E11F2B00DD83E12024050064
:10212000E41A0F00DD40D940A0404346A7405B1AA7
:10213000441EA04198462F433843171ABA42924191
:1021400043465242991A64463500CAE607223A408D
:10215000002A00D0F6E64B07CA084849FF083B436F
:102160008D4296D11900114300D19EE180210903CF
:102170000A431203120B414D8FE715000022002382
:102180008BE7002B00D0C7E06B1C5F057F0D012F94
:1021900000DCF1E0394DAB4200D1B9E085180A000E
:1021A000854289414244494251180722CF076D08B0
:1021B0002F4349083A401D00C2E607223049ED1A74
:1021C00031403A40BCE63E002838864000279FE672
:1021D000380001F03DFB20308EE6434613431F00DC
:1021E0007A1E9741C71BB84280414042091A78E6DF
:1021F0000E003B0006431343002D61D1002E00D09A
:10220000F4E0002B00D11BE164463900100039E7EF
:102210001A4FBB427AD03300FFE630001F3DE84042
:10222000202B03D04021CB1A9E4037437B1E9F4179
:10223000072207433A400021002589E7171A434641
:10224000BA42B641591A76428E1B64464EE61F2B9F
:1022500000DDADE020264746F61AB740B946170024
:10226000B246DF404E463E4337005646B240561E09
:10227000B24117434246DA408918AEE6FF07000034
:10228000FFFF7FFFFFFF0F8020264746F61AB7406B
:10229000B9461700B246DF404E463E433700564629
:1022A000B240561EB24117434246DA40891A99E7B6
:1022B0007F4CA6425BD0802424045B42214327E765
:1022C000002E0CD1002B00D1CBE064463900100069
:1022D000774DD7E6764FBB4218D0330075E6002B1A
:1022E00014D04B07C00818438023C9081B031942A8
:1022F00007D0FC081C4204D17907D0080843E14606
:1023000021004C46420FC9001143C000684DB9E698
:102310001D0000220023C0E6002D5BD10D00054307
:1023200000D1E2E65D1C00D1B0E0614DAE421FD0AD
:10233000DB43382B71DC1F2B00DD96E020250F00DE
:10234000ED1AAF40B9460700AA46DF404D463D436F
:102350002F005546A840D940451EA8418844074350
:10236000BF18974292415142414435003AE66446D3
:1023700035004146100085E60B000343002D00D0D8
:1023800063E6002BF5D04346134300D17AE6871865
:102390008742804107224144404209183A400B02DB
:1023A00000D4D5E6434B01351940C9E5380069E64C
:1023B0001E004746203EF740BC46202B04D0402656
:1023C000F31A46469E403243170063467A1E9741F1
:1023D0001F4302E6364DAE42CAD080252D045B4233
:1023E0002943A6E70843411E8841A6E6002B00D1F9
:1023F00048E6871A4346B842B641CB1A76429E1B3E
:1024000033024BD5171A4346BA429241591A5242E7
:10241000891A072264463A4092E501430F00791E6B
:102420008F419DE71C000F00203CE740202B03D08C
:102430004024E31A99400843411E884138437CE612
:102440000022002425E6171A4346BA429241591A3F
:102450005242891A6446350043E541461000144D46
:1024600010E680220024120380E61D000F00203DAC
:10247000EF40BC46202B03D04025EB1A994008437F
:1024800007006346781E87411F4369E78718974214
:102490009B4141445B42C9183500A3E53B003343EF
:1024A000CED0072231003A4052E600231A00F4E56C
:1024B000FF070000FFFF7FFFF0B55746DE464E46A0
:1024C0004546E0B5834607000E03480085B09246B6
:1024D0001C00360B400DCD0F002800D19DE0954B20
:1024E000984239D08023F6001B041E43924A7B0F8A
:1024F0003343994694460300634400930023002627
:10250000FF00029323031B0B98466300E40F52461F
:102510005B0D019400D1B3E086498B4200D19EE06F
:102520004246D100802212040A435146490F11430A
:102530008B46814952468C4600996344CB1A002150
:10254000D20000932B0063409A460F2E00D905E17C
:102550007A4BB6009B599F465B463343994600D061
:10256000B8E002230826002700900293CAE7CB4672
:102570003A0002990195019B9A46022927D0032926
:1025800000D180E2012944D06D49009B8C46634410
:102590001C00002C38DD530700D013E2D2085B4644
:1025A000DB0109D55946674B19408B468021C9008C
:1025B0008C46009B63441C00634B9C4207DC5B46DB
:1025C00064055F075B0217431B0B620D02E00023EB
:1025D0000027584A00211B031C0B0B0D1B0523432E
:1025E00014055A4A380013401C4353466400DB0765
:1025F00064081C43210005B03CBC90469946A246A5
:10260000AB46F0BD0122524201231B1B382B00DCDC
:10261000ADE1002200230027DCE75B463343994607
:102620005ED0002E00D18AE1300001F011F90300E4
:102630000B3B1C2B00DD7BE11D22D31A5A46010007
:10264000DA4008398E4013005F46334399468F4085
:102650003F4B00261B1A00930023029352E741468A
:1026600053460B433B499B468C46009B6344009377
:102670005B46002B3BD1022300221E43022161E76F
:10268000434613439B4637D04346002B00D162E1BB
:10269000404601F0DDF803000B3B1C2B00DD53E14D
:1026A00002004146083A914088461D21CB1A514606
:1026B000D9400B0041460B439B46534693401A00BA
:1026C000009B25499C46604403008C46634400936C
:1026D000002137E70323B14600900C26029311E74F
:1026E0000023009301330426002702930AE7032303
:1026F000C3461E43032125E701331E430022012167
:1027000020E700239A46802300271B03094A61E73C
:10271000802349461B03194200D1E2E05946194281
:1027200000D0DEE00B431B0317001B0BA246014A3F
:1027300050E7C046FF07000001FCFFFF3C85000892
:10274000FF030000FFFFFFFEFE070000FFFF0F80FA
:102750000DFCFFFF01F8FFFFF3030000D94500D98E
:10276000CBE000D1C6E03C0048460027009B013B7F
:1027700000935B46160E1B021E4313029846330459
:102780001B0C9946310C0191FEF710FC4A4642435E
:102790000B04210C050019438A4207D98919013D10
:1027A0008E4203D88A4201D9851E8919881A019957
:1027B000FEF7FCFB09048C464A462104644642436A
:1027C000090C030021438A4204D98919013B8E4236
:1027D00000D8F1E02D041D43AB464346891A42461A
:1027E000280C12041D0C5B46140C22001B041B0C4D
:1027F0005A4303946B434443029568431B19150CD9
:10280000EB189C4203D980246402A44660441C0C4B
:1028100015041B042D0C20185D19814277D373D049
:102820000C1AA24A7D1BAF42BF419446009B7F42D7
:102830006344E01B1C00864200D1DBE00199FEF7F7
:10284000B5FB4A4642430B04290C070019438A4250
:1028500007D98919013F8E4203D88A4201D9871EC0
:102860008919881A0199FEF7A1FB09044A4689468D
:1028700029044D464243090C030029438A4207D9E3
:102880008919013B8E4203D88A4201D9831E8919D6
:102890003F04891A3A00039F1A43380013041B0CA3
:1028A000584381460298150C6F43434345434846BD
:1028B000000C8446DB1963449F4203D98020400208
:1028C0008446654448461F0C00041B04000C7D1917
:1028D0001818A94200D284E000D17FE001231A43F6
:1028E00057E680234A461B0313431B031B0BAA46D0
:1028F0006F4A6FE6BA4200D935E74B46DC07580805
:102900007B081C43FF0734E70024AF4289D24744C9
:102910004745A4415B466442A4196418013BA642A2
:102920001ED2A0426DD800D1B6E0241A9B4678E7AB
:1029300003005A46283B9A400027914688E65846AD
:1029400000F086FF203072E603005246283B9A4092
:1029500093460022B4E6504600F07AFF20309AE613
:10296000A642E2D1B845DCD9341A9B4659E71F2B61
:1029700065DC504C0099A4465C46614408008C40DC
:1029800011008240D940501E82410C4314435A46E4
:10299000DA401300620709D00F222240042A05D032
:1029A0002200141D9442894149425B181A0262D5E3
:1029B0000122002300270DE68A4200D80AE7831E81
:1029C000891907E70F231340042B00D1E6E5171DF3
:1029D0009742924153429B44FA08E0E5002800D117
:1029E000D7E57118531EB14227D3A94215D358D049
:1029F0001A0073E7002B00DC04E6012300229B444D
:102A0000CDE502234744474589415B429C46494204
:102A100089190C19E344241A03E743465F0047452C
:102A20009B41B8465B429E19023A8919A94200D0DF
:102A300054E7404500D051E7ABE51A00F6E71F2107
:102A40005F4649420C1BE740202B07D01A49009BE8
:102A50008C46634418005B4683401A43501E8241F3
:102A60003A4307270023174009D00F2100231140C4
:102A70001400042995D122005F075B021B0BD208CA
:102A800017430022A6E5802359461B030B431B0373
:102A900017001B0B064A9DE5BD42B2D89B46002499
:102AA000BFE68045B9D31A00C3E7C046FF03000064
:102AB000FF0700001E0400003E040000F0B557466A
:102AC000DE464E464546E0B5834606000F03480005
:102AD00087B092461D003F0B400DCC0F002800D15F
:102AE0006FE0DE4B984238D08023FF001B041F4369
:102AF000730F3B430193DA4B0027994600239B4613
:102B0000F60081442B0369001B0B52469846490D81
:102B1000ED0F002900D185E0D04B994200D173E040
:102B20004346DA0080231B0413435246CC48520F1D
:102B300084461343524600206144D2008944210058
:102B4000694000918C46012149448A460F2F00D9E3
:102B500090E0C449BF00CF59BF465B463B43019359
:102B600000D06AE102230827002681469B46C9E778
:102B700032005846019B61460091022800D175E061
:102B8000032800D1FEE1012800D02CE1002300271A
:102B9000002600253F032A0D3F0BB34812053A4398
:102BA00002401B051343009A5B00D1075B080B43EF
:102BB0003000190007B03CBC90469946A246AB468F
:102BC000F0BD5B463B43019300D12FE1002F00D1C4
:102BD000A5E1380000F03CFE03000B3B1C2B00DDA0
:102BE00096E11D22D31A5A460100DA405E460839A2
:102BF0008F4013008E403B4301939C4B00271B1AD0
:102C0000994600239B467DE7414653460B43934933
:102C10008C46E144002B00D01AE102220220174327
:102C200000228CE7134300D10DE14346002B00D175
:102C300081E1404600F00CFE02000B3A1C2A00DD48
:102C400072E10100434608398B4098461D239A1AC9
:102C50005346D3401A004346134352468A404946DE
:102C6000081A824989468144002068E77B4B002787
:102C700000268EE7140C1204120C1100370C3604D7
:102C8000350C794328008C462E006043604483460F
:102C900056432100300C8046584679434044029107
:102CA000844506D98846802149028C46E044414645
:102CB00002913604010C360C00048B4681191E0C5F
:102CC0001B041B0C0391190079438C4628007543A3
:102CD0006544A8465843050C45447743A94203D9A7
:102CE000802149028C466744290C8C463900000437
:102CF000000C2D042D186144AB44059159460491F4
:102D000001990F043F0C080C39005143424390468F
:102D100002008C46090C8B4662437C4344445C446D
:102D2000A04503D98021490288464244210C8846A7
:102D300061460904090C8C463900594343437043EA
:102D40007E430F0CF6182404BE19644442448C469A
:102D5000B34203D980235B0298464044029B6146FC
:102D60009846049B370443449B46AB45AD416B42B8
:102D70000D0405992D0C8C467F196744FD18A84653
:102D80005D462D19A542A44193466442A446C3441E
:102D9000DC448F42BF4198459B4193459241A445F5
:102DA000A4415B427F421F43360C52426442BF192A
:102DB0002243BF18624638184302D20D03991343C9
:102DC0006A020A43501E82416146ED0D2A434E02BB
:102DD0003243D90100D4B3E0012650083240024307
:102DE000DE0732435B08224C5444002C62DD51075D
:102DF00009D00F201040042805D0101D90429241A8
:102E000052429B180200D90104D580241948E400DD
:102E1000034054441848844200DD27E75E075B0204
:102E2000D2081F0B630516435B0DB2E600239946DB
:102E30000133042700269B4664E60323019781465D
:102E40000C279B465EE6012201201743002276E60E
:102E5000032303201F43434671E6C046FF070000DB
:102E600001FCFFFF7C850008FFFF0F800DFCFFFFCA
:102E7000FF030000FFFFFFFEFE0700000023802786
:102E800000933F030026434B83E6019B3200A44698
:102E9000584670E6AC466EE6802701993F033942FA
:102EA0002DD03B422BD11F433F033F0B0095160013
:102EB000384B6EE601252D1B382D00DD66E61F2DF3
:102EC00040DC35481C005044160082408440EE40EF
:102ED000501E824134431443EB40620709D00F2255
:102EE0002240042A05D02200141D94428041404211
:102EF0001B181A023ED501230027002649E6802729
:102F0000019B3F031F433F033F0B0094214B40E6CF
:102F100003005A46283B9A40002601926DE6584627
:102F200000F096FC203057E603005246283B9A40BA
:102F30001300002293E6504600F08AFC20307BE626
:102F4000CA4650E71F201E004042041BE640202DC9
:102F500003D0124C5444A3401A43501E82413243C2
:102F600007260027164009D00F2000231040140028
:102F70000428B9D122005E075B021F0BD20816435A
:102F8000002306E680273F031F433F033F0B160045
:102F9000004BFEE5FF0700001E0400003E04000099
:102FA000F8B557464E464546DE460C000903E0B5E7
:102FB000490A460F5F0031431E03DB0F760A9B462A
:102FC000530F3343C84E6500C000E40FD2006D0DAF
:102FD000A24681467F0D9C469046B74200D1B9E09B
:102FE0005B46012673409B46EE1BA34500D183E060
:102FF000002E63DD002F00D0B1E06346134300D103
:1030000023E1731E002B00D0BAE1861A6346B0425A
:1030100080410125C91A4042091A0B0200D447E138
:1030200049024B0A98464346002B00D189E14046AD
:1030300000F00EFC0300083B1F2B00DD7CE120228A
:103040003000D21A4146D040994002009E400A43C7
:103050009D4200DD6AE15D1B6B1C1F2B00DD94E1CE
:10306000202110003500C91A8E40DA408840DD402A
:10307000711E8E411100072228430025064332406D
:10308000002A09D00F233340042B05D0331DB3424F
:10309000B641764289191E000B0200D43DE26A1C3B
:1030A000914B55056D0D9A4200D119E18F4AF608F2
:1030B0000A40570752023743120B9BE0002E00D004
:1030C000C5E06E1C7605760D012E00DC48E16746F2
:1030D000861ACB1BB042BF417F42B8461F00434611
:1030E000FF1A3B00B8461B0200D55FE137439AD177
:1030F00000220024002579E0002E00DCFAE0002FF9
:1031000000D18DE0784B9D4267D0802367461B0439
:103110001F43BC46382E00DC52E1634613435A1E5F
:1031200093411E1886428041404209180B0200D488
:10313000BEE06D4B01359D4200D1D2E06B4A730871
:103140000A4001210E401E435108D30707221E43A7
:10315000324095E71E00164300D045E740E7624B3A
:103160009D423AD0802367461B041F43BC46382E3D
:1031700000DDEBE01F2E00DC3AE133006746203B28
:10318000DF403B00202E05D04027BF1B6646BE40D7
:10319000324390464646721E96413343DAE0002B96
:1031A00000D114E26346134300D168E180234E0747
:1031B000C008C9081B030643194208D06046C0086E
:1031C000184204D163460100D2085E071643F3009B
:1031D0009946C900720F444D11434B46DE08424BDD
:1031E0004F073743CA089D4200D16EE012036D05B8
:1031F000120B6D0D00211203130B0A0D12051A4359
:103200003B4B2D0513402B435B00E4075B08234336
:10321000380019003CBC90469946A246AB46F8BD22
:103220006346134311D0731E002B00D007E18618AC
:103230008642804161444042091801250B0237D57E
:1032400002257BE73E00614691463500C5E75C46B6
:10325000002D00D0E1E00B000343F3D0731C00D13C
:10326000ACE1214B9F4200D13AE1F343382B00DD22
:103270006FE11F2B00DD8CE120250E00ED1AAE4022
:10328000B0460600AA46DE40454635432E00554668
:10329000D940A8406346451EA8415B1A9C4630436E
:1032A000161AB242924163465242991A3D00B4E660
:1032B00007223240002A00D0E4E60B4BF6084F0705
:1032C0003743CA089D4200D090E73B00134300D12A
:1032D000A6E180231B031A431203120B024D89E758
:1032E00015000022002785E7FF070000FFFF7FFF92
:1032F000FFFF0F80002E00D0C7E06B1C5E05760D2F
:10330000012E00DCF0E0C84DAB4200D1B9E08518D9
:103310000A00854289416244494251180722CE077A
:103320006D082E43490832401D00A9E6BF49ED1A39
:10333000114007223240A3E632002838824000269E
:1033400086E6300000F084FA203073E663461343CB
:103350005A1E9341C61AB04280414042091A5CE6A7
:103360000E00674606431743002D5ED1002E00D0A5
:10337000F3E0002F00D11EE15C46614691462CE748
:10338000A94FBE427BD01E00F1E610001F3DE84071
:10339000202B03D04021CB1A9A401643731E9E4126
:1033A0000722064332400021002583E7161A6346B0
:1033B000B2428041591A40420B1A98465C4632E6A6
:1033C0001F2E00DDABE02027BB1B9A466346574605
:1033D000BB40994613004F46F3401F433B005746FE
:1033E000BA40571EBA4113436246F240891898E624
:1033F0002027BB1B9A4663465746BB40994613009D
:103400004F46F3401F433B005746BA40571EBA4150
:1034100013436246F240891A9CE7834B9F425FD078
:1034200080252D047342294320E7002E0CD1002F64
:1034300000D1D0E05C46614691467B4DCDE67A4FA7
:10344000BE421CD01E0065E6002F18D0C0084E07F3
:1034500006438020C9080003014208D06346DC0807
:10346000044204D12100DA46D2085E071643F30075
:10347000994601245346C900720F11431C406A4DFE
:10348000ABE61D0000220027B4E6002D59D10B0049
:10349000034300D1D6E6731C00D1B2E0624B9F42D9
:1034A0001ED0F343382B6FDC1F2B00DD97E0202567
:1034B0000E00ED1AAE40B0460600AA46DE40454674
:1034C00035432E005546A840D940451EA8418C449E
:1034D0000643B61896429241514261443D0025E6AA
:1034E0003D006146914678E60B000343002D00D075
:1034F00055E6002BF5D06346134300D16DE68618E0
:103500008642804161444042091800220B0200D4E7
:10351000D0E6464B01351940B2E5B1465DE63300D1
:103520006746203BDF403B00202E05D04027BF1BD5
:103530006646BE40324390464646721E964133432D
:10354000EFE5394B9F42CBD080252D0473422943B0
:10355000A8E70843411E8841A2E6002F00D13CE6BF
:103560006346861ACF1AB0429B415B42FB1A9846CB
:103570001B024ED5161A6346B2429241591A524264
:10358000891A5C4600227BE501430E00711E8E41C4
:103590009FE71D000E00203DEE40B046202B04D0DA
:1035A0004025EB1A99400843814648464346411E50
:1035B0008841184374E60022002417E6161A634671
:1035C000B2429241591A5242891A3D0025E561469C
:1035D0009146154D01E680220024120379E61D0074
:1035E0000E00203DEE40B046202B04D04025EB1AC3
:1035F0009940084381464E464346711E8E411E4304
:1036000067E7861896429B4161445B42C9183D00BA
:103610008CE547463743CED007224146324049E643
:1036200000273A00E6E5C046FF070000FFFF7FFFE6
:1036300070B500282DD0C317C5185D40C40F2800F1
:1036400000F006F9154B1B1A5B055B0D0A2815DD0A
:103650000B38854000222D032D0B002110002D0377
:103660000A0D2D0B12052A430D4D1B052A4013434D
:103670005B00E4075B082343190070BD02002900CA
:10368000153291400A000B21081AC5402D032D0B5D
:10369000E3E70024002300250022DEE71E040000EB
:1036A000FFFF0F804100090E4B1C70B5DBB24602D4
:1036B000750AC40F012B14DDE0239B006D07360B48
:1036C000CB1800210A0D280012051C4D32435B0562
:1036D0002A405B0813435B00E4075B08234319009F
:1036E00070BD002914D1002D1ED0280000F0B0F8C4
:1036F0000A281CDC0B232A001B1ADA4003001533AE
:103700009D400F4B12031B1A5B05160B5B0DD8E790
:10371000002D06D0320B802636036D071643094B69
:10372000CFE7084B0026CCE700230026C9E70300BB
:103730002A000B3B9A400025E3E7C046FFFF0F80BD
:1037400089030000FF070000F0B54C00640D0B0377
:10375000621C5B0A460F5205C90F1E43C500520D7D
:10376000012A29DD374BE718FE2F1CDC002F3BDD3B
:103770008001431E98410722F3006D0F03432B4342
:103780001A40002A04D00F221A40042A00D0043321
:103790008022D2041A4024D00137FAB2FF2F02D07F
:1037A0009B01580A01E0FF2200204002D205400A96
:1037B000C90710430843F0BD3543002C04D1002D48
:1037C0000AD100220020F0E7002DECD08020C003B9
:1037D0003043FF22E9E7002400235B02580AE2B2EB
:1037E000E3E7DB083C00F8E73B001733F3DB80231B
:1037F0001B0433431E26F61B1F2E14DD02225242E9
:10380000D71B1A00FA401700202E04D00E4A944607
:103810006444A3401D432B005D1EAB4107223B4384
:103820001A400027ADE7094A2800A21895409340A6
:103830006C1EA541F04007222B4303431A4000278A
:103840009FE7C04680FCFFFFA2FCFFFF82FCFFFF5A
:103850001C2101231B04984201D3000C10391B0AC0
:10386000984201D3000A08391B09984201D3000984
:10387000043902A2105C40187047C04604030202DB
:103880000101010100000000000000007047FEE798
:103890007047704710B502F073FF10BD10B50248B5
:1038A00002F082FA10BDC0465005002010B5024853
:1038B00000F0F6FA10BDC046E00B002010B503483A
:1038C00003F0E1F804F0A8F810BDC0469C0B0020FE
:1038D00010B5024800F07EFF10BDC0465C0B002012
:1038E00010B5024800F076FF10BDC0465C0B00200A
:1038F00010B5024800F06EFF10BDC046F40800206D
:1039000082B00A4B996901221143996199690A4071
:103910000092009ADA69802149050A43DA61DB697D
:103920000B400193019B02B07047C046001002405B
:1039300030B589B004001422002103A8FCF774FC00
:103940001D4B22689A4201D009B030BD1B4B9969CA
:1039500080208000014399619A6902400192019A96
:103960005A69802189020A435A615B690B400293BC
:10397000029B27230393243B04937138FF3803A948
:10398000C00502F01DFF0E4D0E4B2B6000236B6037
:10399000AB608033EB6080332B618023DB006B6195
:1039A0002023AB6180239B01EB61280003F004F826
:1039B000E5636C62C8E7C046002401400010024085
:1039C0009C0B00200800024010B58AB004001422AD
:1039D000002105A8FCF728FC2368254A934204D05F
:1039E000244A934222D00AB010BD234C6269802140
:1039F000C9020A43626163690B400193019BC023C2
:103A00000593AE3B0693113B07930322089209935B
:103A100005A91A4802F0D4FEE269802189030A430D
:103A2000E261E3690B400293029BDCE7124C62699E
:103A30008021C9020A43626163690B400393039BBF
:103A4000C0231B01059312230693113B0793032206
:103A50000892099305A9094802F0B2FEE2698021A3
:103A6000C9030A43E261E3690B400493049BBAE78C
:103A7000005400400058004000100240000400487C
:103A800000B583B00268104B9A4201D003B000BD6C
:103A90000E4A9169802000010143916193690340BE
:103AA0000193019B002200210D2003F041F80D201D
:103AB00003F06EF8002200210E2003F039F80E20EA
:103AC00003F066F8E2E7C046002C01400010024017
:103AD00010B588B004001422002103A8FCF7A4FB51
:103AE0002268124B9A4201D008B010BD104B996960
:103AF00080200001014399619A6902400192019A74
:103B00005A69802189020A435A615B690B4002931A
:103B1000029B80235B000393FE3B0493079390205A
:103B200003A9C00502F04CFEDEE7C046002C0140B0
:103B30000010024030B583B00400002301930368F5
:103B4000996803220A40012A0ED09968204A11423E
:103B500012D19A6801210A439A601E4B18681E49C7
:103B6000FDF79EF9019015E01A68D2072DD4DA68A6
:103B70001204EAD5002008E0636C1022134363644A
:103B8000A36C0F3A1343A364012003B030BD019B23
:103B9000013B0193019B002BF9D102F0F9FD0500D7
:103BA00023681B68DB070ED402F0F2FD401B0228DD
:103BB000F6D9636C102213436364A36C0F3A13436A
:103BC000A3640120E1E70020DFE70020DDE7C04635
:103BD00017000080F000002040420F0070B5041E66
:103BE00000D1B0E0436C002B7DD0636CDB0600D5C8
:103BF000A3E021688B6804221A4000D09DE0636C2A
:103C0000524803400630FF3003436364886803234F
:103C10000340012B6DD0CB6818208343A068034379
:103C2000CB6021680B699B009B08606803430B61B4
:103C30002168CB6846480340CB60A3699B03E169D8
:103C4000C9030B43216A48030343606B012857D023
:103C5000802040010343E06803432069022851D0DB
:103C60001343226B52001343626A012A4CD0A26AAA
:103C7000C221FF318A4202D0E16A0A43134321681C
:103C8000CA681A43CA60A26B802149058A420DD0D6
:103C9000012A0BD0022A09D0032A07D0042A05D012
:103CA000052A03D0062A01D0072A0AD120684169D3
:103CB00007229143416120684169A56B2A400A436C
:103CC00042612268D26823490A409A422BD0636C31
:103CD00012229343023A13436364A36C0F3A1343D3
:103CE000A36401202EE0836440228354FFF720FE6A
:103CF0007BE70B68DB079BD4CB681B0498D48AE76F
:103D00001000A7E70422ABE7002903D1802252026A
:103D10001343ACE7626C20210A436264A26C1F3932
:103D20000A43A264A3E70023A364636C03229343C2
:103D3000023A13436364002004E0636C10221343CF
:103D40006364012070BD0120FCE7C046FDFEFFFF5B
:103D50001902FEFFE7FF3F83F8B504000E001700CD
:103D600003689B685B073ED44023C35C012B3CD0B7
:103D700040230122C254C369012B32D0FFF7DAFE7F
:103D8000051E2CD1636C1A4A1A4080235B00134332
:103D900063640023A3644022A354E36B154A9A6230
:103DA000E36B154ADA62E36B144A1A6323681C2238
:103DB0001A602268536810210B4353602268D3684D
:103DC0000F390B43D360216840313B003200E06B78
:103DD00002F01EFE2268936804210B4393602800C2
:103DE000F8BD0025CEE70225F9E70225F7E7C04632
:103DF000FEF0FFFF053E0008773E0008853E000804
:103E00007047000010B5436A5A6C5021114203D02C
:103E1000DB6B1B6B984710BD596C802292000A43E4
:103E20005A641A68D068C0210901084213D1196A7E
:103E3000002910D1116809070DD5916849070ED4E2
:103E400051680C20814351605A6C09490A40043181
:103E5000FF310A435A641800FFF7D2FFDBE75A6CC0
:103E600020210A435A649A6C1F390A439A64F2E784
:103E7000FEFEFFFF704710B5406AFFF7FBFF10BD65
:103E80007047704710B5406A436C40221343436447
:103E9000836C3C3A13438364FFF7F3FF10BD0000CB
:103EA00010B5040003681A68520702D55A68520711
:103EB00005D41A68120729D55A68120726D5626CEC
:103EC000D20604D4616C802292000A436264D968ED
:103ED000C0221201114213D1226A002A10D11A689D
:103EE00012070DD59A68520731D45A680C218A43BB
:103EF0005A60636C204A13400432FF3213436364F8
:103F00002000FFF77DFF23680C221A6023681A68DF
:103F1000120602D55B681B0622D423681A68D206F3
:103F200014D55A68D20611D5626B012A02D0DA681C
:103F3000D20708D5A26C02210A43A26410221A609B
:103F40002000FFF79EFF236810221A6010BD636CEB
:103F5000202213436364A36C1F3A1343A364CFE787
:103F6000626C80235B02134363642000FFF788FFC9
:103F7000236880221A60D0E7FEFEFFFF30B583B0D1
:103F80000400002301934033C35C012B00D18AE07D
:103F900040230122C25403689A68520775D4434AE9
:103FA0004868904256D09A6A01200D68A8400243A2
:103FB0009A62A36B8022520593421ED0012B1CD023
:103FC000022B1AD0032B18D0042B16D0052B14D09B
:103FD000062B12D0072B10D022685069072303400C
:103FE0008868984209D05069072398435061206837
:103FF00042698D682B40134343610B681A00103AE5
:10400000022A4CD82A4A1268102B0ED0112B09D044
:1040100080235B041343264A13600B68102B07D0E0
:10402000002037E08023DB03F4E780231B04F1E763
:10403000204B18682049FCF733FF83001818430011
:10404000019302E0019B013B0193019B002BF9D1FD
:1040500000201FE09A6A01200D68A84082439A62FE
:104060000B681A00103A022A1BD8114A1268102B4A
:1040700009D0112B05D0114B13400D4A13600020BD
:1040800008E00F4BF8E70F4BF6E7436C2022134391
:104090004364012040230022E25403B030BD0020DD
:1040A000F8E70020F6E70220F7E7C046011000001D
:1040B00008270140F000002040420F00FFFFFFFEF4
:1040C000FFFFBFFFFFFF7FFF03689A69920701D5DB
:1040D00000229A6203689A69D20703D49A6901217F
:1040E0000A439A617047000030B51D00046860689B
:1040F000064B18408905890D12040B0013432B430E
:10410000039A13430343636030BDC046009800FC2C
:1041100070B504000E00150003689B69DB0616D518
:1041200023689A69920614D4731CF9D0002E04D027
:1041300002F02EFB401BB042F2D941232022E25470
:1041400000232232A354023AA354032018E0002093
:1041500016E01022DA6123682025DD612000FFF7D8
:10416000B3FF2268536807490B405360042363641C
:104170003D33E55400234222A354023AA3540120C4
:1041800070BDC04600E800FE70B504000D001600CA
:1041900023689B699B071CD4320029002000FFF78D
:1041A000B7FF002817D16B1CF2D0002D04D002F00D
:1041B000EFFA801BA842EBD9636C2022134363649F
:1041C0004123E25400232232A354023AA354032091
:1041D00000E0002070BD0120FCE7F8B506000C00EF
:1041E00017001D0033689B6923401B1B5A42534133
:1041F000BB4213D16B1CF5D0002D05D002F0C8FADC
:10420000069BC01AA842EDD941232022F254002374
:104210002232B354023AB354032000E00020F8BD28
:1042200070B505000C0016002B689B699B061AD41C
:10423000320021002800FFF76BFF002815D1002C69
:1042400004D002F0A5FA801BA042EDD96B6C2022AD
:1042500013436B644123EA5400232232AB54023AE5
:10426000AB54032070BD0020FCE70120FAE70000FA
:1042700010B5041E59D04123C35C002B43D0412309
:104280002422E2542268136801218B4313602268C0
:10429000274B61680B4013612268936825490B40E6
:1042A0009360E368012B34D0226884231B02A16849
:1042B0000B439360E368022B32D0226851681E4B97
:1042C0000B4353602268D3681A490B40D3602369BB
:1042D00062691343A269120221681343CB6022680A
:1042E000E369216A0B4313602268136801210B43C1
:1042F00013600023636441221F31A1542363013200
:10430000A354002010BD40330022C254FFF75CFBD1
:10431000B5E7226880231B02A1680B439360C9E7BD
:104320002368802212015A60C7E70120EAE7C046ED
:10433000FFFFFFF0FF7FFFFF00800002F0B585B0B8
:104340000500039117001E004123C35C202B00D001
:10435000A5E02033C35C012B00D1A3E04023012260
:10436000C25402F015FA04008021009019230122A2
:1043700009022800FFF731FF002800D094E0412314
:104380002122EA540133113AEA5400236B646F622C
:104390006E856B636B8D9BB2FF2B0CD9FF232B8536
:1043A0007F3B8022920100925B04FF220399280048
:1043B000FFF79AFE1FE06A8D92B22A858023D2B25F
:1043C0008021890100919B0403992800FFF78CFE4E
:1043D00011E06B6C042B00D068E0012060E06A8D76
:1043E00092B22A858023D2B2002100919B040399C6
:1043F0002800FFF779FE6B8D9BB2002B33D0220093
:104400000A992800FFF7C0FE0028E2D16B6A5A1C07
:104410006A622A681B7893626B8D013B9BB26B8545
:104420002B8D013B9BB22B85002BE4D16B8D9BB276
:10443000002BE0D000940A9B002280212800FFF787
:10444000CCFE002834D16B8D9BB2FF2BC7D9FF2344
:104450002B857F3B002200925B04FF3203992800EA
:10446000FFF742FEC7E722000A992800FFF7D8FEAF
:10447000002804D06B6C042B1CD1012010E02B68A9
:104480002022DA6129684B680B4C23404B604123A2
:10449000EA5400232232AB54023AAB5400E002202B
:1044A00005B0F0BD0220FBE70320F9E70320F7E7A2
:1044B0000320F5E70320F3E700E800FE4123C05C9A
:1044C000C0B27047F0B54123C35C202B20D120330C
:1044D000C35C012B1ED04024012202554125242318
:1044E00043550668336893433360066833680A4F60
:1044F0003B403360066833681943316001680B68DC
:1045000013430B602023435500230355002000E094
:104510000220F0BD0220FCE7FFEFFFFFF0B54123D2
:10452000C35C202B1ED12033C35C012B1CD0402444
:1045300001220255412524234355066833689343DD
:10454000336006683368094F3B4009021943316004
:1045500001680B6813430B60202343550023035568
:10456000002000E00220F0BD0220FCE7FFF0FFFF8A
:1045700070B5041E24D00368124A1A600368124AF8
:104580001A60036842685A60036882689A6002F0A1
:10459000FFF805002368DA68002A06D002F0F8F870
:1045A000401B2728F6D903200BE01969E2689142E5
:1045B00002D01A61002004E0044A1A60002000E0E2
:1045C000012070BDCCCC000055550000AAAA000007
:1045D0000368024A1A6000207047C046AAAA000079
:1045E00030B5036A012293430362036A4268846917
:1045F0007325AC430D682C430225AB438D682B43D8
:10460000144DA84208D0144DA84205D0134DA8421D
:1046100002D0134DA84205D10825AB43CD682B43EA
:104620000425AB430B4DA84208D00B4DA84205D042
:104630000A4DA84202D00A4DA84205D1094D2A4090
:104640004D692A438D692A43426084614A68426306
:10465000036230BD002C0140004001400044014095
:1046600000480140FFFCFFFF70B5036A194A134080
:104670000362036A4268C4697325AC430E6826432B
:10468000154C23408C6824022343144CA04219D0BB
:10469000124CA04208D0124CA04205D0114CA042AE
:1046A00002D0114CA04207D1104C14404A691201AB
:1046B00022438C6925012A434260C6614A68C2636D
:1046C000036270BD0A4C1C40CB681B022343094C9B
:1046D0002340DDE7FFFEFFFFFFFDFFFF002C014051
:1046E000004001400044014000480140FFCFFFFF6F
:1046F000FFF7FFFFFFFBFFFF30B5036A134A1340CC
:104700000362026A4368C469114D2C400D682D0292
:104710002C43104D15408A6812032A430E4DA842BF
:1047200008D00E4DA84205D00D4DA84202D00D4D27
:10473000A84204D10C4D2B404D69AD012B43436081
:10474000C4614B680364026230BDC046FFEFFFFFE7
:10475000FF8CFFFFFFDFFFFF002C01400040014006
:104760000044014000480140FFBFFFFF30B5036A2D
:10477000046A0125AC4304628469EF35AC4312013D
:1047800022430A24A34319438261016230BD000021
:1047900030B5036A1024A34303628469036A054D9C
:1047A0002C4012032243A024A34309011943826130
:1047B000016230BDFF0FFFFF836870229343072221
:1047C00011431943816070477047704770477047C5
:1047D0007047704710B5040003681A6992070FD537
:1047E000DA6892070CD5032252421A61012303773B
:1047F00003689B699B0763D0FFF7E9FF00232377DA
:1048000023681A69520712D5DA6852070FD50522B4
:1048100052421A610223237723689A69C0239B00BE
:104820001A4253D02000FFF7D2FF002323772368DA
:104830001A69120710D5DA6812070DD509225242FB
:104840001A61042323772368DB699B0745D0200086
:10485000FFF7BDFF0023237723681A69D20612D51C
:10486000DA68D2060FD5112252421A610823237743
:104870002368DA69C0239B001A4235D02000FFF775
:10488000A6FF0023237723681A69D20702D5DA68C6
:10489000D20730D423681A69120602D5DA681206E4
:1048A00030D423681A69520602D5DA68520630D429
:1048B00023681A69920602D5DA68920630D410BDD0
:1048C000FFF784FF2000FFF783FF97E72000FFF743
:1048D0007DFF2000FFF77CFFA7E72000FFF776FFB2
:1048E0002000FFF775FFB5E72000FFF76FFF2000FE
:1048F000FFF76EFFC5E7022252421A61200003F063
:10490000EBF9C7E7812252421A61200000F0F1FA68
:10491000C7E7412252421A612000FFF75AFFC7E75A
:10492000212252421A61200000F0E2FAC7E700009B
:104930000368214A904206D08022D205904202D0DC
:104940001E4A904203D1702293434A6813431A4A85
:10495000904212D08022D20590420ED0174A904247
:104960000BD0174A904208D0164A904205D0164AFA
:10497000904202D0154A904203D1154A1340CA68AA
:104980001343802293434A69134303608B68C362D5
:104990000B688362084B984208D00A4B984205D0B6
:1049A000094B984202D0094B984201D10B6903632D
:1049B000012343617047C046002C014000040040C1
:1049C00000200040004001400044014000480140F8
:1049D000FFFCFFFF70B5041E14D03D23C35C002B09
:1049E0000AD03D2502236355211D2068FFF7A0FF53
:1049F00001236355002070BD3C330022C254FFF7F1
:104A0000E3FEEEE70120F6E770B5041E14D03D2367
:104A1000C35C002B0AD03D2502236355211D20686D
:104A2000FFF786FF01236355002070BD3C33002251
:104A3000C254FFF7CAFEEEE70120F6E770B5041E88
:104A400014D03D23C35C002B0AD03D2502236355BF
:104A5000211D2068FFF76CFF01236355002070BD06
:104A60003C330022C254FFF70BF8EEE70120F6E7D3
:104A700070B5036A102293430362036A4268846933
:104A8000174D2C400D682D0225432024A3438C682C
:104A900024012343134CA04219D0124CA04208D049
:104AA000114CA04205D0114CA04202D0104CA042A3
:104AB00007D1104C14404A69920022438C69A60029
:104AC0003243426085614A688263036270BD80241C
:104AD000A3431C00CB681B0123434024A343DCE712
:104AE000FF8CFFFF002C01400040014000440140CA
:104AF00000480140FFF3FFFF10B504003C23C35CF6
:104B0000012B25D03C230120E05401330130E05437
:104B1000042A15D007D9082A16D00C2A08D12068F3
:104B2000FFF7EAFD04E0002A02D12068FFF758FDF4
:104B30003D230122E254013B0022E254002010BD3B
:104B40002068FFF795FFF3E72068FFF78DFDEFE79B
:104B50000220F4E770B504000D003C23C35C012B78
:104B600069D03C230121C15401330131C154042ACD
:104B700037D019D9082A4AD00C2A2AD1290000682E
:104B8000FFF7BAFD2268D16980231B010B43D36173
:104B90002268D36929490B40D3612168CB692A690E
:104BA00012021343CB6114E0002A12D129000068DD
:104BB000FFF716FD2268936908210B439361226871
:104BC000936904398B4393612268936929690B4384
:104BD00093613D230122E254013B0022E254002074
:104BE00070BD29000068FFF743FF226891698023A8
:104BF0001B010B4393612268936910490B40936139
:104C000021688B692A69120213438B61E1E729004D
:104C10000068FFF729FD2268D36908210B43D3619F
:104C20002268D36904398B43D3612268D369296927
:104C30000B43D361CDE70220D2E7C046FFFBFFFF65
:104C400030B58468034D2C401B021A4311432143A5
:104C5000816030BDFF00FFFF10B504003C23C35C42
:104C6000012B00D17FE03C230122C25401330132E9
:104C7000C254026893683D48034093600B68402B20
:104C80005DD010D9702B43D020D8502B4DD0602B45
:104C900036D1CA6849682068FFF77AFD602120682C
:104CA000FFF78AFD2CE0102B53D008D9202B55D0CC
:104CB000302B25D130212068FFF77EFD20E0002B2E
:104CC0001ED100212068FFF777FD19E080225201F4
:104CD000934210D080229201934211D1CB684A684E
:104CE00089682068FFF7ACFF226891688023DB01A8
:104CF0000B43936004E02268936807218B43936021
:104D00003D230122E254013B0022E254002010BD69
:104D1000CB684A6889682068FFF792FF2268936829
:104D200077218B430B439360EAE7CA6849682068A0
:104D3000FFF71CFD50212068FFF73EFDE0E7CA6841
:104D400049682068FFF712FD40212068FFF734FD15
:104D5000D6E710212068FFF72FFDD1E7202120683A
:104D6000FFF72AFDCCE70220D1E7C0468800FFFF0D
:104D700010B501248C40036AA3430362036A8A408E
:104D80001A43026210BD000010B504000122006841
:104D9000FFF7EEFF23680C4A934208D00B4A934278
:104DA00005D00B4A934202D00A4A934204D1596C6F
:104DB000802212020A435A642268136801210B43BD
:104DC0001360002010BDC046002C0140004001408F
:104DD000004401400048014010B504000122006871
:104DE000FFF7C6FF23680C4A934208D00B4A934250
:104DF00005D00B4A934202D00A4A934204D1596C1F
:104E0000802212020A435A642268136801210B436C
:104E10001360002010BDC046002C0140004001403E
:104E20000044014000480140F0B53C23C35C012B25
:104E30001ED03C22012585543D24022303550668DB
:104E400073687027BB437360066873680F683B43E1
:104E500073600668B3688027BB43B3600668B368B5
:104E600049680B43B3600555002383540020F0BD0F
:104E70000220FCE770B53C23C35C012B28D03C2208
:104E8000012585543D2402230355124BCE6833403F
:104E90008E683343104E33404E6833430F4E3340D9
:104EA0000E6833430E4E33400E6933430D4E33408C
:104EB0004E6933430C4E334089690B430B4E3340EC
:104EC0000B4301684B64055500238354002070BDDB
:104ED0000220FCE7FFFCFFFFFFFBFFFFFFF7FFFFE8
:104EE000FFEFFFFFFFDFFFFFFFBFFFFFFF7FFFFFC2
:104EF00070477047F4235B00C35C012B13D0F4238D
:104F00005B000122C25400290AD19D3BFF3B7F3246
:104F10000168CA52F4235B000022C254002070478B
:104F20002423C154F6E70220F9E70000F0B54DB2A2
:104F3000002D00DA6AE07F240C40E600361BB40046
:104F40000934FF3404197F2631402170ED0F65705C
:104F5000E260E370F4235B00C35C012B00D18FE1BE
:104F6000F4235B000122C254E378012B00D17CE0E2
:104F7000002B53D0022B5ED0032B00D168E02378A6
:104F80009A0001688C4662441188BE4D294019433D
:104F9000BD4B0B439BB21380A37A002B00D0BEE025
:104FA0006378002B00D16DE0A28805685023EB5A8E
:104FB0002178C9005B185B198021C9008C466344C5
:104FC00001218A431A8023789B0002689446634437
:104FD0001A88520606D51A88AA491140AB4A0A43D4
:104FE00092B21A802178890003689C4661440B883C
:104FF000A74A134020225A40A34B13439BB20B8075
:10500000F4235B000022C2540020F0BD7F240C403A
:10501000E600361BB4002834041994E72278920085
:1050200003689C46624413889A4919409A4B0B4383
:105030009BB21380A3E72278920003689C466244E7
:10504000138894491940904B0B439BB2138096E709
:105050002278920003689C46624413888D49194067
:105060008E4B0B439BB2138089E722789200036832
:105070009C466244138887491940894B0B439BB275
:1050800013807CE7A28805685026AB5B2178C900B5
:105090005B185B1983498C46634401218A431A805B
:1050A00001688B5B2278D2009B185B187E4A94467D
:1050B0006344E1683E2929D94A0992B2C90601D15F
:1050C000013A92B2920292B278490A431A80237846
:1050D0009B000268944663441A88520406D51A88D5
:1050E00068491140724A0A4392B21A8022789200AB
:1050F00003689C46624411886E4B1940C0239B0193
:105100005940614B0B439BB2138079E74A0892B236
:10511000C90701D5013292B292021A80D7E72278EC
:10512000920003689C466244138863491940634BAC
:105130000B439BB21380E28805685027EB5B217814
:10514000C9005B185B198021C9008C4663440126A5
:10515000B2431A8022890568EB5B2178C9005B188D
:105160005B1950498C466344B2431A806378002B24
:1051700044D123789B000268944663441A88520401
:1051800006D51A883F491140494A0A4392B21A800B
:1051900023789B000268944663441A88520606D519
:1051A0001A8838491140394A0A4392B21A80227843
:1051B000920003689C466244138832491940334B7D
:1051C0000B439BB213802178890003689C4661449D
:1051D0000B88384A1A40C0239B0153402A4A134384
:1051E0009BB20B8023789B0001688C46634419882E
:1051F000274C21400A4392B21A8001E723789B0092
:105200000268944663441A88520406D51A881D49D8
:105210001140274A0A4392B21A8023789B00026801
:10522000944663441A88520606D51A8815491140D7
:10523000164A0A4392B21A802278920003689C466A
:10524000624413880F491940194B0B439BB21380DA
:105250002178890003689C4661440B880C4A1340FE
:10526000094A13439BB20B8023789B0001688C464C
:10527000634419880F4C21400A4392B21A80BFE65A
:105280000220C2E60F0F00008080FFFFC080FFFFFA
:10529000BF8FFFFF0F0900008082FFFF8086FFFFA6
:1052A0008084FFFF04040000060400000080FFFF6C
:1052B00080C0FFFF8FBFFFFF0F0E00008081FFFF48
:1052C00070B57F242140CD006D1AAC000419250073
:1052D0001935FF352A6022001D32FF321360083570
:1052E00000222A60173D2A7022000932FF32117015
:1052F0001534FF342268934241D9CD006D1AAC00B9
:1053000004191D34FF349B1A2360CC00641AA300D7
:105310001C00C3181333FF331B78002B42D10568E0
:105320005033EB5A04190934FF342478E4001B1974
:105330005B195F4CA44663443E2A2AD95409A4B29F
:10534000D20601D1013CA4B2A402A4B2594A14432A
:105350001C800268CB00591A8B00C0180930FF303E
:1053600003789B00D2181188534B1940C0239B012E
:105370005940524B0B439BB21380002070BDCC00B0
:10538000641AA20082181D32FF32002414601A0031
:10539000BBE75408A4B2D20701D50134A4B2A402D9
:1053A0001C80D6E7CC00641AA3001C00C3180A3383
:1053B000FF331B78002B23D105685033EB5A0419B7
:1053C0000934FF342478E4001B195B193C4CA446D3
:1053D00063443E2A0BD95409A4B2D50601D1013C3D
:1053E000A4B2A402A4B2334D2C431C800AE054089A
:1053F000A4B2D50701D50134A4B2A4021C8001E0F7
:10540000012B24D0CC00641AA3001C00C3180A335B
:10541000FF331B78002B35D105685033EB5A041944
:105420000934FF342478E4001B195B19204CA4468E
:1054300063443E2A1DD95409A4B2D20601D1013CCD
:10544000A4B2A402A4B21B4A14431C8081E70568DD
:105450004F33EB5ACE00761AB40004190934FF34E6
:105460002478E4001B195B19154CA44663441A8088
:10547000C8E75408A4B2D20701D50134A4B2A402EB
:105480001C8066E7012B00D063E705684F33EB5AB9
:10549000CE00761AB40004190934FF342478E400ED
:1054A0001B195B19024CA44663441A8051E7C0469D
:1054B000060400000080FFFF8FBFFFFF8080FFFF1A
:1054C0000204000010B5F4235B00C35C012B50D034
:1054D000F4235B000122C2544CB2002C21DBCA0031
:1054E000521A93000933FF33C31801229A707E3297
:1054F00011401970E40F5C7000291BD1890003680A
:105500009C4661440A881C4B1A401C4B5A401C4B59
:1055100013439BB20B80F4235B000022C254002093
:1055200010BD6A3BFF3B0B40DA00D21A93002833D0
:10553000C318DAE7002C0DD0890003689C4661444B
:105540000B88104A134010225A400D4B13439BB254
:105550000B80E0E7890003689C4661440A880A4B97
:105560001A4080235B015A40054B13439BB20B80CA
:10557000D1E70220D4E7C046BFBFFFFF10100000F4
:105580008080FFFFBF8FFFFF8FBFFFFF10B54AB2C4
:10559000002A3BDBCC00641AA3000933FF33C31895
:1055A00000249C707F3421401970D20F5A70F4226D
:1055B0005200825C012A50D0F42252000121815411
:1055C0005A78002A2AD01A78920001688C466244E0
:1055D0001188490606D51188214C0C4021492143E8
:1055E00089B211801978890003689C4661440B8850
:1055F0001D4A134030225A401C4B13439BB20B8070
:10560000F4235B000022C254002010BD7F230B4016
:10561000DC00E41AA3002833C318C1E71A7892000B
:1056200001688C4662441188490406D511880C4CE7
:105630000C400F49214389B211801A789200036807
:105640009C46624411880B4B1940C0239B01594072
:10565000064B0B439BB21380D2E70220D5E7C0462E
:105660000F0F0000C080FFFFBF8FFFFF8080FFFF94
:1056700080C0FFFF8FBFFFFF10B501335B0812181A
:105680008020C0008446624407E008784C782402F9
:10569000044314800231013B0232002BF5D110BDCE
:1056A000F8B505007F240C40E000001B810069185C
:1056B0008A63CB6300220A640A0029320120107039
:1056C000013A14704F6BBB4234D9DB1BCB63E20051
:1056D000121B93001A00EB1832331B78002B31D0C9
:1056E0002868E200121B9300EB1828331B789A00FD
:1056F00082181288520675D5E600361BB200AA1829
:1057000029321278002A3BD15032825ADB00D3185A
:105710001818634B9C4660443E2F28D97B099BB2E6
:10572000FA0601D1013B9BB29B029BB25D4A134337
:10573000038027E0E100091B8A00AA180021D16339
:105740001F00C4E7BFB2AE18B28D3B00B16B286832
:10575000FFF792FF2A685023D35A28363178C900C0
:105760005B189B18504A944663441F8084E07B0872
:105770009BB2FA0701D501339BB29B02038001E083
:10578000012A25D0E200121B9300EB181A8EBBB23F
:10579000E100091B8E00AE19B16B2868FFF76CFFA2
:1057A00029363378002B56D0012B65D1E200121B2D
:1057B0009300EB1828331A7892002B689C466244B9
:1057C00013883A4919403A4B0B439BB2138053E07C
:1057D0004F32825ADB00D3181818314B9C46604474
:1057E0000780CFE7E600361BB200AA1829321278EC
:1057F000002A1ED15032825ADB00D31818182A4BC7
:105800009C4660443E2F0BD97B099BB2FA0601D11E
:10581000013B9BB29B029BB2224A134303800AE0E6
:105820007B089BB2FA0701D501339BB29B02038030
:1058300001E0012A05D0E200121B9300EB18DA8D7B
:10584000A5E74F32825ADB00D3181818164B9C4636
:1058500060440780EFE7E200121B9300EB18283347
:105860001A7892002B689C46624413880F491940AD
:10587000104B0B439BB213802968E3001C1BA30051
:10588000ED1828352B789B00C9180B880A4A13405D
:1058900030225A40094B13439BB20B800020F8BDC5
:1058A000060400000080FFFF020400000F0F00004C
:1058B00080C0FFFFC080FFFFBF8FFFFF8080FFFF22
:1058C00030B55D0812188020C0008446624406E0AE
:1058D00014880C70240A4C70013D02320231002DF4
:1058E000F6D1DB0701D513880B7030BDF0B583B05E
:1058F000050001AB00221A8028684423C35A9BB2DA
:105900006A46D3801BB2002B00DB41E26B46DC8889
:105910000F231C4000D0B7E06B4606331B88DB0624
:105920004DD503889BB201AA138013881B0576D43A
:1059300001AB1B881BB2002BDEDA0388CC4A134074
:10594000038028685023C35A84225200AA5CD200E4
:105950009B181B18C74A944663441B889B059B0DE4
:105960002A000932FF329361002B00D078E0002139
:10597000280001F01CFE2B6850229A5A9A18BD4B41
:105980009C4662442B000933FF33D9683E2972D903
:105990004B099BB2C90601D1013B9BB29B029BB252
:1059A000B5490B43138029680A88B44B1A40C023B9
:1059B0009B015A40B24B13439BB20B809CE7038878
:1059C000B04A1340038029685023CB5A2822AA5C8E
:1059D000D2009B185B18AC4A944663441B889B0515
:1059E0009B0D2B64AA6B94466344AB630021280093
:1059F00001F0ECFD2423EB5C002B00D17CE7EB6B8A
:105A0000002B00D078E72422AB5C802149420B4375
:105A1000DBB2CC31286843520023AB546CE75023EF
:105A2000C35A84225200AA5CD2009B181B18914AC8
:105A3000944663441B889B059B0D2A000932FF3264
:105A400093612900ED31FF319288FFF739FF2A6811
:105A5000138887490B401380280001F09EFD4BE717
:105A6000140092882169FFF72BFF2369A2699446ED
:105A7000634423617BE74B089BB2C90701D501331F
:105A80009BB29B0213808EE7A600801903889BB20D
:105A900001AA138013881BB2002B31DB01AB1B88DA
:105AA0001B0600D428E72B689C4666443388754A59
:105AB00013403380E200121B93001A00EB183233BC
:105AC0001B78002B00D0E5E028685033C35AAA1891
:105AD000110028310978C9005B181B186A498C46E7
