:020000040800F2
:1000000000400020AD4F0008010300080303000872
:1000100000000000000000000000000000000000E0
:1000200000000000000000000000000005030008C0
:10003000000000000000000007030008090300089A
:10004000FD4F0008FD4F0008FD4F0008FD4F000860
:10005000FD4F0008FD4F0008FD4F0008FD4F000850
:10006000FD4F000831030008FD4F0008FD4F000858
:10007000210300084503000855030008FD4F000850
:1000800065030008FD4F0008FD4F0008FD4F000804
:10009000FD4F0008FD4F0008FD4F0008FD4F000810
:1000A000FD4F0008FD4F0008FD4F0008FD4F000800
:1000B000FD4F0008FD4F0008FD4F00081103000828
:1000C00003B47146490840004900095E49008E4466
:1000D00003BC7047002934D00123002210B48842A9
:1000E0002CD301242407A14204D2814202D2090167
:1000F0001B01F8E7E400A14204D2814202D2490088
:100100005B00F8E7884201D3401A1A434C08A0422A
:1001100002D3001B5C0822438C08A04202D3001BC0
:100120009C082243CC08A04202D3001BDC082243D7
:10013000002803D01B0901D00909E3E7100010BC17
:10014000704701B5002000F00BF802BD0029F8D07F
:1001500003B5FFF7C1FF0EBC4243891A1847C046DA
:100160007047C0468446100062468C4619006346BC
:1001700000E0C0461FB506F087FF002801D400212B
:10018000C8421FBD10B506F0E9FE4042013010BD67
:1001900010B506F079FF002801DB002010BD01201A
:1001A00010BDC04610B506F06FFF002801DD00202D
:1001B00010BD012010BDC04610B506F009FF002893
:1001C00001DC002010BD012010BDC04610B506F0B6
:1001D000FFFE002801DA002010BD012010BDC0463E
:1001E000844608006146FFE71FB505F030FE002891
:1001F00001D40021C8421FBD10B505F0C5FD404225
:10020000013010BD10B505F022FE002801DB0020F2
:1002100010BD012010BDC04610B505F018FE002825
:1002200001DD002010BD012010BDC04610B505F055
:10023000D0FD002801DC002010BD012010BDC0460B
:1002400010B505F0C6FD002801DA002010BD012020
:1002500010BDC04602B4714649084900095C490016
:100260008E4402BC7047C04603B471464908400042
:100270004900095A49008E4403BC70471C210123E0
:100280001B04984201D3000C10391B0A984201D379
:10029000000A08391B09984201D30009043902A257
:1002A000105C40187047C0460403020201010101BE
:1002B000000000000000000010B5064C2378002B61
:1002C00007D1054B002B02D0044800E000BF0123FA
:1002D000237010BD1801002000000000087D0008F8
:1002E000044B10B5002B03D00349044800E000BFC5
:1002F00010BDC046000000001C010020087D000861
:100300007047FEE77047704710B502F073FF10BDED
:1003100010B5024802F082FA10BDC046300A002033
:1003200010B5024800F0F6FA10BDC0466403002084
:1003300010B5034803F0E1F804F0A8F810BDC0467A
:10034000B003002010B5024800F07EFF10BDC0468B
:100350009C04002010B5024800F076FF10BDC04696
:100360009C04002010B5024800F06EFF10BDC0468E
:10037000DC04002082B00A4B996901221143996183
:1003800099690A400092009ADA69802149050A4376
:10039000DA61DB690B400193019B02B07047C046F4
:1003A0000010024030B589B004001422002103A8D7
:1003B00004F04AFE1D4B22689A4201D009B030BDBC
:1003C0001B4B996980208000014399619A69024022
:1003D0000192019A5A69802189020A435A615B6934
:1003E0000B400293029B27230393243B0493713811
:1003F000FF3803A9C00502F01DFF0E4D0E4B2B6008
:1004000000236B60AB608033EB6080332B61802313
:10041000DB006B612023AB6180239B01EB61280033
:1004200003F004F8E5636C62C8E7C04600240140AD
:1004300000100240B00300200800024010B58AB04E
:1004400004001422002105A804F0FEFD2368254ABB
:10045000934204D0244A934222D00AB010BD234CC8
:1004600062698021C9020A43626163690B4001939A
:10047000019BC0230593AE3B0693113B07930322D8
:100480000892099305A91A4802F0D4FEE269802176
:1004900089030A43E261E3690B400293029BDCE7B4
:1004A000124C62698021C9020A43626163690B4090
:1004B0000393039BC0231B01059312230693113B57
:1004C000079303220892099305A9094802F0B2FE96
:1004D000E2698021C9030A43E261E3690B400493A6
:1004E000049BBAE70054004000580040001002404E
:1004F0000004004800B583B00268104B9A4201D056
:1005000003B000BD0E4A9169802000010143916152
:10051000936903400193019B002200210D2003F009
:1005200041F80D2003F06EF8002200210E2003F0A8
:1005300039F80E2003F066F8E2E7C046002C0140CF
:100540000010024010B588B004001422002103A856
:1005500004F07AFD2268124B9A4201D008B010BD17
:10056000104B996980200001014399619A6902400A
:100570000192019A5A69802189020A435A615B6992
:100580000B400293029B80235B000393FE3B04938A
:100590000793902003A9C00502F04CFEDEE7C04699
:1005A000002C01400010024030B583B0040000234D
:1005B00001930368996803220A40012A0ED09968C2
:1005C000204A114212D19A6801210A439A601E4BB7
:1005D00018681E49FFF77EFD019015E01A68D207E2
:1005E0002DD4DA681204EAD5002008E0636C1022EA
:1005F00013436364A36C0F3A1343A364012003B055
:1006000030BD019B013B0193019B002BF9D102F00E
:10061000F9FD050023681B68DB070ED402F0F2FD2C
:10062000401B0228F6D9636C102213436364A36C49
:100630000F3A1343A3640120E1E70020DFE7002025
:10064000DDE7C04617000080AC00002040420F00EC
:1006500070B5041E00D1B0E0436C002B7DD0636CFC
:10066000DB0600D5A3E021688B6804221A4000D085
:100670009DE0636C524803400630FF3003436364DF
:10068000886803230340012B6DD0CB681820834377
:10069000A0680343CB6021680B699B009B086068DE
:1006A00003430B612168CB6846480340CB60A369D4
:1006B0009B03E169C9030B43216A48030343606B51
:1006C000012857D0802040010343E068034320699C
:1006D000022851D01343226B52001343626A012A4D
:1006E0004CD0A26AC221FF318A4202D0E16A0A4399
:1006F00013432168CA681A43CA60A26B8021490566
:100700008A420DD0012A0BD0022A09D0032A07D031
:10071000042A05D0052A03D0062A01D0072A0AD1C7
:100720002068416907229143416120684169A56BB6
:100730002A400A4342612268D26823490A409A4209
:100740002BD0636C12229343023A13436364A36C6D
:100750000F3A1343A36401202EE0836440228354A4
:10076000FFF720FE7BE70B68DB079BD4CB681B04FD
:1007700098D48AE71000A7E70422ABE7002903D149
:10078000802252021343ACE7626C20210A43626468
:10079000A26C1F390A43A264A3E70023A364636C1D
:1007A00003229343023A13436364002004E0636C22
:1007B000102213436364012070BD0120FCE7C04692
:1007C000FDFEFFFF1902FEFFE7FF3F83F8B50400BF
:1007D0000E00170003689B685B073ED44023C35C90
:1007E000012B3CD040230122C254C369012B32D0DB
:1007F000FFF7DAFE051E2CD1636C1A4A1A408023DB
:100800005B00134363640023A3644022A354E36B9F
:10081000154A9A62E36B154ADA62E36B144A1A636B
:1008200023681C221A602268536810210B4353600E
:100830002268D3680F390B43D360216840313B00F5
:100840003200E06B02F01EFE2268936804210B4325
:1008500093602800F8BD0025CEE70225F9E70225C0
:10086000F7E7C046FEF0FFFF79080008EB08000834
:10087000F90800087047000010B5436A5A6C50210F
:10088000114203D0DB6B1B6B984710BD596C802263
:1008900092000A435A641A68D068C02109010842CC
:1008A00013D1196A002910D1116809070DD5916873
:1008B00049070ED451680C20814351605A6C094994
:1008C0000A400431FF310A435A641800FFF7D2FF8F
:1008D000DBE75A6C20210A435A649A6C1F390A4399
:1008E0009A64F2E7FEFEFFFF704710B5406AFFF71B
:1008F000FBFF10BD7047704710B5406A436C402243
:1009000013434364836C3C3A13438364FFF7F3FF60
:1009100010BD000010B5040003681A68520702D524
:100920005A68520705D41A68120729D55A6812075F
:1009300026D5626CD20604D4616C802292000A43F0
:100940006264D968C0221201114213D1226A002ABE
:1009500010D11A6812070DD59A68520731D45A6817
:100960000C218A435A60636C204A13400432FF32E0
:10097000134363642000FFF77DFF23680C221A6095
:1009800023681A68120602D55B681B0622D4236806
:100990001A68D20614D55A68D20611D5626B012A9C
:1009A00002D0DA68D20708D5A26C02210A43A264F9
:1009B00010221A602000FFF79EFF236810221A60A1
:1009C00010BD636C202213436364A36C1F3A13436E
:1009D000A364CFE7626C80235B021343636420004F
:1009E000FFF788FF236880221A60D0E7FEFEFFFF32
:1009F00030B583B00400002301934033C35C012B66
:100A000000D18AE040230122C25403689A68520749
:100A100075D4434A4868904256D09A6A01200D68BE
:100A2000A84002439A62A36B8022520593421ED0D3
:100A3000012B1CD0022B1AD0032B18D0042B16D05C
:100A4000052B14D0062B12D0072B10D0226850692A
:100A5000072303408868984209D0506907239843C8
:100A60005061206842698D682B40134343610B68D5
:100A70001A00103A022A4CD82A4A1268102B0ED0BB
:100A8000112B09D080235B041343264A13600B68A3
:100A9000102B07D0002037E08023DB03F4E780230E
:100AA0001B04F1E7204B18682049FFF713FB830074
:100AB00018184300019302E0019B013B0193019B45
:100AC000002BF9D100201FE09A6A01200D68A84090
:100AD00082439A620B681A00103A022A1BD8114A04
:100AE0001268102B09D0112B05D0114B13400D4A61
:100AF0001360002008E00F4BF8E70F4BF6E7436C5C
:100B0000202213434364012040230022E25403B017
:100B100030BD0020F8E70020F6E70220F7E7C046E6
:100B20000110000008270140AC00002040420F00E7
:100B3000FFFFFFFEFFFFBFFFFFFF7FFF03689A6914
:100B4000920701D500229A6203689A69D20703D4FA
:100B50009A6901210A439A617047000030B51D006F
:100B600004686068064B18408905890D12040B0063
:100B700013432B43039A13430343636030BDC046C2
:100B8000009800FC70B504000E00150003689B6916
:100B9000DB0616D523689A69920614D4731CF9D023
:100BA000002E04D002F02EFB401BB042F2D94123AC
:100BB0002022E25400232232A354023AA3540320F9
:100BC00018E0002016E01022DA6123682025DD619C
:100BD0002000FFF7B3FF2268536807490B405360BA
:100BE000042363643D33E55400234222A354023AB4
:100BF000A354012070BDC04600E800FE70B504009B
:100C00000D00160023689B699B071CD43200290045
:100C10002000FFF7B7FF002817D16B1CF2D0002D82
:100C200004D002F0EFFA801BA842EBD9636C2022BB
:100C3000134363644123E25400232232A354023A53
:100C4000A354032000E0002070BD0120FCE7F8B5AC
:100C500006000C0017001D0033689B6923401B1B16
:100C60005A425341BB4213D16B1CF5D0002D05D025
:100C700002F0C8FA069BC01AA842EDD941232022EF
:100C8000F25400232232B354023AB354032000E05A
:100C90000020F8BD70B505000C0016002B689B699C
:100CA0009B061AD4320021002800FFF76BFF0028B2
:100CB00015D1002C04D002F0A5FA801BA042EDD97A
:100CC0006B6C202213436B644123EA5400232232CD
:100CD000AB54023AAB54032070BD0020FCE7012066
:100CE000FAE7000010B5041E59D04123C35C002B65
:100CF00043D041232422E2542268136801218B430C
:100D000013602268274B61680B4013612268936867
:100D100025490B409360E368012B34D0226884237B
:100D20001B02A1680B439360E368022B32D0226858
:100D300051681E4B0B4353602268D3681A490B401D
:100D4000D360236962691343A269120221681343C5
:100D5000CB602268E369216A0B4313602268136841
:100D600001210B4313600023636441221F31A1540E
:100D700023630132A354002010BD40330022C2542B
:100D8000FFF75CFBB5E7226880231B02A1680B43D9
:100D90009360C9E72368802212015A60C7E70120E7
:100DA000EAE7C046FFFFFFF0FF7FFFFF0080000281
:100DB000F0B585B00500039117001E004123C35C08
:100DC000202B00D0A5E02033C35C012B00D1A3E091
:100DD00040230122C25402F015FA04008021009041
:100DE0001923012209022800FFF731FF002800D053
:100DF00094E041232122EA540133113AEA540023BA
:100E00006B646F626E856B636B8D9BB2FF2B0CD92D
:100E1000FF232B857F3B8022920100925B04FF22FF
:100E200003992800FFF79AFE1FE06A8D92B22A8587
:100E30008023D2B28021890100919B04039928006C
:100E4000FFF78CFE11E06B6C042B00D068E00120F2
:100E500060E06A8D92B22A858023D2B2002100918F
:100E60009B0403992800FFF779FE6B8D9BB2002B42
:100E700033D022000A992800FFF7C0FE0028E2D1F3
:100E80006B6A5A1C6A622A681B7893626B8D013BFD
:100E90009BB26B852B8D013B9BB22B85002BE4D144
:100EA0006B8D9BB2002BE0D000940A9B0022802126
:100EB0002800FFF7CCFE002834D16B8D9BB2FF2BAE
:100EC000C7D9FF232B857F3B002200925B04FF32B2
:100ED00003992800FFF742FEC7E722000A9928007D
:100EE000FFF7D8FE002804D06B6C042B1CD1012026
:100EF00010E02B682022DA6129684B680B4C2340F4
:100F00004B604123EA5400232232AB54023AAB54E3
:100F100000E0022005B0F0BD0220FBE70320F9E766
:100F20000320F7E70320F5E70320F3E700E800FEDE
:100F30004123C05CC0B27047F0B54123C35C202B95
:100F400020D12033C35C012B1ED040240122025546
:100F5000412524234355066833689343336006686C
:100F600033680A4F3B403360066833681943316089
:100F700001680B6813430B6020234355002303557E
:100F8000002000E00220F0BD0220FCE7FFEFFFFFA1
:100F9000F0B54123C35C202B1ED12033C35C012B51
:100FA0001CD04024012202554125242343550668C4
:100FB00033689343336006683368094F3B40090246
:100FC0001943316001680B6813430B6020234355BC
:100FD00000230355002000E00220F0BD0220FCE7C2
:100FE000FFF0FFFF70B5041E24D00368124A1A6098
:100FF0000368124A1A60036842685A60036882688C
:101000009A6002F0FFF805002368DA68002A06D02B
:1010100002F0F8F8401B2728F6D903200BE01969E5
:10102000E268914202D01A61002004E0044A1A608A
:10103000002000E0012070BDCCCC00005555000020
:10104000AAAA00000368024A1A6000207047C0463E
:10105000AAAA000030B5036A012293430362036A1F
:10106000426884697325AC430D682C430225AB4369
:101070008D682B43144DA84208D0144DA84205D0CA
:10108000134DA84202D0134DA84205D10825AB4309
:10109000CD682B430425AB430B4DA84208D00B4D24
:1010A000A84205D00A4DA84202D00A4DA84205D157
:1010B000094D2A404D692A438D692A434260846163
:1010C0004A684263036230BD002C01400040014089
:1010D0000044014000480140FFFCFFFF70B5036A77
:1010E000194A13400362036A4268C4697325AC431A
:1010F0000E682643154C23408C6824022343144C6D
:10110000A04219D0124CA04208D0124CA04205D0E7
:10111000114CA04202D0114CA04207D1104C1440F7
:101120004A69120122438C6925012A434260C66143
:101130004A68C263036270BD0A4C1C40CB681B0244
:101140002343094C2340DDE7FFFEFFFFFFFDFFFFC8
:10115000002C014000400140004401400048014093
:10116000FFCFFFFFFFF7FFFFFFFBFFFF30B5036A75
:10117000134A13400362026A4368C469114D2C404C
:101180000D682D022C43104D15408A6812032A4326
:101190000E4DA84208D00E4DA84205D00D4DA842D4
:1011A00002D00D4DA84204D10C4D2B404D69AD012C
:1011B0002B434360C4614B680364026230BDC04688
:1011C000FFEFFFFFFF8CFFFFFFDFFFFF002C014061
:1011D000004001400044014000480140FFBFFFFFC4
:1011E00030B5036A046A0125AC4304628469EF35B3
:1011F000AC43120122430A24A343194382610162D2
:1012000030BD000030B5036A1024A3430362846933
:10121000036A054D2C4012032243A024A343090175
:1012200019438261016230BDFF0FFFFF83687022A6
:1012300093430722114319438160704770477047F9
:10124000704770477047704710B5040003681A690B
:1012500092070FD5DA6892070CD5032252421A6121
:101260000123037703689B699B0763D0FFF7E9FFBE
:101270000023237723681A69520712D5DA685207C8
:101280000FD5052252421A610223237723689A69F7
:10129000C0239B001A4253D02000FFF7D2FF002347
:1012A000237723681A69120710D5DA6812070DD55B
:1012B000092252421A61042323772368DB699B07C2
:1012C00045D02000FFF7BDFF0023237723681A696C
:1012D000D20612D5DA68D2060FD5112252421A610F
:1012E000082323772368DA69C0239B001A4235D08C
:1012F0002000FFF7A6FF0023237723681A69D2078F
:1013000002D5DA68D20730D423681A69120602D5EA
:10131000DA68120630D423681A69520602D5DA68F0
:10132000520630D423681A69920602D5DA6892060A
:1013300030D410BDFFF784FF2000FFF783FF97E74D
:101340002000FFF77DFF2000FFF77CFFA7E72000CC
:10135000FFF776FF2000FFF775FFB5E72000FFF7E6
:101360006FFF2000FFF76EFFC5E7022252421A61AD
:10137000200003F0F9F9C7E7812252421A612000E8
:1013800000F0F1FAC7E7412252421A612000FFF74C
:101390005AFFC7E7212252421A61200000F0E2FA08
:1013A000C7E700000368214A904206D08022D20598
:1013B000904202D01E4A904203D1702293434A6861
:1013C00013431A4A904212D08022D20590420ED086
:1013D000174A90420BD0174A904208D0164A9042C2
:1013E00005D0164A904202D0154A904203D1154AC0
:1013F0001340CA681343802293434A69134303602E
:101400008B68C3620B688362084B984208D00A4B12
:10141000984205D0094B984202D0094B984201D11D
:101420000B690363012343617047C046002C0140F0
:101430000004004000200040004001400044014002
:1014400000480140FFFCFFFF70B5041E14D03D238F
:10145000C35C002B0AD03D2502236355211D206863
:10146000FFF7A0FF01236355002070BD3C3300222D
:10147000C254FFF7E3FEEEE70120F6E770B5041E65
:1014800014D03D23C35C002B0AD03D2502236355B5
:10149000211D2068FFF786FF01236355002070BDE2
:1014A0003C330022C254FFF7CAFEEEE70120F6E704
:1014B00070B5041E14D03D23C35C002B0AD03D251B
:1014C00002236355211D2068FFF76CFF012363553C
:1014D000002070BD3C330022C254FFF70BF8EEE74A
:1014E0000120F6E770B5036A102293430362036A92
:1014F00042688469174D2C400D682D022543202435
:10150000A3438C6824012343134CA04219D0124CEE
:10151000A04208D0114CA04205D0114CA04202D0EC
:10152000104CA04207D1104C14404A69920022434B
:101530008C69A6003243426085614A688263036217
:1015400070BD8024A3431C00CB681B0123434024AF
:10155000A343DCE7FF8CFFFF002C0140004001406B
:101560000044014000480140FFF3FFFF10B50400B4
:101570003C23C35C012B25D03C230120E0540133E4
:101580000130E054042A15D007D9082A16D00C2AB5
:1015900008D12068FFF7EAFD04E0002A02D12068A4
:1015A000FFF758FD3D230122E254013B0022E254A3
:1015B000002010BD2068FFF795FFF3E72068FFF7D4
:1015C0008DFDEFE70220F4E770B504000D003C2329
:1015D000C35C012B69D03C230121C154013301318B
:1015E000C154042A37D019D9082A4AD00C2A2AD142
:1015F00029000068FFF7BAFD2268D16980231B012A
:101600000B43D3612268D36929490B40D361216818
:10161000CB692A6912021343CB6114E0002A12D16C
:1016200029000068FFF716FD2268936908210B4323
:1016300093612268936904398B43936122689369AB
:1016400029690B4393613D230122E254013B0022AF
:10165000E254002070BD29000068FFF743FF2268B4
:10166000916980231B010B439361226893691049A0
:101670000B40936121688B692A69120213438B61C5
:10168000E1E729000068FFF729FD2268D3690821F6
:101690000B43D3612268D36904398B43D361226839
:1016A000D36929690B43D361CDE70220D2E7C04655
:1016B000FFFBFFFF30B58468034D2C401B021A432B
:1016C00011432143816030BDFF00FFFF10B50400CE
:1016D0003C23C35C012B00D17FE03C230122C25498
:1016E00001330132C254026893683D48034093605D
:1016F0000B68402B5DD010D9702B43D020D8502BD5
:101700004DD0602B36D1CA6849682068FFF77AFD52
:1017100060212068FFF78AFD2CE0102B53D008D9F8
:10172000202B55D0302B25D130212068FFF77EFDAE
:1017300020E0002B1ED100212068FFF777FD19E083
:1017400080225201934210D080229201934211D103
:10175000CB684A6889682068FFF7ACFF2268916807
:101760008023DB010B43936004E022689368072128
:101770008B4393603D230122E254013B0022E2545B
:10178000002010BDCB684A6889682068FFF792FF87
:101790002268936877218B430B439360EAE7CA681A
:1017A00049682068FFF71CFD50212068FFF73EFDC7
:1017B000E0E7CA6849682068FFF712FD4021206809
:1017C000FFF734FDD6E710212068FFF72FFDD1E7A2
:1017D00020212068FFF72AFDCCE70220D1E7C04690
:1017E0008800FFFF10B501248C40036AA343036205
:1017F000036A8A401A43026210BD000010B504005B
:1018000001220068FFF7EEFF23680C4A934208D0DC
:101810000B4A934205D00B4A934202D00A4A9342A4
:1018200004D1596C802212020A435A642268136858
:1018300001210B431360002010BDC046002C014065
:1018400000400140004401400048014010B5040040
:1018500001220068FFF7C6FF23680C4A934208D0B4
:101860000B4A934205D00B4A934202D00A4A934254
:1018700004D1596C802212020A435A642268136808
:1018800001210B431360002010BDC046002C014015
:10189000004001400044014000480140F0B53C23B5
:1018A000C35C012B1ED03C22012585543D2402231C
:1018B0000355066873687027BB43736006687368D6
:1018C0000F683B4373600668B3688027BB43B3600F
:1018D0000668B36849680B43B36005550023835419
:1018E0000020F0BD0220FCE770B53C23C35C012B57
:1018F00028D03C22012585543D2402230355124B58
:10190000CE6833408E683343104E33404E683343C5
:101910000F4E33400E6833430E4E33400E6933434F
:101920000D4E33404E6933430C4E334089690B43AF
:101930000B4E33400B4301684B6405550023835421
:10194000002070BD0220FCE7FFFCFFFFFFFBFFFF54
:10195000FFF7FFFFFFEFFFFFFFDFFFFFFFBFFFFF0F
:10196000FF7FFFFF70477047F4235B00C35C012BD0
:1019700013D0F4235B000122C25400290AD19D3BFD
:10198000FF3B7F320168CA52F4235B000022C2543D
:10199000002070472423C154F6E70220F9E7000035
:1019A000F0B54DB2002D00DA6AE07F240C40E6006D
:1019B000361BB4000934FF3404197F2631402170EE
:1019C000ED0F6570E260E370F4235B00C35C012BF4
:1019D00000D18FE1F4235B000122C254E378012B94
:1019E00000D17CE0002B53D0022B5ED0032B00D122
:1019F00068E023789A0001688C4662441188BE4DE5
:101A000029401943BD4B0B439BB21380A37A002B93
:101A100000D0BEE06378002B00D16DE0A28805689D
:101A20005023EB5A2178C9005B185B198021C9004B
:101A30008C46634401218A431A8023789B00026804
:101A4000944663441A88520606D51A88AA4911405A
:101A5000AB4A0A4392B21A802178890003689C46F7
:101A600061440B88A74A134020225A40A34B1343DA
:101A70009BB20B80F4235B000022C2540020F0BD17
:101A80007F240C40E600361BB4002834041994E788
:101A90002278920003689C46624413889A49194050
:101AA0009A4B0B439BB21380A3E722789200036802
:101AB0009C466244138894491940904B0B439BB257
:101AC000138096E72278920003689C46624413884C
:101AD0008D4919408E4B0B439BB2138089E72278C6
:101AE000920003689C466244138887491940894BD9
:101AF0000B439BB213807CE7A28805685026AB5B42
:101B00002178C9005B185B1983498C466344012125
:101B10008A431A8001688B5B2278D2009B185B187D
:101B20007E4A94466344E1683E2929D94A0992B223
:101B3000C90601D1013A92B2920292B278490A439F
:101B40001A8023789B000268944663441A885204E2
:101B500006D51A8868491140724A0A4392B21A801F
:101B60002278920003689C46624411886E4B1940AB
:101B7000C0239B015940614B0B439BB2138079E713
:101B80004A0892B2C90701D5013292B292021A8074
:101B9000D7E72278920003689C4662441388634921
:101BA0001940634B0B439BB21380E28805685027B2
:101BB000EB5B2178C9005B185B198021C9008C465A
:101BC00063440126B2431A8022890568EB5B2178C1
:101BD000C9005B185B1950498C466344B2431A80B4
:101BE0006378002B44D123789B00026894466344B9
:101BF0001A88520406D51A883F491140494A0A43B7
:101C000092B21A8023789B000268944663441A8833
:101C1000520606D51A8838491140394A0A4392B209
:101C20001A802278920003689C46624413883249E5
:101C30001940334B0B439BB2138021788900036812
:101C40009C4661440B88384A1A40C0239B0153408C
:101C50002A4A13439BB20B8023789B0001688C4671
:101C600063441988274C21400A4392B21A8001E745
:101C700023789B000268944663441A88520406D570
:101C80001A881D491140274A0A4392B21A802378C4
:101C90009B000268944663441A88520606D51A8847
:101CA00015491140164A0A4392B21A8022789200CE
:101CB00003689C46624413880F491940194B0B4333
:101CC0009BB213802178890003689C4661440B888D
:101CD0000C4A1340094A13439BB20B8023789B00A4
:101CE00001688C46634419880F4C21400A4392B224
:101CF0001A80BFE60220C2E60F0F00008080FFFFBF
:101D0000C080FFFFBF8FFFFF0F0900008082FFFF31
:101D10008086FFFF8084FFFF0404000006040000AB
:101D20000080FFFF80C0FFFF8FBFFFFF0F0E00008E
:101D30008081FFFF70B57F242140CD006D1AAC007B
:101D4000041925001935FF352A6022001D32FF32A3
:101D50001360083500222A60173D2A7022000932DC
:101D6000FF3211701534FF342268934241D9CD00FF
:101D70006D1AAC0004191D34FF349B1A2360CC008B
:101D8000641AA3001C00C3181333FF331B78002B05
:101D900042D105685033EB5A04190934FF342478D2
:101DA000E4001B195B195F4CA44663443E2A2AD900
:101DB0005409A4B2D20601D1013CA4B2A402A4B237
:101DC000594A14431C800268CB00591A8B00C01872
:101DD0000930FF3003789B00D2181188534B19400B
:101DE000C0239B015940524B0B439BB213800020F0
:101DF00070BDCC00641AA20082181D32FF3200248C
:101E000014601A00BBE75408A4B2D20701D501340C
:101E1000A4B2A4021C80D6E7CC00641AA3001C0064
:101E2000C3180A33FF331B78002B23D105685033C6
:101E3000EB5A04190934FF342478E4001B195B19A8
:101E40003C4CA44663443E2A0BD95409A4B2D5069F
:101E500001D1013CA4B2A402A4B2334D2C431C8096
:101E60000AE05408A4B2D50701D50134A4B2A402F3
:101E70001C8001E0012B24D0CC00641AA3001C00BC
:101E8000C3180A33FF331B78002B35D10568503354
:101E9000EB5A04190934FF342478E4001B195B1948
:101EA000204CA44663443E2A1DD95409A4B2D2064C
:101EB00001D1013CA4B2A402A4B21B4A14431C8069
:101EC00081E705684F33EB5ACE00761AB400041947
:101ED0000934FF342478E4001B195B19154CA4461F
:101EE00063441A80C8E75408A4B2D20701D501346C
:101EF000A4B2A4021C8066E7012B00D063E705684A
:101F00004F33EB5ACE00761AB40004190934FF346B
:101F10002478E4001B195B19024CA44663441A8020
:101F200051E7C046060400000080FFFF8FBFFFFF9F
:101F30008080FFFF0204000010B5F4235B00C35C47
:101F4000012B50D0F4235B000122C2544CB2002C70
:101F500021DBCA00521A93000933FF33C318012250
:101F60009A707E3211401970E40F5C7000291BD109
:101F7000890003689C4661440A881C4B1A401C4B2C
:101F80005A401C4B13439BB20B80F4235B0000228E
:101F9000C254002010BD6A3BFF3B0B40DA00D21A4E
:101FA00093002833C318DAE7002C0DD089000368AA
:101FB0009C4661440B88104A134010225A400D4B36
:101FC00013439BB20B80E0E7890003689C466144A1
:101FD0000A880A4B1A4080235B015A40054B134381
:101FE0009BB20B80D1E70220D4E7C046BFBFFFFF02
:101FF000101000008080FFFFBF8FFFFF8FBFFFFF2B
:1020000010B54AB2002A3BDBCC00641AA3000933A6
:10201000FF33C31800249C707F3421401970D20F05
:102020005A70F4225200825C012A50D0F4225200ED
:10203000012181545A78002A2AD01A789200016826
:102040008C4662441188490606D51188214C0C4003
:102050002149214389B211801978890003689C467F
:1020600061440B881D4A134030225A401C4B1343D5
:102070009BB20B80F4235B000022C254002010BDF1
:102080007F230B40DC00E41AA3002833C318C1E708
:102090001A78920001688C4662441188490406D57A
:1020A00011880C4C0C400F49214389B211801A78D9
:1020B000920003689C46624411880B4B1940C02370
:1020C0009B015940064B0B439BB21380D2E7022081
:1020D000D5E7C0460F0F0000C080FFFFBF8FFFFF96
:1020E0008080FFFF80C0FFFF8FBFFFFF10B501336F
:1020F0005B0812188020C0008446624407E008781C
:102100004C782402044314800231013B0232002B3C
:10211000F5D110BDF8B505007F240C40E000001B90
:10212000810069188A63CB6300220A640A0029329D
:1021300001201070013A14704F6BBB4234D9DB1B85
:10214000CB63E200121B93001A00EB1832331B78AA
:10215000002B31D02868E200121B9300EB182833C3
:102160001B789A0082181288520675D5E600361B35
:10217000B200AA1829321278002A3BD15032825A72
:10218000DB00D3181818634B9C4660443E2F28D9B7
:102190007B099BB2FA0601D1013B9BB29B029BB229
:1021A0005D4A1343038027E0E100091B8A00AA1857
:1021B0000021D1631F00C4E7BFB2AE18B28D3B004F
:1021C000B16B2868FFF792FF2A685023D35A28364C
:1021D0003178C9005B189B18504A944663441F80AD
:1021E00084E07B089BB2FA0701D501339BB29B02C6
:1021F000038001E0012A25D0E200121B9300EB18B6
:102200001A8EBBB2E100091B8E00AE19B16B2868B3
:10221000FFF76CFF29363378002B56D0012B65D1A0
:10222000E200121B9300EB1828331A7892002B68F7
:102230009C46624413883A4919403A4B0B439BB27F
:10224000138053E04F32825ADB00D3181818314BF9
:102250009C4660440780CFE7E600361BB200AA1810
:1022600029321278002A1ED15032825ADB00D3184C
:1022700018182A4B9C4660443E2F0BD97B099BB211
:10228000FA0601D1013B9BB29B029BB2224A134347
:1022900003800AE07B089BB2FA0701D501339BB2A9
:1022A0009B02038001E0012A05D0E200121B93008B
:1022B000EB18DA8DA5E74F32825ADB00D3181818D5
:1022C000164B9C4660440780EFE7E200121B930028
:1022D000EB1828331A7892002B689C4662441388C6
:1022E0000F491940104B0B439BB213802968E30040
:1022F0001C1BA300ED1828352B789B00C9180B88F0
:102300000A4A134030225A40094B13439BB20B80B8
:102310000020F8BD060400000080FFFF020400005A
:102320000F0F000080C0FFFFC080FFFFBF8FFFFFC7
:102330008080FFFF30B55D0812188020C000844601
:10234000624406E014880C70240A4C70013D02328D
:102350000231002DF6D1DB0701D513880B7030BD9B
:10236000F0B583B0050001AB00221A802868442331
:10237000C35A9BB26A46D3801BB2002B00DB41E2FA
:102380006B46DC880F231C4000D0B7E06B46063359
:102390001B88DB064DD503889BB201AA13801388E6
:1023A0001B0576D401AB1B881BB2002BDEDA038839
:1023B000CC4A1340038028685023C35A8422520019
:1023C000AA5CD2009B181B18C74A944663441B881A
:1023D0009B059B0D2A000932FF329361002B00D030
:1023E00078E00021280001F01CFE2B6850229A5A48
:1023F0009A18BD4B9C4662442B000933FF33D968C1
:102400003E2972D94B099BB2C90601D1013B9BB24F
:102410009B029BB2B5490B43138029680A88B44BD1
:102420001A40C0239B015A40B24B13439BB20B800E
:102430009CE70388B04A1340038029685023CB5A95
:102440002822AA5CD2009B185B18AC4A94466344CD
:102450001B889B059B0D2B64AA6B94466344AB635E
:102460000021280001F0ECFD2423EB5C002B00D1BF
:102470007CE7EB6B002B00D078E72422AB5C80215B
:1024800049420B43DBB2CC31286843520023AB54A2
:102490006CE75023C35A84225200AA5CD2009B18D6
:1024A0001B18914A944663441B889B059B0D2A0088
:1024B0000932FF3293612900ED31FF319288FFF735
:1024C00039FF2A68138887490B401380280001F0E0
:1024D0009EFD4BE7140092882169FFF72BFF2369CB
:1024E000A2699446634423617BE74B089BB2C9070A
:1024F00001D501339BB29B0213808EE7A6008019A1
:1025000003889BB201AA138013881BB2002B31DB16
:1025100001AB1B881B0600D428E72B689C46664449
:102520003388754A13403380E200121B93001A006F
:10253000EB1832331B78002B00D0E5E028685033CD
:10254000C35AAA18110028310978C9005B181B1852
:102550006A498C4663441B889B059B0D136400D11C
:1025600002E1E200121B910069188A8D896BFFF766
:10257000BDFDF9E003885B4A13400380E200121BB3
:1025800093001A00EB181333FF331B78002B1DD177
:1025900028685033C35A1100AA180932FF32127842
:1025A000D2009B181B18504A944663441F88BF05ED
:1025B000BF0D36D06B181A000D32FF321288193356
:1025C000FF3319683B00FFF7B5FE2AE02868E200F8
:1025D000121B9300EB180933FF331B789A00821803
:1025E0001288520457D55022825ADB00D3181B1888
:1025F000424A944663441F88BF05BF0D3CD1E200A8
:10260000121B9300EB180933FF331A7892002B68E2
:102610009C46624413883A4919403A4B0B439BB29B
:1026200013803900E200121B9300EB1818002130D0
:10263000FF300268D21902601A001932FF321068A6
:102640008446674417601D33FF331B68002B08D096
:10265000E200121B900028181530FF3002689142EA
:1026600034D2E200121B9300EB180933FF331978C0
:10267000280001F0D6FC4BE7E200121B9300EB1898
:102680001A000F32FF3212881933FF3319683B00EA
:10269000FFF750FEB3E75022825ADB00D3181B1815
:1026A000114A944663441F88BF05BF0DA7D0E200BE
:1026B000121B9300EB181A001132FF3212881933E3
:1026C000FF3319683B00FFF735FE98E7E100091B6F
:1026D0008A00AA180932FF3211783A002800FFF761
:1026E00029FB15E78F0F0000060400000080FFFFA4
:1026F0008FBFFFFF8080FFFF0F8FFFFF02040000EE
:102700000F0F0000C080FFFF2868E200121B93003B
:10271000EB1828331B789A008218128852064ED57F
:102720005022825ADB00D3181B18384A944663445F
:102730001B889B059B0DE100091B8A001100AA184C
:102740001364002B35D1E200121B9300EB182833E1
:102750001A7892002B689C46624413882C491940D1
:102760002C4B0B439BB2138028685023C25AE100C4
:10277000091B8B00EB18190028310978C900521881
:10278000121822498C46624412889205920D1A64EE
:10279000996B8C4662449A63DB6B002B28D1E30073
:1027A0001C1BA300EB1828331978280001F048FC03
:1027B000DCE56918CA8D896BFFF798FCC3E75022E6
:1027C000825ADB00D3181B18134A944663441B88B3
:1027D0009B059B0DE100091B8A001100AA181364D8
:1027E000002BB0D069180A8E896BFFF77FFCAAE72F
:1027F000E1000C1BA1006918283109782800FFF7B7
:1028000089FCB3E5002003B0F0BDC046020400001F
:102810000F0F000080C0FFFF0604000070B5040029
:1028200044230268D35A1BB2002B46DB23684422A0
:102830009A5A520544D4236844229A5A520404D521
:1028400044215A5A344802405A52236844229A5A20
:10285000920404D544215A5A304802405A522368FF
:1028600044229A5AD20438D4236844229A5A120530
:1028700013D54422995A2A4801409952206840238E
:10288000C15A08252943C1522068C15A0425294349
:10289000C15223689B5ADB0431D5236844229A5ADB
:1028A000920530D4236844229A5AD20504D5442193
:1028B0005A5A1C4802405A5270BDFFF751FDB5E705
:1028C00044215A5A184802405A52200001F0CCFBC9
:1028D00000212000FFF748F8ADE74022995A042074
:1028E00081439952114B21688B52200001F0C9FBA2
:1028F000216844228B5A0E4803408B52B4E72000D3
:1029000001F0BEFBC9E744215A5A0A4802405A5214
:10291000200001F0A2FBC5E7FFBFFFFFFFDFFFFFC5
:10292000FFF7FFFFFFFEFFFFFFFBFFFF00BDFFFF05
:10293000FFEFFFFFFFFDFFFF70B582B004000368EB
:10294000DB072BD5B34B5A680C231340042B1DD047
:10295000B04B5A680C231340082B0ED06368012B30
:1029600041D0002B56D1AB4B1A68AB490A401A60D4
:102970001A68AA490A401A603BE0A64B5B68C0226D
:1029800052021340802252029342E7D1A14B1B68AE
:102990009B0303D56368002B00D139E223689B07B2
:1029A00078D59C4B5B680C221A4262D0994B5A68CE
:1029B0000C231340082B53D0E368002B00D18BE08D
:1029C000944A136801210B43136000F01BFC0500BF
:1029D000904B1B689B0776D400F014FC401B022828
:1029E000F6D9032017E28B4A116880235B020B4360
:1029F00013606368002B25D000F004FC0500854BB4
:102A00001B689B03CAD400F0FDFB401B6428F6D969
:102A1000032000E2052B09D07E4B1A687E490A404C
:102A20001A601A687D490A401A60E2E7794B196812
:102A30008022D2020A431A601968802252020A4395
:102A40001A60D6E700F0DEFB0500724B1B689B03A3
:102A5000A4D500F0D7FB401B6428F6D90320DAE1A7
:102A60006C4B5B68C02252021340802212029342D8
:102A7000A2D1684B1B689B0704D5E368012B01D0EA
:102A80000120C8E163490B68F82293432269D20010
:102A900013430B6023681B0744D5E369002B2ED03A
:102AA0005C4A536A01210B43536200F0ABFB050003
:102AB000584B5B6A9B0735D400F0A4FB401B0228EF
:102AC000F6D90320A7E153490B68F8229343226902
:102AD000D20013430B60DDE74E4A136801218B439C
:102AE000136000F08FFB05004A4B1B689B07D1D594
:102AF00000F088FB401B0228F6D903208BE1454AF1
:102B0000536A01218B43536200F07CFB0500414B6B
:102B10005B6A9B0706D500F075FB401B0228F6D9BF
:102B2000032078E123685B0700D47FE0394BDB6941
:102B3000DB001DD4374AD169802040050143D161B3
:102B4000D36903400193019B0125354B1B68DB05CD
:102B500010D5A368012B21D0002B36D12D4B1A6A3A
:102B600001218A431A621A6A03318A431A621AE0FF
:102B70000025EAE72A4A116880235B000B431360B3
:102B800000F040FB0600264B1B68DB05E1D400F09B
:102B900039FB801B6428F6D903203CE11D4A136AE7
:102BA00001210B431362A368002B24D000F02AFB01
:102BB0000600184B1B6A9B0736D400F023FB801BD2
:102BC000184B9842F5D9032025E1052B09D0114B6C
:102BD0001A6A01218A431A621A6A03318A431A6205
:102BE000E1E70C4B1A6A04210A431A621A6A033994
:102BF0000A431A62D7E700F005FB0600054B1B6A83
:102C00009B0711D500F0FEFA801B064B9842F5D9C0
:102C1000032000E100100240FFFFFEFFFFFFFBFF6B
:102C20000070004088130000012D3AD02368DB06B5
:102C300010D56369012B3AD0053358D1784A536BCC
:102C400004218B435363536BF4318B43A169C90057
:102C50000B43536323689B0600D482E0704B5A6891
:102C60000C2313400C2B60D06D4B5A680C2313407F
:102C7000082B53D0236A002B60D0694A516B802304
:102C80005B020B43536300F0BDFA0500644B5B6BC2
:102C9000DB0366D400F0B6FA401B0228F6D9032005
:102CA000B9E05F4AD3695F490B40D361BEE75C4B33
:102CB0005A6B04210A435A635A6B03390A435A6315
:102CC00000F0A0FA0500564B5B6B9B0706D400F0A2
:102CD00099FA401B0228F6D903209CE050494B6B1F
:102CE000F8229343A269D20013434B63B2E74C4BE3
:102CF0005A6B04210A435A635A6B03398A435A6355
:102D000000F080FA0500464B5B6B9B07A2D500F0F4
:102D100079FA401B0228F6D903207CE0404B5B681F
:102D2000C022520213409342A4D13D4B5B6BDB03A4
:102D300017D5236A012B14D001206CE0384A536B5D
:102D400039490B40536300F05DFA0500344B5B6B6F
:102D5000DB0306D500F056FA401B0228F6D9032003
:102D600059E0636A002B55D02D4A51680C220A4065
:102D7000082A52D0022B12D0294A13682B490B4043
:102D8000136000F03FFA0400254B1B689B013DD502
:102D900000F038FA001B0228F6D903203BE0204A55
:102DA000136822490B40136000F02CFA05001C4BFD
:102DB0001B689B0106D500F025FA401B0228F6D9B6
:102DC000032028E0164BDA6A0F218A43216B0A435D
:102DD000DA625A6816490A40E16AA06A01430A4366
:102DE0005A601968802252040A431A6000F00AFAF5
:102DF00004000B4B1B689B0106D400F003FA001B78
:102E00000228F6D9032006E0002004E0002002E0BA
:102E1000012000E0002002B070BD0120FBE7C046A9
:102E200000100240FFFFFFEFFFFFFEFFFFFFFFFE6E
:102E3000FF7FC2FF30B589B004AA1F4B180032C80B
:102E400032C2110002680A606A46103313CB13C203
:102E50001B681360194B5A680C231340082B04D0CD
:102E60000C2B26D0164809B030BD910C0F23194009
:102E700004A8445C1149C96A0B406946C95CC02377
:102E80005B021A4080235B029A4208D0C0235B0297
:102E90009A4209D00A48FDF71DF96043E3E7084864
:102EA000FDF718F96043DEE70648FDF713F96043C4
:102EB000D9E70448D7E7C046207D0008001002404B
:102EC00000127A00006CDC0270B505000C00594B52
:102ED0001A68012313408B420BD256490B6801221A
:102EE000934323430B600B681A40A24201D0012098
:102EF00070BD2B689B0706D54F4A5368F0218B4362
:102F0000A9680B4353602B68DB0763D56B68012B03
:102F100009D0022B28D0032B2CD0474A12689207E5
:102F200005D40120E4E7444A126892037FD5424960
:102F30004A680320824313434B6000F063F90600A4
:102F40006B68012B1CD0022B28D0032B34D03A4BBA
:102F50005B680C221A423DD000F054F9801B374BBD
:102F60009842F4D90320C3E7334A12689201DED4B1
:102F70000120BDE7304A526BD203D8D40120B7E715
:102F80002D4B5A680C231340042B23D000F03AF940
:102F9000801B2A4B9842F3D90320A9E7264B5A6895
:102FA0000C231340082B15D000F02CF9801B234B69
:102FB0009842F3D903209BE71F4B5A680C23134018
:102FC0000C2B07D000F01EF9801B1C4B9842F3D944
:102FD00003208DE7174B1A6801231340A3420BD936
:102FE00014490B680122934323430B600B681A407A
:102FF000A24201D001207BE72B685B0706D50E4A71
:1030000053680F490B40E9680B435360FFF712FF09
:10301000094B5A6812090F2313400A4AD35CD8405F
:10302000094B1860002000F0C3F8002060E7012081
:103030005EE7C046002002400010024088130000F6
:10304000FFF8FFFF6C800008AC000020014B1868FF
:103050007047C046AC00002070B582B00400036821
:10306000DB0335D54B4BDB69DB0066D4494AD169BC
:10307000802040050143D161D36903400193019B46
:103080000125454B1B68DB0559D5424B1B6AC02205
:103090009200134013D061680A409A420FD03D4B12
:1030A000186A3E4A02401E6A802149023143196271
:1030B000196A3B4E314019621A62C30753D4354A2C
:1030C000136A36490B4061680B431362012D59D0D6
:1030D0002368DB0706D52F4A136B03218B43A168B6
:1030E0000B43136323689B0706D52A4A136B2D49AC
:1030F0000B40E1680B43136323689B0606D5254A02
:10310000136B10218B4321690B43136323689B03CB
:1031100006D5204A136B80218B43A1690B431363AF
:1031200023685B0533D51B4A136B40218B436169D0
:103130000B431363002002B070BD0025A1E7164ABF
:10314000116880235B000B43136000F05BF80600FE
:10315000114B1B68DB0598D400F054F8801B6428E1
:10316000F6D90320E7E700F04DF80600094B1B6A8B
:103170009B07A4D400F046F8801B0B4B9842F5D96E
:103180000320D8E7D36909490B40D361A0E70020A9
:10319000D1E7C0460010024000700040FFFCFFFF76
:1031A000FFFFFEFFFFFFFCFF88130000FFFFFFEFA4
:1031B00010B50400FFF74AFFFA218900FCF78AFFE7
:1031C00000F02AFA012000222100404200F0EAF932
:1031D000002010BD10B5064A136810210B43136080
:1031E0000020FFF7E5FFFDF7C5F8002010BDC04641
:1031F00000200240024A1368013313607047C04642
:10320000080A0020014B18687047C046080A0020D1
:1032100030B583B00190FFF7F5FF0500019C631CFA
:1032200000D00134FFF7EEFF401BA042FAD303B0F9
:1032300030BD0000F0B5C64600B582B0002338E0CE
:10324000042600E00026AE4035003D430234A400D1
:10325000574EA551574C25684246D4432E00264070
:103260004A68D20302D5424615432E00514D2E60C6
:103270006D682E0026404A68920302D542461543E7
:103280002E004C4D6E60AD682E0026404A68D2027A
:1032900002D5424615432E00464DAE60ED682C40E7
:1032A0004A68920202D542462A431400414AD46039
:1032B00001330A681400DC4076D001259D402A4085
:1032C0009046F5D04C68022C01D0122C0ED1DC08AF
:1032D0000834A400275807261E40B6000F22B2402B
:1032E00097430A69B24016003E43265002685F00C9
:1032F00003242600BE40F643324094464A681440F8
:10330000BC406246144304604C68621E012A03D923
:10331000112C01D0122C10D184683440A446CC6802
:10332000BC406246144384604468AC434A68120956
:10333000012515409D4025434560C46826408C68A2
:10334000BC403443C4604A68D200B1D51A4DAE695E
:1033500001242643AE61AD692C400194019C9C0878
:10336000A51CAD00124EAF5903261E40B5000F2616
:10337000AE40B7439026F605B04200D162E70F4E4B
:10338000B0420BD00E4EB0420AD00E4EB04209D021
:103390000D4EB04200D153E7052654E7012652E70F
:1033A000022650E703264EE702B004BC9046F0BD6B
:1033B00000000140000401400010024000040048E9
:1033C00000080048000C00480010004803690B4248
:1033D00001D1002070470120FCE770B5C56B0124C6
:1033E000066CB4406C60046863604368102B04D0C2
:1033F000036899600368DA6070BD03689A600368C7
:10340000D960F9E710B504000368064A944663449E
:1034100018001421FCF75EFE80002064024BE36379
:1034200010BDC046F8FFFDBF0000024070B5041E8D
:1034300024D021250223435501680B68104A1A4005
:10344000436880680343E06803432069034360697D
:103450000343A0690343E069034313430B60200067
:10346000FFF7D0FF0023A362E36223636363A363D8
:10347000012262551F32A354002070BD0120FCE7D9
:103480000FC0FFFF70B504002020205C012832D05F
:103490002020012525540130205C012804D0202360
:1034A0000022E254022070BD203001352554002056
:1034B000A063256828680126B04328602000FFF734
:1034C0008CFFE36A002B0BD0226813680E210B439C
:1034D00013602268136801210B4313600020E2E7A8
:1034E000226813680A210B431360226813680639A7
:1034F0008B431360EDE70220D5E770B5C36B1A6804
:1035000004682568016C04238B401A4212D06B07B3
:1035100010D523689B0603D42368042293432360B9
:10352000C26B0423016C8B405360C36A002B00D034
:10353000984770BD02238B401A4218D0AB0716D5AE
:1035400023689B0606D423680A2293432360212321
:10355000093AC254C26B0223016C8B405360202392
:103560000022C254836A002BE3D09847E1E7082386
:103570008B401A42DDD02B07DBD523680E22934304
:103580002360C26B01231900046CA1405160836366
:10359000212283541F330022C254036B002BC8D056
:1035A0009847C6E770B5002811DB8408134DC03476
:1035B000A400625903231840C000FC331E0086405B
:1035C000B24389010B4083401343635170BDC0B2C5
:1035D0000F220240083A920806329200084BD31894
:1035E0005D6803242040C000FF2214008440A543EE
:1035F00089010A4082402A435A60E7E700E100E07F
:1036000000ED00E01F2318401E3B8340014A136079
:103610007047C04600E100E001380A4B98420FD8DD
:10362000094A50600948036A1B021B0AC0210906A7
:103630000B4303620023936007331360002070473D
:103640000120FCE7FFFFFF0010E000E000ED00E0DC
:1036500010B5054B0022DA61044A136901242343A3
:103660001361018010BDC046100A002000200240F6
:103670000C4BDB68DB0613D50B4AD36902210B43E5
:10368000D3611023074AD268520706D50649CA6992
:1036900001200243CA6104221343024AD3607047E7
:1036A0000023EFE700200240100A0020084B1B69AE
:1036B0001B060BD5064B074A5A60074A5A601B691E
:1036C0001B0601D5012002E0002000E00020704729
:1036D0000020024023016745AB89EFCD034A1369FF
:1036E00080210B43136100207047C0460020024038
:1036F00070B50400FFF786FD0500134BDB68DB07A0
:103700000AD5631CF9D0002C19D0FFF77BFD401BB4
:10371000A042F2D9032011E00B4BDB689B0602D5D7
:10372000094B2022DA60084BDB68DB0603D4064B2A
:10373000DB685B0705D5FFF79BFF012070BD032009
:10374000FCE70020FAE7C04600200240F0B5C6467C
:1037500000B504000D0090461E00214B1B7E012B7E
:103760003BD01F4B01221A761E48FFF7C1FF0028ED
:103770002DD1012C06D0022C02D0042700241BE0FE
:103780000227FBE70127F9E72022D21A31009140F6
:103790000A004146D940114389B24019FFF758FF4A
:1037A0001048FFF7A5FF104A136901218B431361ED
:1037B00000280CD10134E4B2BC4208D260002301DD
:1037C000202252429A18DFD43100D140E4E7044B62
:1037D00000221A7604BC9046F0BD0220FAE7C046EB
:1037E000100A002050C300000020024010B58523BD
:1037F0009B00C358002B07D01B689847002801D1B5
:10380000002010BD0220FCE70220FAE710B5852356
:103810009B00C3585B689847002010BD70B504003A
:1038200082239B00C518280000F010F9FA235B00E2
:103830000122E250124BE25A163BE2501033E15C97
:10384000EA3BFF3B0B40012B0FD0002B07D0022B94
:1038500010D07F239943200000F01FFC03E02900D3
:10386000200000F097FA002070BD2900200000F031
:10387000B5FAF8E72900200000F0CFFAF3E7C046D8
:103880000E02000010B504001300002929D1FA220D
:1038900052008258032A01D0002010BD421DFF3281
:1038A0009168D26891420FD885239B00C3581B6949
:1038B000002B05D0FE225200825C032A00D19847DB
:1038C000200000F064FBE7E7891A0530FF308160D3
:1038D0008A4200D90A0092B21900200000F04FFB82
:1038E000DAE785239B00C3589B69002BD4D0FE22C6
:1038F0005200825C032ACFD19847CDE770B504000F
:10390000130000294ED1FA2252008258022A06D012
:1039100080239B00E35C012B3FD0002070BDC26977
:10392000056AAA421ED8866929003000FCF70EFC01
:10393000002906D1B54204D8FC235B00E3589E421F
:103940001DD385239B00E358DB68002B06D0FE22A5
:103950005200A25C032A01D120009847200000F009
:1039600022FBD5E7521BC26192B2190000F0FFFAA8
:10397000002300220021200000F0C9FBC8E700223C
:10398000200000F0F4FAFC235B000022E250002348
:103990000021200000F0BBFBBAE780239B0000223F
:1039A000E254BAE785239B00C3585B69002BB4D06F
:1039B000FE225200825C032AAFD19847ADE770B572
:1039C000040040230022002100F05CFB40258823F6
:1039D0005B00E550D03B00228021200000F052FB2C
:1039E0002562FE235B000122E2541C33E358002BC6
:1039F00006D085239B00E3585B6821792000984717
:103A0000002070BD01740020704710B5FE235B00DC
:103A1000C35C032B01D0002010BD85239B00C3583D
:103A2000DB69002BF7D09847F5E710B504004B8809
:103A3000012B0AD181239B000122C2501033C358AD
:103A40009B689847200000F0A2FA10BD0B78037025
:103A50004B7843708B78CA7812029B1843800B799D
:103A60004A7912029B1883808B79CA7912029B18BB
:103A7000C380704710B50400802100F00EFB0021C8
:103A8000200000F00AFB10BD30B583B004000D002B
:103A90004A88130A072B00D98EE09B004F49CB5868
:103AA0009F4684239B00C3581B68007C6A46911D77
:103AB00098476B4606331B88002B03D0EA88002A00
:103AC00000D07EE003B030BD037C002B09D18523FC
:103AD0009B00C3589B6A6A46901D98470223437017
:103AE000E7E785239B00C358DB6A6A46901D984729
:103AF00002234370DDE7D2B2052A39D89200384B51
:103B00009B589F4684239B00C3585B68007C6A4691
:103B1000911D9847CDE784239B00C3589B68007C88
:103B20006A46911D9847C4E784239B00C358DB680D
:103B3000007C6A46911D9847BBE784239B00C358CD
:103B40001B69007C6A46911D9847B2E784239B005D
:103B5000C3585B69007C6A46911D9847A9E7842396
:103B60009B00C3589B69007C6A46911D9847A0E75B
:103B70002900FFF77FFFA5E7037C002B07D18523F2
:103B80009B00C3585B6B6A46901D984791E72900DC
:103B9000FFF770FF96E7037C002B09D185239B007C
:103BA000C3581B6B6A46901D98470723437080E7F4
:103BB0002900FFF75FFF85E729002000FFF75AFF84
:103BC00080E7191C934200D9111C8AB26B46D98038
:103BD0000100200000F0BDF974E7C046507D0008E8
:103BE000707D000870B504008B88002B22D1CB8833
:103BF000002B1FD18B787F251D40FE235B00C35C0B
:103C0000032B0FD0FF235B00C554290000F06FFA8F
:103C1000200000F0BCF9002D07D0FE235B0002223B
:103C2000E2540AE0FFF726FF07E0FE235B000122D3
:103C3000E25402E02000FFF71DFF70BD70B50400E4
:103C40000D008978284B197001290AD8FE235B00E2
:103C5000C35C022B09D0032B1ED02900FFF70AFFFB
:103C600002E02900FFF706FF70BD002911D0416076
:103C7000FE235B000322C254FFF7B8FD022803D0E5
:103C8000200000F084F9EFE729002000FFF7F2FEA2
:103C9000EAE700F07CF9E7E7002911D04368994290
:103CA0001ED0D9B2FFF7B2FD0F4B1978616020002A
:103CB000FFF79CFD02280ED0200000F068F9D3E742
:103CC000FE235B000222C2544160FFF79FFD2000EB
:103CD00000F05DF9C8E729002000FFF7CBFEC3E73D
:103CE00000F055F9C0E7C0463401002010B5CB887C
:103CF000012B09D1FE235B00C35C022B07D0032BF1
:103D00000DD0FFF7B7FE01E0FFF7B4FE10BD0023B2
:103D1000836001000831012200F01BF9F6E7011D64
:103D2000012200F016F9F1E710B5FE235B00C35C39
:103D3000023BDBB2012B0ED80123C36081239B0021
:103D4000C358002B01D00323C36001000C310222B1
:103D500000F0FFF810BDFFF78DFEFBE710B5040083
:103D6000FE235B00C35C023BDBB2012B0ED84B8809
:103D7000012B0AD181239B000022C2501033C3586B
:103D80009B689847200000F002F910BDFFF772FE13
:103D9000FBE7000010B54B78092B19D89B000E4AA1
:103DA000D3589F46FFF770FE002010BDFFF71AFFA3
:103DB000FAE7FFF743FFF7E7FFF798FFF4E7FFF7AE
:103DC000B3FFF1E7FFF731FEEEE7FFF7C7FFEBE7E1
:103DD000FFF750FEE8E7C046887D000870B5040094
:103DE0000D00FE235B00C35C032B13D10B79012B69
:103DF0000DD885239B00C3589B689847EB88002B00
:103E000001D0002070BD200000F0C1F8F9E7FFF7F5
:103E100031FEF6E7FFF72EFEF3E770B505000C0064
:103E20008A88D1B2207860230340202B08D1F53353
:103E3000FF33EB589B68210028009847002070BD95
:103E40006378012B2CD0002B52D0032BF6D1FA3300
:103E5000FF33EB5C022B06D0032B0CD02100280093
:103E6000FFF708FEEAE70029E8D08029E6D028001D
:103E700000F013F9E2E76388002B06D1002904D093
:103E8000802902D0280000F008F985239B00EB5818
:103E90009B68210028009847280000F078F8CDE7BB
:103EA000FE235B00EB5C022B06D0032B0CD0210021
:103EB0002800FFF7DFFDC1E70029BFD08029BDD072
:103EC000280000F0EAF8B9E76388002BB6D14B066A
:103ED00003D1280000F05BF8B0E7280000F0E5F817
:103EE00085239B00EB589B68210028009847F0E74A
:103EF000FE235B00EB5C022B06D0032B0AD02100D3
:103F00002800FFF7B7FD99E74B0697D0280000F08F
:103F1000C4F893E7130612D47F240C401034240114
:103F20002C190434280000F0C8F800280ED0012312
:103F3000236002222100280000F00BF87EE77F2496
:103F40000C40013424012C190434EBE700232360D6
:103F5000EFE710B51300FA22520002248450836167
:103F6000C3610A00002100F0CAF8002010BD10B59E
:103F700013000A00002100F0C2F8002010BD10B5A7
:103F800013000A00002100F0C2F8002010BD10B597
:103F9000FA235B000422C25000230022002100F01B
:103FA000AEF8002010BD10B5FA235B000522C25008
:103FB00000230022002100F0AAF8002010BD862373
:103FC0009B00C358822080001950842189005A50D8
:103FD0000020704710B586239B00C258002A14D0D9
:103FE000043BD358002B01D0012010BD85239B003A
:103FF0000121D150043BD35A82218900525888397B
:10400000FF3900F07CF80020EFE70220EDE710B563
:10401000010087239B00C058ED31FF31FFF7FEFB05
:1040200010BD10B50300872292008058CA00521AB2
:1040300094001B191933FF331A68FFF723FC10BDD6
:1040400010B50300872292008058CA00521A9400CB
:104050001B199A6BFFF752FC10BD10B587239B000C
:10406000C058FFF7D2FC10BD70B505008724A4002E
:1040700001210059FFF7C6FC2859FFF7A0FC70BDCD
:104080007047704710B514001A0088239B00C05871
:104090002300FDF785FC002010BD10B588239B0090
:1040A000C058FDF749FF002010BD10B588239B00C4
:1040B000C058FDF7A5FF002010BD0A0088239B0013
:1040C000C35849B2002909DB7F211140CA00511AA7
:1040D0008A009B180B33FF33187870477F211140FB
:1040E000C800411A8A009B182A331878F5E710B5E2
:1040F00088239B00C058FDF737FC002010BD10B589
:104100008824A4000059FEF705F8002010BD10B562
:104110008824A4000059FDF70DFE002010BD00000A
:1041200030B589B01422002103A800F08DFF1D4B8B
:10413000596980208002014359615A690240009206
:10414000009A59698020C002014359615A690240AE
:104150000192019A5A69802109030A435A615B69F5
:104160000B400293029B1823039302250595902090
:1041700003A9C005FFF75EF880239B010393002489
:104180000494059503A90848FFF754F880235B01C0
:1041900003930494059403A90448FFF74BF809B06E
:1041A00030BDC0460010024000080048000400482E
:1041B00000B583B00D4A5169012319435161526919
:1041C00013400193019B002200210920FFF7EAF927
:1041D0000920FFF717FA002200211020FFF7E2F96B
:1041E0001020FFF70FFA03B000BDC04600100240D8
:1041F00070B586B0274B5A69012632435A615A6915
:1042000032400192019A9A69802189000A439A6199
:104210009B690B400293029B0C22002103A800F033
:1042200013FF1D4C1D4B236000256560A560E560F4
:10423000266108236361A561E56125626562383303
:10424000A3628023DB00E362266366632000FCF741
:10425000FFF9039580235B0104930623059303A9CB
:104260002000FCF7C5FB039603A92000FCF7C0FB68
:104270000223039303A92000FCF7BAFB0523039351
:1042800003A92000FCF7B4FB2000FCF78BF806B074
:1042900070BDC046001002406403002000240140AD
:1042A00010B50D4C0D4B23600D4B63600023A360D4
:1042B0000122E26023616361A361E3612362200064
:1042C000FCF710FD00212000FCF736FE0021200045
:1042D000FCF75EFE10BDC046F40300200054004011
:1042E0000E09002010B50D4C0D4B23600D4B636083
:1042F0000023A3600122E26023616361A361E361A3
:1043000023622000FCF7EEFC00212000FCF714FEE5
:1043100000212000FCF73CFE10BDC04640040020F8
:10432000005800405D3E302010B586B0124AD16979
:1043300002231943D161D26913400193019B1022DA
:10434000002102A800F080FE0C4C0D4B23600D4BA9
:10435000E3609023FF33636000232361A360A361C4
:104360002000FDF771F880235B01029302A9200071
:10437000FDF7ACF906B010BD00100240DC040020CF
:10438000000400400F27000070B596B0334A9169D1
:104390008020000101439161936903400193019BD7
:1043A0001022002112A800F04FFE0822002110A8C0
:1043B00000F04AFE1C22002109A800F045FE1C2244
:1043C000002102A800F040FE254D264B2B6006235D
:1043D0006B600024AC6080267601EE602C616C611D
:1043E0007A33AB612800FDF72FF8129612A9280046
:1043F000FDF76CF92800FDF75BF82800FDF73EF8A3
:104400001094119410A92800FDF748FA602309932D
:104410000A940B940C940D940E940F94002209A905
:104420002800FDF7D1F870230993663B0A930C220C
:1044300009A92800FDF79AF80294039404940594BE
:10444000069480239B010793089402A92800FDF796
:104450004BFA2800FCF776F816B070BD0010024049
:104460009C040020002C014010B50548054B03605A
:1044700000234360044BC3608360FCF7B3FD10BDB1
:104480008C04002000300040FF0F0000F8B5CE463D
:10449000474680B59B4B9846D88801F0D3FF03F080
:1044A0006DFB0022984B02F0D9FA984A984B02F023
:1044B00047FE0022974B03F05BF8974A974B02F0B8
:1044C000CDFA03F09DFB051C954CA061434658882E
:1044D000944E376801F076FF391C01F0E9FD7168F0
:1044E00001F0F4FC904901F069FB011C281C01F06B
:1044F000FFF9051C20604346988803F013FB002257
:10450000814B02F0ABFA814A814B02F019FE7F4ADF
:10451000864B02F015FE03F073FBA0608449E0684F
:1045200001F0D4FC03F02AFB06000F004346188874
:1045300003F0F8FA0022744B02F090FA734A744BBD
:1045400002F0FEFD7B4A7C4B02F0FAFD7B4A7C4B7D
:1045500002F084FA00227B4B02F0F2FD02000B0015
:104560003000390001F0A8FF03F04AFB061CE060B0
:104570006F49606801F0AAFC071C7349281C01F010
:10458000A5FC011C381C01F0B3F9051C60606F4BE1
:104590001C68DF6A391C201C01F08AFD011C281CE4
:1045A000FBF74EFE002846D0391C201C01F0A0F974
:1045B000011C281CFBF730FE00283CD0291C201CC5
:1045C00001F076FD041C614F7860FB689846F9693C
:1045D00001F07CFC011C404601F08AF98046F8603D
:1045E0003B699946191CFBF721FE00280AD180235C
:1045F0001B064B44190099464046FBF703FE002872
:1046000000D1C146514F4B46FB60396A201C01F076
:104610005DFC80464946786A01F058FC011C404622
:1046200001F066F901F0B0FE03B2494A1088584320
:104630003883BC600BE0211C281CFBF7EDFD002833
:104640003DD0424B424A12881A83424A5A60301C7B
:1046500003F094FA404A414BFBF7A4FD002810D028
:104660003F49281CFBF7E2FD00280AD0374B6422A3
:104670001A8300225A60DA605A619A60344B96229B
:104680001A80324B18229B5EFA22D20093421EDC23
:104690001C1C002B19DB24B22C4B1C83204B5969AA
:1046A000301CFBF7C3FD002814D0642C12DDA4B22B
:1046B000A21E274B1A80643C244B1C8315E0234B1D
:1046C00000221A8300225A60C1E70024E3E7FA249B
:1046D000E400E1E71E4A138801339BB21380FA22FB
:1046E000D200934201D31A4B1A801E4B1B68174A03
:1046F0001821525E5A63FA2212011A64C0BCB946EC
:10470000B046F8BD3801002000FEAF406666666620
:1047100066660A400000E03F7B14AE47E17A843FC2
:1047200078000020A000002000007A4466661A404D
:10473000A4707D3F25068195438BFA3FB81E85EB1B
:1047400051B8E63FE07A843F00D7233C4800002080
:10475000A800002000004041FCA9F1D24D62503F6A
:10476000000096439C04002010B5094B1B68002BE9
:1047700000D110BD064B00221A608032054C920019
:1047800005492000FFF71BFC2000FFF723FCF0E7A2
:10479000F8050020400100200806002010B582B076
:1047A000104A114B13CB13C211001A680A601B790F
:1047B0000B7100240D48FCF7BBFB202806D0631CBE
:1047C0009BB20B4A944201D81C00F3E7FA239B00EA
:1047D00000933223074A78210448FCF7E9FA02B033
:1047E00010BDC0461C050020187E0008F403002000
:1047F000102700000000002010B582B000240B48F4
:10480000FCF796FB202806D0631C9BB2084A944212
:1048100001D81C00F3E7FA239B000093D123054A3B
:1048200078210248FCF7C4FA02B010BDF40300205E
:10483000102700001C05002010B5C02200210248EE
:1048400000F002FC10BDC0462D05002010B5C022AE
:10485000FF21024800F0F8FB10BDC0462D050020E6
:1048600030B55F2832DC0F2930DC012A18D0002A4D
:104870002CD1CD17073213002B405B18DC106300DE
:104880001B195B01181811306D0F49191140491B94
:1048900009B2063A8A400E490B5C93430B5415E06B
:1048A000CD17063213002B405B18DC1063001B1978
:1048B0005B01181811306D0F49191140491B09B2DD
:1048C000063A8A4002490B5C13430B5430BDC04684
:1048D0001C050020F0B5C64600B580460F00150047
:1048E0001E00002406E0E11909B232004046FFF73D
:1048F000B7FF0134A542F6DA80BCB846F0BD00002F
:10490000F0B5C64600B50F0090467F2303406021F6
:104910000A000240014201D0203BDAB25600B6182C
:104920007600114BF618002516E043461919781940
:104930000022FFF795FF0134E4B2072C0AD8735D1B
:104940002341DB07F1D54346191978190122FFF7F6
:1049500087FFF0E70135EDB2052D01D80024ECE723
:1049600080BCB846F0BDC0462C7E0008F8B50500F6
:104970000C0017001E0007E0013533003A0021004B
:10498000FFF7BEFF0634E4B228780028F4D1F8BD62
:1049900010B598B0342200210BA800F055FB10246C
:1049A0001022002107A800F04FFB1C2200216846BE
:1049B00000F04AFB32230B93313B0E931393109379
:1049C0000F9411940E3C1494C02252021592179326
:1049D0000BA8FDF7B1FF072307930894002409945F
:1049E0000A94012107A8FEF76FFA044B0093049480
:1049F00006946846FEF730FB18B010BD2000020098
:104A0000F0B5D6464F464646C0B590B0FEF7E2FB3D
:104A1000FFF7BEFFFFF784FBFFF7CAFBFFF7E8FBDA
:104A2000FFF73EFCFFF75EFCFFF7AEFCFFF77CFCF8
:104A3000D74C00212000FCF709FF0C212000FCF7D7
:104A4000DDFE0422D349D448FBF7C0FE6420FEF704
:104A5000DFFBFFF7A3FE9620FEF7DAFBFFF7F6FE7B
:104A60009620FEF7D5FBFFF7E7FE90200821C00552
:104A7000FEF7ACFC002806D090201021C005FEF700
:104A8000A5FC00283FD1C54B1868012301220F2146
:104A9000FFF76CFFC24B1868012309220A21FFF7B8
:104AA00065FFFFF7A9FEFA24A4002000FEF7B0FB83
:104AB000FFF7C2FEBB4B1868012301220E21FFF74E
:104AC00055FFB94B1868012309220821FFF74EFF53
:104AD000FFF792FEB54A24231421D1542000FEF79B
:104AE00097FBFFF7C1FCB24B188801F0ABFCB14B50
:104AF0001860B149FBF7A4FB002800D1B4E1AD4B2D
:104B0000AE4A1A60B0E1AE4C01231A0019002068C9
:104B1000FFF72CFF0123082219002068FFF726FF6A
:104B2000FFF76AFE2820FEF773FBA64BA64A1A6021
:104B3000BFF34F8FA54BA64ADA60BFF34F8FC04635
:104B4000FDE79C4CA349206801F0B2FA2060974B26
:104B500001221A772820FEF75BFBA0E1954C9D49C6
:104B6000206800F0C5FE2060904B01221A772820B3
:104B7000FEF74EFB98E1904C8E4B1C608B4B1B7FDD
:104B8000012B00D1C9E0E846934C4346250006CDF1
:104B900006C32A881A80AA789A70032200210B2063
:104BA000684400F051FA04AF3B00220003CA03C37B
:104BB0002A881A80AA789A70032200211B20684450
:104BC00000F042FA08AE3300220003CA03C32A8869
:104BD0001A80AA789A70032200212B20684400F0E2
:104BE00033FA0CAB994606CC06C32A881A80AA78F9
:104BF0009A70032200213B20684400F025FA6D4B97
:104C0000186800F05DFE82B27449404600F024FA54
:104C1000664C63689A46181C00F052FE85B2280064
:104C200001F0D0FB011C504601F042FA6C4901F042
:104C30004DF900F045FE83B22A006A49380000F0C1
:104C40000BFAA3689A46181C00F03AFE85B22800B9
:104C500001F0B8FB011C504601F02AFA604901F04E
:104C600035F900F02DFE83B22A005F49300000F0D4
:104C7000F3F923699A46181C00F022FE85B2280039
:104C800001F0A0FB011C504601F012FA544901F05A
:104C90001DF900F015FE83B22A005449484600F081
:104CA000DBF9FFF7C9FD012301220A214046FFF786
:104CB0005DFE012309220A213800FFF757FE012378
:104CC00001223C213000FFF751FE2423E35C002B3E
:104CD00056D0013B354924228B54344B186A444941
:104CE00001F0F4F802F04AFF06000F00314B58685B
:104CF000404901F0EBF8041C3F49FBF797FA002804
:104D000000D07DE00021201CFBF77CFA002800D0B9
:104D1000DCE0201C02F032FF74E0FEF7C7FC374BEA
:104D20001A6902210A431A61214A5A611A693E31FD
:104D30000A431A61314BDB68DB07FBD42F4BDB687E
:104D40009B0604D4194A24230C21D1541BE72B4B76
:104D5000DA6820210A43DA601A691E398A431A6127
:104D6000144B186800F0ACFD82B2002310490120FA
:104D7000FEF7ECFCFEF7B2FC00220C4B1A77E1E7E1
:104D8000013301220A214846FFF7F0FDA5E7C0469E
:104D90009C0400203801002064030020440000200F
:104DA000380000203400002040000020780000205F
:104DB00000E40008480000200000C84300005C43F5
:104DC0003C000020F03F0020EFBEADDE00ED00E033
:104DD0000400FA050000A040407D0008B07D0008F6
:104DE00000002041B87D0008C07D0008C87D000893
:104DF0006666663F000040400000F041002002402F
:104E0000002039490022394B02F09AF902000B00C8
:104E10003000390001F050FB02F0F2FE344C206209
:104E20003449206901F052F802F0A8FE06000F0094
:104E3000E06802F0A3FE00222C4B02F081F9020090
:104E40000B003000390001F037FB02F0D9FE206181
:104E50000024274B186A01F097FA844239DDFFF7E6
:104E6000CBFC2548FCF7EEF83220FEF7D1F9902470
:104E7000E40508212000FEF7A9FA1D4DA8771021AE
:104E80002000FEF7A3FA0400802189011B48FEF7E9
:104E90009DFA2043C0B26877012800D151E6144B37
:104EA0009B7F012B00D159E6154B1C681549201C2E
:104EB000FBF7BCF9002800D05DE61349201CFBF786
:104EC000A1F9002800D157E60F4C55E6002000213B
:104ED00098E720003C3000B2012308220821FFF7A8
:104EE000F9FC0134A4B2B4E700003E409A99B93FFE
:104EF000780000206666663F8C04002000080048A9
:104F0000480000200000C8430000A04180B500AF69
:104F10001A4B1A681A4B9A420BD1184B194A1A604D
:104F2000194B83F30888194B1B68194A136098477B
:104F3000FEE7184B1A6801210A431A605A6816489E
:104F400002405A601A68154802401A601A681448EC
:104F500002401A605A68134802405A60DA6A0F2009
:104F60008243DA621A6B104802401A635A6B8A4312
:104F70005A6300229A60BD4680BDC046F03F0020C3
:104F8000EFBEADDEEDFEFECA5022002004C8FF1FBA
:104F9000500C0020001002400CB8FF08FFFFF6FE86
:104FA000FFFFFBFFFFFFC0FF2CFEFCFF0D48854607
:104FB0000D480E490E4A002302E0D458C450043371
:104FC000C4188C42F9D30B4A0B4C002301E0136048
:104FD0000432A242FBD3FFF799FF00F011F8FFF76C
:104FE0000FFDFEE70040002000000020140100201B
:104FF000B880000818010020640C0020FEE70000C3
:1050000070B500260C4D0D4C641BA410A64209D1AE
:10501000002602F079FE0A4D0A4C641BA410A64239
:1050200005D170BDB300EB5898470136EEE7B300E9
:10503000EB5898470136F2E7B0800008B0800008CE
:10504000B0800008B480000803008218934200D1A9
:10505000704719700133F9E70EB400B50B499CB0E5
:105060001DAB02900690079104910948094904CBB1
:105070000591006802A9019300F072F80023029ADA
:1050800013701CB008BC03B01847C046FFFFFF7F79
:10509000B00000200802FFFF70477047F0B58E682F
:1050A00085B007000C00039201939E423CD89023E8
:1050B0008A89DB001A4234D00325096923685B1A08
:1050C0000293636902985D43EB0F5D19019B6D10BC
:1050D00001331B18AB4200D91D00530532D52900FE
:1050E000380000F031FB061E09D10C233B60402341
:1050F0000120A28940421343A38105B0F0BD029A6A
:10510000216900F0BAFAA389144A1A408023134394
:10511000A381029B2661F61826606561019EED1A47
:10512000A560019B9E4200D9019E32000399206830
:1051300000F0ACFAA36800209B1BA36023689E19B3
:105140002660DAE72A00380000F05CFB061EE0D19A
:105150003800216900F0AEFAC7E7C0467FFBFFFFC9
:10516000F0B5A1B003901D008B890F0016001B063F
:1051700011D50B69002B0ED1402100F0E5FA386003
:105180003861002805D10C23039A0138136021B03F
:10519000F0BD40237B61002308AC6361203363765C
:1051A0001033A376079535002B78002B01D0252BE3
:1051B00047D1AB1B0593B5420CD0320039000398A0
:1051C000FFF76CFF431C00D1AEE06269059B94467B
:1051D000634463612B78002B00D1A5E001220023FA
:1051E0005242626004A9543252186E1C2360E3607C
:1051F000A3601370A36505223178544800F032FA99
:10520000751C00281FD12268D30604D5532304A996
:105210005B1820211970130704D5532304A95B18C8
:105220002B21197033782A2B16D0350000210A2043
:10523000E3682A786E1C303A092A4ED9002911D128
:1052400017E00135B0E7414B2268C01A01238340C3
:1052500013432E002360CEE7079B191D1B6807919F
:10526000002B01DB0B9304E05B42E360022313435A
:1052700023602B782E2B0AD16B782A2B35D1079BF4
:1052800002351A1D1B680792002B2BDB0993304E49
:1052900003223000297800F0E5F9002806D04023E9
:1052A000801B83402268013513432360297806223E
:1052B00028486E1C217600F0D5F900283CD0264BFA
:1052C000002B25D10722079B07339343083307930D
:1052D0006369049A9B18636165E7434335000121C4
:1052E0009B18A6E701235B42D0E700230A201A009F
:1052F0000135636029786E1C3039092903D9002BE8
:10530000C5D00992C3E74243350001235218F1E7A3
:1053100007AB00933A002100104B039800E000BF58
:105320000490049B0133D3D1BB890D985B0600D454
:105330002DE7012040422AE707AB00933A00210005
:10534000064B039800F07CF8EAE7C0467C80000832
:105350008280000886800008000000009D50000840
:10536000F7B5150001938A680B690C000090934211
:1053700000DA130022002B6043321278002A01D099
:1053800001332B6023689B0602D52B6802332B6008
:105390002268062317001F401A4227D023004333F8
:1053A0001B785A1E93412268920630D4220001993C
:1053B0000098089E4332B047431C25D0062320683E
:1053C0002A68E16800250340042B03D18D1AEB43C2
:1053D000DB171D40A3682269934201DD9B1AED187B
:1053E0000027BD4220D1002010E00137E3682A6881
:1053F0009B1ABB42D2DD2200012301990098089E2E
:105400001932B047431CF0D101204042FEBD30208C
:10541000E1184331087021005A1C45310978A2185F
:10542000433202331170C1E7220001230199009831
:10543000089E1A32B047431CE6D00137D1E700007E
:10544000F0B58BB006920A004332079305900492A0
:105450000A7E0C00109B782A06D8622A08D8002AF7
:1054600000D1C0E0582A52D026004236327022E0E5
:10547000100063381528F7D8FAF722FE16001F002F
:10548000F6FFF6FFF6FFF6FF1F00F6FFF6FFF6FF4A
:10549000F6FFA80036009A00F6FFF6FFB900F6FF07
:1054A0003600F6FFF6FF9E0026001A684236111DF0
:1054B0001960136833700123A7E0086819680A1D92
:1054C00005060BD50D681A60002D03DA2D23049A0A
:1054D0006D421370614B0A27039332E00D681A6026
:1054E0004106F1D52DB2EFE70D681968081D186067
:1054F0002E0601D50D6803E06D06FBD50D68ADB233
:10550000564B0A2703936F2A17D1082715E0453118
:105510000A70524A03921A68216820CA1A60080663
:1055200050D5CB0702D52023194321601027002D29
:1055300003D1202322689A432260230000224333B0
:105540001A706368A360002B03DB04222168914377
:105550002160002D02D1049E002B0CD0049E280057
:105560003900FAF7F3FD039B013E5B5C33702B00BF
:1055700005009F42F3D9082F09D12368DB0706D520
:1055800063682269934202DC3023013E3370049B3E
:105590009B1B2361079B210000930598069B09AA8A
:1055A000FFF7DEFE431C35D1012040420BB0F0BDB9
:1055B000202209680A4322602200782145321170B6
:1055C000274AA7E74806ACD5ADB2AAE71A680D6826
:1055D000101D4969186013682E0601D5196002E094
:1055E0006D06FBD519800023049E2361D2E71A685B
:1055F000111D1960166800213000626800F032F851
:10560000002801D0801B6060636823610023049A36
:105610001370BFE72369320006990598079DA847D4
:10562000431CC1D023689B0715D4099BE0689842AE
:10563000BCDA1800BAE72200012306990598079EF4
:105640001932B047431CAFD00135E368099A9B1A61
:10565000AB42F0DCE9E70025F7E7C0468D800008A3
:105660009E800008C9B28218904201D10020704784
:1056700003788B42FBD00130F6E7002310B59A4245
:1056800000D110BDCC5CC4540133F8E710B588429A
:1056900002D98B18984203D3002307E08B5C835414
:1056A000013AFBD210BDCC5CC45401339A42FAD10A
:1056B000F8E7000070B50500002910D00C1F236822
:1056C000002B00DAE418280000F0D4F81D4A136813
:1056D000002B05D163601460280000F0D3F870BD82
:1056E000A34208D9216860188342F3D118685B6827
:1056F00041182160EEE71A005B68002B01D0A3423D
:10570000F9D911685018A0420BD120680918501817
:1057100011608342E0D118685B68411811605360E2
:10572000DAE7A04202D90C232B60D5E72168601884
:10573000834203D118685B6841182160636054603C
:10574000CAE7C046FC050020F8B50323CD1C9D43E5
:10575000083506000C2D1FD20C25A9421ED830009A
:1057600000F088F825490A681400002C1AD1244F4B
:105770003B68002B04D12100300000F069F838604C
:105780002900300000F064F8431C2BD10C233000BA
:10579000336000F077F803E0002DDEDA0C2333608D
:1057A0000020F8BD23685B1B19D40B2B03D92360A1
:1057B000E418256003E06368A2420ED10B6030005C
:1057C00000F060F8200007220B30231D9043C21A1E
:1057D0009842E6D01B1AA350E3E75360EFE722009C
:1057E0006468C2E70323C41C9C43A042E1D0211A91
:1057F000300000F02DF8431CDBD1C7E7FC0500208A
:1058000000060020F8B507000D001600002905D19C
:105810001100FFF799FF04002000F8BD002A03D112
:10582000FFF748FF3400F7E700F034F82C00B042EF
:10583000F2D231003800FFF787FF041EECD02900B8
:105840003200FFF71AFF29003800FFF733FFE3E7C4
:10585000002370B5064D040008002B6000F022F80C
:10586000431C03D12B68002B00D0236070BDC046C1
:10587000600C002010B50248FFF70EFC10BDC046BA
:10588000580C002010B50248FFF707FC10BDC046B9
:10589000580C00200B1F1B68181F002B01DA0B5837
:1058A000C0187047044A03001068002802D0C318CB
:1058B000136070470148FAE704060020680C0020D6
:1058C0009E2110B5C905041CFAF7BAFC00280AD0BD
:1058D0009E21201CC90500F0EBFB00F055FD802344
:1058E0001B06C01810BD201C00F04EFDFAE700009A
:1058F000F7B5802743025A0A44004E0094464A02F4
:10590000240EC50F360E500A01909B09C90F92094B
:10591000A01BFF048D4200D09AE000282BDD002E52
:1059200018D1002A00D13AE1461E01280ED10124E7
:105930009B185A0154D50134FF2C00D12DE10122CE
:105940009C491A405B080B40134349E0FF2805D1EE
:10595000FF2445E0FF2C43D006003A4301211B2ED3
:1059600007DC11002020F140861BB240501E82410E
:1059700011435B18DDE7002821D0311B002C0CD12E
:10598000002B00D104E1481E012902D19B180134EB
:10599000CFE7FF2905D11300DAE7FF2EFBD008007F
:1059A0003B4301211B2807DC19002024C140201A99
:1059B0008340581E8341194334008B18B9E7FE26F3
:1059C000611C31423ED1002C2BD1002B00D1E1E0F3
:1059D000002A05D09B183B4202D0774A13400C00A6
:1059E0005A0704D00F221A40042A00D004335A0167
:1059F00005D50134FF2C00D1DAE06F4A1340DB08F3
:105A0000FF2C04D1002B02D08022D2031343E005E7
:105A1000FF24E4055B0220405B0A0343E8071843C8
:105A2000FEBD002BB7D0FF24002AD9D080236246C8
:105A3000DB031A4203D0019A1A4200D1944663460E
:105A4000DB0085E7FF2900D1A6E09B185B08C6E7CD
:105A5000002823DD002E1CD1002A00D19FE0461E25
:105A6000012802D19B1A01240EE0FF2800D16FE724
:105A700001211B2E07DC11002020F140861BB240C3
:105A8000501E824111435B1A5A01A9D59B019E0900
:105A900061E0FF2CA4D006003A43E9E7002822D0B9
:105AA000301B002C0CD1002B07D0441E012802D142
:105AB0000D00D31AD7E7FF2806D1130004001FE01A
:105AC000FF2E6ED004003B4301201B2C07DC180086
:105AD0002025E0402C1BA3405C1EA341184334004A
