:020000040800F2
:1000000000400020E94A0008190300081B0300080B
:1000100000000000000000000000000000000000E0
:100020000000000000000000000000001D030008A8
:1000300000000000000000001F030008210300086A
:10004000394B0008394B0008394B0008394B000880
:10005000394B0008394B0008394B0008394B000870
:10006000394B000849030008394B0008394B000898
:10007000390300085D0300086D030008394B0008D0
:1000800075030008394B0008394B0008394B00084C
:10009000394B0008394B0008394B0008394B000830
:1000A000394B0008394B0008394B0008394B000820
:1000B000394B0008394B0008394B00082903000868
:1000C00002B4714649084900095C49008E4402BCEB
:1000D0007047C04603B47146490840004900095EB4
:1000E00049008E4403BC704703B471464908400080
:1000F0004900095A49008E4403BC7047002934D096
:100100000123002210B488422CD301242407A142E9
:1001100004D2814202D209011B01F8E7E400A142A6
:1001200004D2814202D249005B00F8E7884201D341
:10013000401A1A434C08A04202D3001B5C08224319
:100140008C08A04202D3001B9C082243CC08A0428A
:1001500002D3001BDC082243002803D01B0901D076
:100160000909E3E7100010BC704701B5002000F05A
:100170000BF802BD0029F8D003B5FFF7C1FF0EBC94
:100180004243891A1847C0467047C046D0400B000A
:10019000D1409C46203AD340184352426346934094
:1001A000184370478446100062468C461900634627
:1001B00000E0C0461FB506F0B5FD002801D40021BF
:1001C000C8421FBD10B506F017FD4042013010BDFA
:1001D00010B506F0A7FD002801DB002010BD0120AE
:1001E00010BDC04610B506F09DFD002801DD0020C1
:1001F00010BD012010BDC04610B506F037FD002827
:1002000001DC002010BD012010BDC04610B506F075
:100210002DFD002801DA002010BD012010BDC046D0
:10022000844608006146FFE71FB505F05EFC002824
:1002300001D40021C8421FBD10B505F0F3FB4042B8
:10024000013010BD10B505F050FC002801DB002086
:1002500010BD012010BDC04610B505F046FC0028B9
:1002600001DD002010BD012010BDC04610B505F015
:10027000FEFB002801DC002010BD012010BDC0469F
:1002800010B505F0F4FB002801DA002010BD0120B4
:1002900010BDC0461C2101231B04984201D3000C51
:1002A00010391B0A984201D3000A08391B099842E9
:1002B00001D30009043902A2105C40187047C046FF
:1002C000040302020101010100000000000000001F
:1002D00010B5064C2378002B07D1054B002B02D01C
:1002E000044800E000BF0123237010BD000100207E
:1002F00000000000087A0008044B10B5002B03D062
:100300000349044800E000BF10BDC04600000000E3
:1003100004010020087A00087047FEE77047704724
:1003200010B502F0ABFD10BD10B5024801F070FF32
:1003300010BDC0464401002010B5024800F0C0FACC
:1003400010BDC0469407002010B5034802F0EEFE31
:1003500003F0E2FB10BDC046E007002010B50248E4
:1003600001F09EF810BDC0468008002010B5FFF7D0
:10037000F5FF10BD10B5024801F092F810BDC0465F
:10038000C008002001200A4B82B09969014399619D
:1003900080219A69490502400092009ADA690A436D
:1003A000DA61DB690B400193019B02B07047C046E4
:1003B0000010024030B5050089B01422002103A8C6
:1003C00004F0E9FB1C4B2A689A4232D180201B4B77
:1003D000800099690143996180219A6989020240EC
:1003E0000192019A5A6990200A435A615B69C005DB
:1003F0000B400293029B272303A90393243B0493FE
:1004000002F05AFD0E4C0F4B200023600023636066
:10041000A3608033E360803323618023DB0063616A
:100420002023A36180239B01E36102F00BFEEC63B8
:10043000656209B030BDC046002401400010024092
:10044000E00700200800024010B504008AB0142222
:10045000002105A804F09FFB2368254A934221D17F
:100460008021244CC902626923480A43626163699E
:1004700003220B400193019BC0230593AE3B0693DF
:1004800005A9113B07930892099302F015FD8021FD
:10049000E26989030A43E261E3690B400293029B2C
:1004A0000AB010BD154A9342FAD18021114CC902FD
:1004B000626911480A436261636903220B40039336
:1004C000039BC0231B010593122305A90693113B2F
:1004D00007930892099302F0EFFC8021E269C903B7
:1004E0000A43E261E3690B400493049BD8E7C046EA
:1004F0000054004000100240000400480058004032
:1005000007B50F4B02689A4219D180200D4A0001AD
:1005100091690143916193690022034011000D200C
:100520000193019B02F04CFE0D2002F073FE0022AD
:100530000E20110002F044FE0E2002F06BFE07BDFB
:10054000002C01400010024010B5040088B01422B5
:10055000002103A804F01FFB114B22689A421DD111
:100560008020104B000199690143996180219A69AB
:10057000890202400192019A5A6990200A435A6105
:100580005B69C0050B400293029B80235B000393D1
:1005900003A9FE3B0493079302F08EFC08B010BD44
:1005A000002C014000100240002373B50321019389
:1005B000036804009A680A40012A07D119681142A9
:1005C00001D0002076BDDA681204FAD49968194A7D
:1005D000114208D010230120626C13436364A36CA2
:1005E0000343A364EEE7012299680A439A60124B21
:1005F00012491868FFF782FD0190019B002B15D16D
:1006000002F044FC0126050023681B683342D8D160
:1006100002F03CFC401B0228F6D91023626C01203A
:1006200013436364A36C3343A364CBE7019B013B97
:100630000193E2E7170000809800002040420F007D
:10064000F8B504000120002C7FD0636C002B06D18C
:1006500022004032A36420001370FFF7ABFE636CEE
:10066000DB0600D586E02368042299680800104064
:10067000114200D07EE0626C4149114002220A43DF
:10068000032162649A680A40012A05D1196811425F
:100690000ED1DA6812040BD41821DA688A43A168F3
:1006A0000A43DA601969626889008908114319618F
:1006B000DA683449256A0A40DA60A2696F03910357
:1006C000E269D2031143626B561E721E9641E268C4
:1006D0003603114322690F43022A00D10420226B02
:1006E000616A52003A4332430243012904D1002D8A
:1006F0002CD1802149020A43C220A16AFF308142E5
:1007000002D0E06A01430A438020D96840051143C2
:10071000D960A16B814202D0481E062807D8072560
:1007200058692940A8435861586901435961DB68F9
:1007300015490B40934211D100200322A064636C41
:1007400093431A00012313436364F8BD2020656CB2
:1007500028436064A06C0143A164CDE71222636C5E
:10076000012093431A00102313436364A36C0343D3
:10077000A364EAE71023626C012013436364E4E797
:10078000FDFEFFFF1902FEFFE7FF3F83F7B5036899
:1007900004009B680E00022001925B0730D4270002
:1007A00040373B78012B2BD001233B70E369012BB1
:1007B00027D1636C164A00251A4080235B0013433F
:1007C0006364A5643D70E06B124B21688362124B39
:1007D000C362124B03631C230B604A680C3B134338
:1007E0004B600123CA681343CB603200019B403148
:1007F00002F05EFC04232800226891680B4393609A
:10080000FEBD2000FFF7D0FE0028D2D0F8E7C0469A
:10081000FEF0FFFF2508000897080008A50800085B
:10082000704700005022436A10B5596C11422AD11A
:10083000596CB132FF320A43C0215A641A68090167
:10084000D068084212D1196A00290FD1116809072E
:100850000CD5916849070DD40C2051688143516033
:100860005A6C0B49114001220A435A641800FFF7E1
:10087000D7FF10BD2022596C0A435A640122996C9B
:100880000A439A64F2E7DB6B1B6B9847F1E7C046BB
:10089000FEFEFFFF704710B5406AFFF7FBFF10BD7B
:1008A000704770474023406A10B5426C134343645D
:1008B0000423826C13438364FFF7F3FF10BD000031
:1008C0000422036870B519680400114202D0596807
:1008D000114206D108221968114228D059681142E4
:1008E00025D0626CD20604D48022616C92000A4347
:1008F0006264C022D9681201114212D1226A002A10
:100900000FD11A6812070CD59A6852073CD40C21F3
:100910005A688A435A60636C204A1A400123134381
:1009200063642000FFF77CFF0C2223681A60802597
:1009300023681A682A420CD05B682B4209D08023B6
:10094000626C5B02134363642000FFF7A9FF236816
:100950001D60102223681968114214D05968114291
:1009600011D0626B012A02D0DA68D20708D50222C0
:10097000A16C20000A43A26410221A60FFF791FFC5
:10098000102223681A6070BD2023626C13436364D5
:100990000123A26C1343A364C3E7C046FEFEFFFF1E
:1009A000F7B5002204000192403422780300856BE1
:1009B0000220012A2AD0013820701A68966876072A
:1009C0005FD40B68314F1E00BC464F689840103E04
:1009D00067453FD0976A3843906280204005854242
:1009E0000FD0013D062D0CD90720556989680540B7
:1009F000A94206D05569014085435561556929438F
:100A00005161022E03D9002000232370FEBD20482F
:100A10000168102B1BD01A00113A55426A411D4D36
:100A200052422A4080256D0452190A430260102B5D
:100A3000E9D1194B19491868FFF760FB0A234343B2
:100A40000193019B002BDED0019B013BF8E7802244
:100A50001204EAE7916A81439162022ED3D80C4ACC
:100A60001168102B0BD0113B58424341C0205B4210
:100A7000000403400A481B180B401360C3E7094BEE
:100A8000FAE72022596C0A435A64BDE701100000BE
:100A900008270140000040FF9800002040420F005E
:100AA000FFFFFFFEFFFF7FFF03689A69920701D5F2
:100AB00000229A6201229969114202D199690A437E
:100AC0009A617047006830B54568064C12042C40A6
:100AD000039D89052B431A43890D0A432243426033
:100AE00030BDC046009800FCF8B504000E001700A9
:100AF0001D002268936933409B1B59424B41BB4206
:100B000001D000200EE06B1CF4D0002D0BD123008F
:100B1000202241331A702200002303204232403445
:100B200013702370F8BD02F0B1F9069BC01AA842F9
:100B3000DFD9ECE7F8B5036816009A6904001023C2
:100B400010000D00202718401A4215D1F8BD6A1C6C
:100B500013D0002D04D002F099F9801B85420BD2EE
:100B60002300202241331A702200002342324034F5
:100B7000137003202370E9E723689A693A42E6D0AC
:100B800010222000DA61DF61FFF78EFF226808493A
:100B9000536801200B405360042363642300220048
:100BA00041331F7000234232403413702370CDE76D
:100BB00000E800FEF8B504000D00160002272368C7
:100BC0009B693B4201D0002018E032002900200040
:100BD000FFF7B0FF002818D16B1CF0D0002D0ED10C
:100BE0002022636C032013436364230041331A7093
:100BF000220000234232403413702370F8BD02F00B
:100C000045F9801BA842DAD9EAE70120F6E7F7B5F3
:100C100015001E00DAB280239B010093802304009C
:100C2000089F5B04FFF74EFF39002000099AFFF789
:100C3000C1FF002805D0636C0120042B00D00320E5
:100C4000FEBD2368012E0CD1EDB29D62099B0022EE
:100C5000009380213B002000FFF746FF0028EFD0E3
:100C6000EDE72A0A9A6239002000099AFFF7A2FFED
:100C70000028E0D12368E7E7F7B515001E00DAB2D7
:100C800080230400089F9B0100930023FFF71AFFB5
:100C900039002000099AFFF78DFF002805D0636C0A
:100CA0000120042B00D00320FEBD2368012E0CD1AF
:100CB000EDB29D62099B0022009340213B00200081
:100CC000FFF712FF0028EFD0EDE72A0A9A623900F9
:100CD0002000099AFFF76EFF0028E0D12368E7E7BC
:100CE000F8B504000D001600202723689B693B42DD
:100CF00001D0002016E0320029002000FFF71AFF83
:100D0000002816D1002D0ED12022636C032013433E
:100D10006364230041331A702200002342324034BE
:100D200013702370F8BD02F0B1F8801BA842DCD923
:100D3000EAE70120F6E7000070B504000120002C6E
:100D40003FD0250041352B78DAB2002B05D12300A6
:100D5000403320001A70FFF777FB242301212B700A
:100D600023681D481A68A6688A431A6061681B4A8E
:100D70000A401A619A6802409A60E268012A21D109
:100D800080210902314399605A681549114359601D
:100D9000DA6861690240DA60226900200A43A169C9
:100DA00009020A43DA60216AE2690A431A600122F1
:100DB00019680A431A60202360642B702063423450
:100DC000207070BD8421090231439960022ADBD171
:100DD000802212015A60D7E7FF7FFFFFFFFFFFF07D
:100DE00000800002F0B587B0059303004133049200
:100DF00003931B7804000F000220202B57D12300FF
:100E000040331A78012A52D001261E7002F03EF8B3
:100E10008021050000901923320020000902FFF70D
:100E200063FE002842D121232600039A4236137024
:100E3000113B3370049B60646362059B6063638550
:100E40008023628D9B01FF2A20D9FF2222850093F7
:100E500080235B0439002000FFF734FE638D2A00F5
:100E600020000C99002B19D1FFF73AFF002819D167
:100E700020212368244DD9615A682A405A602300F2
:100E80004034413319703070207010E0628D92B29E
:100E90002285D2B2009380239B04DBE7FFF78AFE12
:100EA000002806D0636C0120042B00D0032007B07B
:100EB000F0BD636A5A1C62621B7822689362638D7C
:100EC000228D013B013A9BB292B263852285002AB2
:100ED000C4D1638D002BC1D0802120000C9B0095D4
:100EE000FFF702FE0028E1D1638DFF2B06D9FF2317
:100EF00023858023FF2200905B04ABE7628D92B2D2
:100F00002285D2B20090C6E700E800FEF0B589B0B5
:100F100007930EAB069204CB04001B880392049344
:100F20000300413305931B780F000220202B02D1D0
:100F3000002A02D1012009B0F0BD049B002BF9D09A
:100F40002300403302931B780220012BF3D00122AF
:100F5000029B1A7001F09AFF80210090050019236E
:100F6000012220000902FFF7BFFD061E21D1212327
:100F7000059A390013702300423305934023059AE4
:100F80001370039B60646362049B60636385109BC2
:100F900020000093069A079B0195FFF738FE002872
:100FA00009D0636C042B02D1029B1E70C2E7029B26
:100FB0001E700320BFE7638DFF2B15D9FF2280230E
:100FC00022855B040090390020008026FFF77AFD1F
:100FD000B6042A0020001099FFF7ECFD00280BD082
:100FE000636C042BE5D1A5E78023628D9B0492B24C
:100FF0002285D2B20090E6E7636A5A1C62621B78CF
:1010000022689362638D228D013B013A9BB292B2BA
:1010100063852285002A17D1638D002B14D080218F
:101020002000109B0095FFF75FFD0028C1D1638D64
:10103000FF2B22D9FF2323858023FF2200905B040E
:1010400039002000FFF73EFD638D002BC1D12A003F
:1010500020001099FFF744FE0028C1D12021236809
:10106000094DD9615A682A405A60230041331970EA
:10107000059B4034187020705DE7628D330092B29A
:101080002285D2B20090DBE700E800FEF0B589B01F
:1010900007930EAB069204CB04001B8803920493C3
:1010A0000300413305931B780E000220202B02D150
:1010B000002A02D1012009B0F0BD049B002BF9D019
:1010C0002300403302931B780220012BF3D001222E
:1010D000029B1A7001F0DAFE8021009005001923AE
:1010E000012220000902FFF7FFFC071E21D1222365
:1010F000059A310013702300423305934023059A6B
:101100001370039B60646362049B60636385109B40
:1011100020000093069A079B0195FFF7ADFD00287C
:1011200009D0636C042B02D1029B1F70C2E7029BA3
:101130001F700320BFE79023628D9B01FF2A49D9CE
:10114000FF222285009380235B043100200080274A
:10115000FFF7B8FCBF04002204212000109B00957B
:10116000FFF7C2FC0028E4D123685A6A636A591C5D
:1011700061621A70228D638D013A013B92B29BB27B
:1011800022856385002A17D1638D002B14D080211E
:101190002000109B0095FFF7A7FC0028C9D1638DA4
:1011A000FF2B1FD9FF2323858023FF2200905B04A0
:1011B00031002000FFF786FC638D002BCBD12A0085
:1011C00020001099FFF78CFD002812D0636C042BCF
:1011D000AFD16FE7628D92B2228500938023D2B2A5
:1011E0009B04B2E7628D3B0092B22285D2B200909E
:1011F000DEE720212368064DD9615A682A405A60EB
:10120000230041331970059B40341870207052E759
:1012100000E800FEF0B504004134227803000F001E
:101220000220D6B2202A18D11D0040352A78012A82
:1012300013D0242222701B68233A1968074891436F
:101240001960196801400020196019683943196054
:1012500019680A431A6026702870F0BDFFEFFFFF7F
:101260000200F0B5413214780300E5B20220202CD0
:1012700017D11C0040342678012E12D02230107075
:101280001B6823381E68074F86431E601E680902CC
:101290003E403143196019680843186000201570FA
:1012A0002070F0BDFFF0FFFF70B504000120002C9E
:1012B00014D023680F4A1A600F4A1A6062685A6095
:1012C000A2689A6001F0E2FD05002368D868002852
:1012D00005D11969E268914208D01A6170BD01F028
:1012E000D5FD401B2728F0D90320F7E7034A1A60F1
:1012F000F4E7C046CCCC000055550000AAAA000077
:101300000368024A00201A607047C046AAAA00007B
:101310000122036A70B593430362036A44688569D6
:10132000723295430A681543022293438A68134335
:10133000144A904208D0144EB04205D0134EB04229
:1013400002D0134EB04216D10826B343CE683343C1
:101350000426B343904208D00B4A904205D00B4A72
:10136000904202D00A4A904205D10A4A8E69224030
:101370004C69344314434A684460856142630362A4
:1013800070BDC046002C01400040014000440140B7
:1013900000480140FFFCFFFF70B57325036A174A40
:1013A00013400362036A4268C469AC430D682C436E
:1013B000134D2B408D682D022B43124DA8420ED1A8
:1013C000114D1D40CB681B022B43104D2B40104D7F
:1013D0004E6915408A69324312012A4308E00D4DD7
:1013E000A842F4D00C4DA842F1D00C4DA842EED04A
:1013F00042604A68C461C263036270BDFFFEFFFFC2
:10140000FFFDFFFF002C0140FFF7FFFFFFFBFFFF89
:10141000FFCFFFFF00400140004401400048014071
:10142000036A144A30B513400362026A124C4368DF
:10143000C56925400C6824022543104C22408C6865
:10144000240322430E4CA04208D00E4CA04205D0EB
:101450000D4CA04202D00D4CA04204D10C4C2340B4
:101460004C69A401234343604B68C5610364026275
:1014700030BDC046FFEFFFFFFF8CFFFFFFDFFFFF28
:10148000002C014000400140004401400048014060
:10149000FFBFFFFF70477047704770477047704746
:1014A0000222036810B51969040011420ED0D968F0
:1014B00011420BD0053A1A61043202779B699B07EF
:1014C00000D179E0FFF7E9FF0023237704222368A6
:1014D0001969114210D0D96811420DD0093A1A6128
:1014E000073222779A69C0239B0020001A4269D0F4
:1014F000FFF7D3FF002323770822236819691142DD
:101500000ED0D96811420BD0113A1A610D322277F0
:10151000DB6920009B075BD0FFF7BFFF0023237729
:10152000102223681969114210D0D96811420DD0D8
:10153000213A1A6119322277DA69C0239B00200010
:101540001A424BD0FFF7A9FF00232377012223681B
:101550001969114207D0D968114204D0033A20001A
:101560001A6102F05FFC802223681969114208D0D9
:10157000D968114205D0023AFF3A20001A6100F002
:1015800002FB402223681969114207D0D968114231
:1015900004D0813A20001A61FFF781FF20222368DE
:1015A0001969114207D0D968114204D0413A20008C
:1015B0001A6100F0E7FA10BDFFF76EFF2000FFF799
:1015C0006DFF81E7FFF768FF2000FFF767FF91E7F6
:1015D000FFF762FF2000FFF761FF9FE7FFF75CFF67
:1015E0002000FFF75BFFAFE7204A10B50368904289
:1015F00006D08024E405A04202D01D4CA0420CD1AC
:101600007024A3434C682343904212D08024E40505
:10161000A0420ED0164CA0420BD0164CA04208D0CF
:10162000154CA04205D0154CA04202D0144CA0424B
:1016300003D1144C2340CC6823438024A3434C693A
:10164000234303608B68C3620B688362904208D0B7
:10165000094B984205D0094B984202D0084B98425A
:1016600001D10B6903630123436110BD002C0140CC
:1016700000040040002000400040014000440140C0
:1016800000480140FFFCFFFF70B504000120002C62
:1016900014D025003D352B78DAB2002B05D123007C
:1016A0003C3320001A70FFF7F5FE02232B702068F0
:1016B000211DFFF799FF012300202B7070BD70B52D
:1016C00004000120002C14D025003D352B78DAB21F
:1016D000002B05D123003C3320001A70FFF7DBFEFE
:1016E00002232B702068211DFFF77EFF01230020BD
:1016F0002B7070BD70B504000120002C14D02500A3
:101700003D352B78DAB2002B05D123003C33200085
:101710001A70FEF7F5FE02232B702068211DFFF7DB
:1017200063FF012300202B7070BD00001022036AAC
:1017300070B593430362026A164C4368856925407D
:101740000C68240225432024A2438C6824012243F0
:10175000114CA0420FD18024A2431400CA68120188
:1017600022434024A2430D4E4C691E408B69234303
:101770009B00334308E00A4CA042F4D0094CA0423D
:10178000F1D0094CA042EED043604B688561836381
:10179000026270BDFF8CFFFF002C0140FFF3FFFFD2
:1017A00000400140004401400048014070B5040081
:1017B00002263C34257803003000012D0FD01D0097
:1017C00001383D3520702E70082A17D008D8002A1D
:1017D0000CD0042A0ED0012300202B70207070BD85
:1017E0000C2AF8D11868FFF71BFEF4E71868FFF71A
:1017F0008FFDF0E71868FFF799FFECE71868FFF72F
:10180000CBFDE8E7F7B5070002233C3716003A782E
:1018100004000D001800012A11D001223A702200A4
:101820003D3201921370082E3FD009D8002E1AD0F5
:10183000042E29D001230020019A13703870FEBDB8
:101840000C2EF7D12068FFF7EBFD802223681201F0
:10185000D9690A43DA61DA691C490A40DA612A69FE
:10186000D96912022EE02068FFF752FD0822236892
:1018700099690A4304219A619A698A439A619A692B
:1018800029690A439A61D5E72068FFF74FFF802254
:101890002368120199690A439A619A690B490A40BF
:1018A0009A612A6999691202EBE72068FFF774FDD3
:1018B00004212368DA691643DE61DA698A43DA6152
:1018C000DA6929690A43DA61B4E7C046FFFBFFFF22
:1018D00030B58468034D0A431B022C401343234355
:1018E000836030BDFF00FFFFF8B5050002233C35E3
:1018F0002A7804001800012A1BD0260001273D3653
:101900002F7033702068524A8368134083600B68DD
:10191000502B53D02BD8202B00D18DE00AD8002B90
:1019200000D17DE0102B00D180E001230020337036
:101930002870F8BD302B00D184E0402BF5D1CA6867
:101940004C68016A036ABB43F02703628369BB43A7
:101950001F0013010A2291430A003B432243836183
:1019600002627022836893431A0047233DE080227D
:10197000520193421DD00ED8602B38D0702BD4D199
:10198000CB684A688968FFF7A3FF772122689368CC
:101990000B439360C9E7802292019342C5D1CB6883
:1019A0004A688968FFF794FF80232268DB01916809
:1019B000EEE70722836893438360B6E7CA684C6802
:1019C000016A036ABB43F02703628369BB431F00BC
:1019D00013010A2291430A003B43224383610262BE
:1019E0007022836893431A0057231343E4E74A683D
:1019F000CF681021036A174C8B4303628169036A25
:101A00002140A024A3431C00130170223F03234361
:101A1000394381610362836893431A006723E4E7D3
:101A20007022836893431A000723DEE770228368DD
:101A300093431A001723D8E77022836893431A0050
:101A40002723D2E77022836893431A003723CCE719
:101A50008800FFFFFF0FFFFF10B501248C408A4074
:101A6000036AA3430362036A1A43026210BD0000C3
:101A700010B5040001220068FFF7EEFF23680B4A4F
:101A8000934208D00A4A934205D00A4A934202D0B0
:101A9000094A934204D18022596C12020A435A64C3
:101AA0000122196800200A431A6010BD002C014071
:101AB00000400140004401400048014010B5FFF7DC
:101AC000D7FF10BD30B5040002223C342578030056
:101AD0001000012D17D0180070253D3002701B68D2
:101AE0005A68AA435A605A680D6849682A43802593
:101AF0005A609A68AA439A609A680A439A600123D6
:101B000003700020207030BD30B5040002233C3447
:101B1000257802001800012D24D010003D300370FC
:101B2000CD68114B12682B408D682B430F4D2B4015
:101B30004D682B430E4D2B400D682B430D4D2B4014
:101B40000D692B430C4D2B404D6989692B430B4D7F
:101B50002B400B4D0B432B400B435364012303706D
:101B60000020207030BDC046FFFCFFFFFFFBFFFFE1
:101B7000FFF7FFFFFFEFFFFFFFDFFFFFFFBFFFFFED
:101B8000FF7FFFFF70477047F42210B55200845C5E
:101B900003000220012C09D001389854002906D1F5
:101BA00019687F304C3108800020985410BD581DB2
:101BB000C177F9E7F0B57F2685B0050018004BB274
:101BC0001C24019203930E40002B1DDA7443210064
:101BD0002831F424039B6918DB0F4B70019B0E70B6
:101BE000CB60C87064002F5D0223012F00D1D2E0CA
:101BF000013B2B55B300032815D82C68774FE41808
:101C0000FEF75EFA06470B4361430931FF31E0E717
:101C1000208807407248074304E020880740714845
:101C20000743BFB227802C686F48E3181F886D4AAE
:101C3000074037431743BFB2F2001F8002928E7AEB
:101C4000002E5AD1012227008E8894469643039A8B
:101C50005037002A21DA3A88029952181419802242
:101C6000D200A41826801A88520604D51A8810407B
:101C70005E4A104318801A885D49114020224A406C
:101C800058490A4392B21A8081E020880740594897
:101C9000C1E7208807405848BDE73988029A89186B
:101CA000564A091989180E80029A39888918544AA7
:101CB000A418019A0C193E2A16D95109D20601D14D
:101CC000013989B24F4A8902114321801A8852048E
:101CD00004D51A8810404C4A104318801A884B4982
:101CE0001140C0229201CAE7019A019E5108624642
:101CF000164200D001318902E7E71E88444A0127D5
:101D00003240444E32431A8050229446A4446246E4
:101D10001288029EA21892198026F6009219CE8887
:101D2000BE43168062461288314EA418029AA41847
:101D3000324AA4180A890399BA4322808022334C7C
:101D4000D20100292ADB1988114204D01A882E49B1
:101D500002400A431A801A882F49520604D51A886D
:101D600002400A4392B21A801A881040014389B295
:101D700019801A882240C024A4015440194A1443EF
:101D8000A4B21C8019883140114389B21980F42211
:101D900000235200AB54180005B0F0BD1F881F4946
:101DA000174204D01A8802400A4392B21A801A8855
:101DB000520604D51A880D4F02403A431A801A88F9
:101DC0001040014389B21980198806483140014307
:101DD00089B219801A882240024353E70F09000094
:101DE000808200008080FFFF0F0F0000C080000095
:101DF000BF8FFFFF80860000808400000404000085
:101E0000060400000080FFFF80C000008FBFFFFFBE
:101E10000F0E000080810000C080FFFF80C0FFFF28
:101E2000F0B57F242140633C25004D4345192E0029
:101E3000FC36F2610022FF357262AA726972B669DD
:101E400015009E4201D29D1B330022004A43821896
:101E50001400FC3425620468FF32250050352E88BA
:101E6000D27CCF00F619002A28D1364AA218B6181B
:101E70003E2B1BD95A0992B2DB0601D1013A92B22C
:101E8000314B92021A4332801C2359434018FF30D1
:101E9000437A2E4A9B00E418238800201A40C0236E
:101EA0009B0153402A4A13432380F0BD5A0892B243
:101EB000DB0701D5013292B29202E4E7254AA2186B
:101EC000B6183E2B24D95A0992B2DF0601D1013A45
:101ED00092B21D4F92023A4332801C224A4382182A
:101EE000FF32967A527A002E22D12D88D2005219D2
:101EF000144D651952193E2B12D95D09ADB2DB069E
:101F000001D1013DADB2104BAD021D431580BBE7C1
:101F10005A0892B2DF0701D5013292B29202DBE792
:101F20005D08ADB2DB0701D50135ADB2AD02EDE71D
:101F3000012EA9D12D88D2005219024DA218521992
:101F40001380A1E7060400000080FFFF8FBFFFFFA2
:101F50008080000002040000F42330B55B00C25C06
:101F600004000220012A21D00122E2546A3BFF3BF7
:101F700048B20B401B32002819DA5A4328321100AC
:101F8000012261188A70C20F4A700B702568134ACB
:101F9000002B10D12988124B0B40124959400A439B
:101FA00092B22A80F42300205B00E05430BD5143FC
:101FB0000931FF31E4E79B00EB181988002807DAA4
:101FC00009480840102141400A4392B21A80E9E7CB
:101FD0000648084080214901F5E7C0468080FFFFA0
:101FE000BFBFFFFF10100000BF8FFFFF8FBFFFFFBD
:101FF00030B57F254CB202001C230D40002C2CDA9A
:102000006B4328331900002351188B70E30F4B707A
:10201000F4230D705B00D15C022001291CD001214A
:102020008540D154136816485B191988002C18DABA
:10203000490605D51988134C2140134C21431980BA
:102040001988124C0C4030216140014389B219803B
:10205000F42300205B00D05430BD59430931FF31D7
:10206000D1E7490405D51988064C2140084C214385
:1020700019801988074C0C40C0218901E4E7C0464B
:102080008080FFFF0F0F0000C0800000BF8FFFFFA8
:1020900080C000008FBFFFFF30B580240133E40013
:1020A00000195B0880185B00CB18401A441899424D
:1020B00000D130BD4A780D7812022A4322800231C5
:1020C000F4E70000F8B51C240F0011007F22060081
:1020D000200017407843301800220500026429359B
:1020E00001328163013D6A702F70406B002298427B
:1020F00001D21A1A03007C4334199DB22300E26313
:1021000032331B783068002B21D1A28D2B00FFF7D2
:10211000C3FF336828341A00503211882278D20065
:102120009B18264A5B189B181D801C214F43F719EA
:1021300028373B7832689B00D2181388204900204A
:10214000194030234B401F490B431380F8BDBB009F
:10215000C3181988030050331B88FA00C3189B1852
:1021600049061BD5184A9B181D80228E1C247C43CF
:1021700034192B00A16BFFF78FFF230029331B7845
:102180003268002B0FD12834237810499B00D318D4
:102190001A880A400E490A431A80C6E7074A9B1864
:1021A0001D80E28DE2E7012BBFD128342378074957
:1021B0009B00D3181A880A400649ECE70204000085
:1021C000BF8FFFFF80800000060400000F0F00009B
:1021D000C080000080C00000F0B58025ED004019EF
:1021E0005C08821826000800571A3D18002E07D1F7
:1021F000640009191419DB0701D523880B70F0BDA1
:102200002D88013E05702D0A45700230EDE7000073
:10221000F0B5036804000633DB8F85B01BB2002BDA
:1022200000DA61E023680633DA8F52050AD5DA8FC7
:10223000894920000A40DA8701F003FC00212000D0
:10224000FFF7A2FC2268931DD98F490403D5D98FCB
:1022500082480140D987D98F890403D5D98F804816
:102260000140D987DB8FDB040FD50421931CDA8F63
:1022700020008A43DA877B4ADA8701F0EFFB236884
:1022800079490633DA8F0A40DA8723689A1DD18F9D
:10229000090512D5D18F754802330140D187082135
:1022A000D88F0143D9870421D88F0143D987D38F91
:1022B000DB0402D4200001F0D0FB23680633DA8F60
:1022C000920506D5DA8F6A4920000A40DA8701F0C4
:1022D000B1FB23680633DA8FD20503D5DA8F65495F
:1022E0000A40DA8705B0F0BD02AB9F1D00233B809A
:1022F000206803AA831DDB8F9BB213801BB2002BC7
:1023000000DB8FE70F250F2113881D400B4200D003
:10231000C0E012881023110019401A4227D1038807
:10232000554A13400380030050331A882300283392
:102330001B78DB00C3189B18504A20009B181B8891
:10234000A26B9B059B0D2364D318A36301F067FB6D
:10235000631DDA7F002ACBD0E06B0028C8D1802231
:10236000D97F114322684C321180D877C0E70388A7
:102370009BB23B803B881B0520D503005033198856
:1023800084235B00E35C3E4ADB00C3185B189B18A8
:10239000220021001B8809329B059B0DFF32ED3185
:1023A0009361FF319288FFF717FF22683549138840
:1023B00020000B40138001F01CFB99E73B881BB207
:1023C000002B95DA03882F4A250013400380030071
:1023D0005033198884235B00E35C294ADB00C3186F
:1023E0005B189B181B8809359B059B0DFF35AB615E
:1023F000002B07D0AA882969FFF7EEFE2B69AA698E
:102400009B182B610021200001F0FDFA22681C4975
:10241000130050331B88E8685118C9183E2813D997
:1024200043099BB2C00601D1013B9BB216489B02F7
:1024300003430B80138815491940C0239B014B406F
:1024400013490B43138053E743089BB2C00701D5E0
:1024500001339BB29B02ECE7FFFBFFFFFFBFFFFFD7
:10246000FFDFFFFF00BDFFFFFFEFFFFFFFF7FFFFF5
:10247000FFFDFFFFFFFEFFFF0F8FFFFF02040000C5
:10248000060400008F0F00000080FFFF8FBFFFFFDA
:1024900080800000AB000193C3181A8892B23A8082
:1024A0003A8812B2002A3CDA1A8876490A401A8021
:1024B0001C236B43E3181A000100FF32D67C503115
:1024C000527A002E71D10988D20052186E49121822
:1024D000521812889205960D002A08D01A00FC3373
:1024E0001900FE323300D289C969FFF775FE1C213D
:1024F000694361180B00FC335A6A186A92195A62D0
:10250000DA699219DA61002803D09B699E4200D3F0
:102510007EE01C236B43E318FF332000597A01F05F
:1025200072FA80223B88134200D1E1E62068AB00BA
:10253000C3181A88554906000A401C2169436118CE
:102540001A800B0032331A7850360A3B002A66D1C3
:102550001B783688DB004E4A9B191B189B181B887A
:102560009B059B0D0B6403D08A8D896BFFF794FD4F
:102570001C214D436519236829001A002831097868
:1025800050321288C8001B189B18414A20009B1823
:102590001A88AB6B9205920D2A649A18EB6BAA63AA
:1025A000002B6CD101F03BFAA2E696008619368822
:1025B0000988D2008A18121876041ED53449521898
:1025C00012889205960D002A08D01A00FE32128A4F
:1025D000FC3319003300C969FFF7FEFD1C236B4370
:1025E000E318FF335A7A236892009A18138829490E
:1025F0000B4029490B43138079E72349521812886D
:102600009205960D002AE9D01A00FE32528ADFE7C1
:10261000FF310300497A2000FFF702FC81E71A78B6
:102620009300C3181B88D2005B061CD53388C318DF
:102630009B18174A9B181B889B059B0D0B6403D0A6
:10264000CA8D896BFFF728FD1C236B43E3182833E1
:102650001A78236892009A1813880E490B400F4984
:102660000B43138084E73388C3189B18064A9B18D2
:102670001B889B059B0D0B64E6D00A8EE1E7FFF7F4
:1026800021FD35E68F0F0000060400000F8FFFFFCD
:10269000020400000F0F0000C080000080C0000096
:1026A000F0B50368040085B0DB0733D423689B07CB
:1026B00000D58AE023681B0700D5CAE023685B07C2
:1026C00000D5EDE02368DB061AD562690423BC4D12
:1026D000012A00D058E1696B02270B436B636B6BD7
:1026E0001A436A6300F0D2FB06006B6B3B4200D1D9
:1026F00043E1F8216A6BA3698A43DB0013436B63F0
:1027000023689B0600D567E1616A002900D0A4E137
:10271000002018E00C21AA4D6A680A40042A0BD058
:102720006B680B40082B10D1C0226B68520213401B
:1027300080225202934208D12B689B03B6D563686E
:10274000002BB3D1012005B0F0BD6368012B13D17C
:1027500080232A685B0213432B6000F097FB8027DD
:102760000600BF022B683B42A0D100F08FFB801B0C
:102770006428F7D90320E6E7002B16D12B68914A8D
:10278000802713402B602B688F4ABF0213402B60B9
:1027900000F07CFB06002B683B4200D186E700F08E
:1027A00075FB801B6428F6D9E4E7052B05D180234F
:1027B0002A68DB0213432B60CAE72B68814A134067
:1027C0002B602B68804A1340C6E70C227C4D6B6857
:1027D00013420BD06B681340082B15D1C0226B68D5
:1027E000520213408022120293420DD12B689B07A4
:1027F00002D5E368012BA5D1F8212A6823698A4311
:10280000DB0013432B6055E7E2680123002A0FD059
:102810002A68022713432B6000F038FB06002B6860
:102820003B42E9D100F032FB801B0228F7D9A1E737
:102830002A6802279A432A6000F028FB06002B68CA
:102840003B4200D136E700F021FB801B0228F6D97D
:1028500090E7E26901235A4D002A10D06A6A0227E4
:1028600013436B6200F012FB06006B6A3B4200D020
:1028700024E700F00BFB801B0228F6D97AE76A6A8E
:1028800002279A436A6200F001FB06006B6A3B4232
:1028900000D113E700F0FAFA801B0228F6D969E7A5
:1028A00080220021464D5205EB690091134208D168
:1028B000EB691343EB61EB6913400393039B012323
:1028C00000938027414E7F0033683B4206D0A368C7
:1028D000012B13D12A6A13432B6230E033683B4348
:1028E000336000F0D3FA019033683B42EFD100F03F
:1028F000CDFA019BC01A6428F6D93BE70122002BD0
:1029000014D12B6A022793432B622B6A0332934321
:102910002B6200F0BBFA06002B6A3B4216D000F097
:10292000B5FA2B4B801B9842F6D923E7052B16D11D
:10293000296A013B0B432B622B6A1A432A6200F07F
:10294000A5FA022706002B6A3B420FD0009B012B01
:1029500000D0B7E6EB691F4A1340EB61B2E62B6A81
:10296000934304222B622B6A9343B5E700F08EFA5F
:10297000174B801B9842E6D9FCE600F087FA801BD3
:10298000022800D8B1E6F5E6053203D16A6B9A4316
:102990006A63AEE66A6B0227134301226B636B6BBB
:1029A00093436B6300F072FA06006B6B3B4200D1FD
:1029B000A6E600F06BFA801B0228F6D9DAE6C046DC
:1029C00000100240FFFFFEFFFFFFFBFF0070004012
:1029D00088130000FFFFFFEF0C21464D6A680A4094
:1029E0008A4209D06B680B40082B0ED1C0226B685D
:1029F00052021340934208D16B6BDB0300D483E691
:102A0000236A012B00D09DE67EE6236A002B11D0BD
:102A100080276B6B7F023B436B6300F037FA060045
:102A20006B6B3B4200D06FE600F030FA801B02284F
:102A3000F6D99FE66B6B304A802713406B6300F03A
:102A400025FA06007F026B6B3B4200D15CE600F08A
:102A50001DFA801B0228F6D98CE60C22254D6B68E6
:102A60001340082B00D16DE62B68244A13402B60DD
:102A700002292FD100F00AFA80270600BF042B6834
:102A80003B4221D10F22EB6A80269343226BB6048E
:102A90001343EB62A16AE36A6A680B4318490A4070
:102AA00013436B6080232A685B0413432B6000F0A0
:102AB000EDF904002B68334200D029E600F0E6F976
:102AC000001B0228F6D955E600F0E0F9801B022829
:102AD000D5D94FE600F0DAF980260400B6042B6859
:102AE000334200D114E600F0D1F9001B0228F6D9D8
:102AF00040E6C04600100240FFFFFEFFFFFFFFFE62
:102B0000FF7FC2FF30B589B010221949684604AD75
:102B100002F038F810222800164902F033F80C2091
:102B2000154A53681840082809D00C38431E9841AC
:102B3000124B40421840124BC01809B030BD0F2054
:102B40006C46D26A990C01400240645CA95CC022C8
:102B50008020520213404002834201D1094802E022
:102B60009342FBD10648FDF7C9FA6043E5E7C0464A
:102B70002E7A00083F7A00080010024000A69DFD52
:102B8000006CDC0200127A00F7B50122504E0500FD
:102B90003368019113408B421FD32A68930728D4CE
:102BA000D3072ED40123326801991A408A4200D9F2
:102BB0007EE02B68474C5B0700D581E0FFF7A2FF62
:102BC0006368454A1B061B0FD35CD840434B186013
:102BD000002000F031F900200AE0336801999343A6
:102BE0000B43336033681340019A9342D5D00120E0
:102BF000FEBDF02037494B688343A86803434B6010
:102C0000CEE76A68334C012A1AD123689B03EED5BC
:102C1000032163688B431343636000F037F96B68EB
:102C20000700012B1CD10C2263681340042BB9D080
:102C300000F02CF92A4BC01B9842F4D90320D7E7A7
:102C4000022A03D123689B01E2D4D0E7032A03D1EF
:102C5000636BDB03DCD4CAE723689B07D8D4C6E7E1
:102C6000022B0BD10C2263681340082B9AD000F082
:102C70000DF91B4BC01B9842F4D9DFE7032B11D091
:102C80000C226368134200D18CE700F0FFF8144B6C
:102C9000C01B9842F4D9D1E700F0F8F8104BC01BE4
:102CA0009842CBD80C22636813409342F4D179E761
:102CB00032689A43326032681A4200D179E796E767
:102CC0006368084A1340EA681343636076E7C046C6
:102CD0000020024000100240397D000898000020CA
:102CE00088130000FFF8FFFF014B18687047C046CB
:102CF00098000020F0B50368050085B0DB032AD5F5
:102D000080220021454C5205E3690091134208D10D
:102D1000E3691343E361E36913400393039B0123D6
:102D2000009380273E4E7F0033683B4243D0226AA7
:102D3000C02311009B003B4E19401A424DD1236A1B
:102D40001E406B681E43009B2662012B03D1E36982
:102D5000354A1340E3612B68DA0706D503202F4973
:102D60000A6B8243A86802430A639A0706D52B4977
:102D70002E480A6B0240E86802430A639A0606D5A9
:102D8000102026490A6B8243286902430A639A038A
:102D900006D5802021490A6B8243A86902430A6351
:102DA00000205B0517D540211C4A136B8B436969D2
:102DB0000B4313630FE033683B43336000F066F866
:102DC000019033683B42B2D100F060F8019BC01A19
:102DD0006428F6D9032005B0F0BD6A6813408B4221
:102DE000ADD08023226A206A11005B020343236274
:102DF000236A0F483140034023622162D3079ED5E6
:102E000000F044F807000222236A134297D100F031
:102E10003DF8084BC01B9842F5D9DBE70010024093
:102E200000700040FFFCFFFFFFFFFFEFFFFFFCFF14
:102E3000FFFFFEFF8813000010B50400FFF754FFEA
:102E4000FA218900FDF75AF900F0EEF9012000227D
:102E50002100404200F0B4F9002010BD1023064AC2
:102E600010B5116800200B431360FFF7E5FFFDF775
:102E700089FA002010BDC04600200240024A1368B3
:102E8000013313607047C0461C010020014B1868D5
:102E90007047C0461C01002037B50190FFF7F6FFD0
:102EA000019C0500631C5A1E9341E418FFF7EEFFD6
:102EB000401BA042FAD337BD584AF0B58218541EC1
:102EC000A241002389B0043202910592029A12684D
:102ED0001400DC4001D109B0F0BD01249C40A4469F
:102EE0006146144001940A4200D195E0029A546868
:102EF0001022250095430395022D0ED107250F279B
:102F00001D40AD00AF40DA0892008218166A02999F
:102F1000BE430F69AF403E43166202685D00110078
:102F200003221600AE402240B143AA40F7430E00F0
:102F30001643039A0660013A012A0ED8029A86685F
:102F4000D2683E40AA403243826062464668964359
:102F5000E206D20F9A4032434260C26802993A4078
:102F60008F68AF401743C760E20055D501262C4A51
:102F7000032795693543956192699D083240079210
:102F8000079A284AAD00AD18AA6894461A003A403C
:102F9000920003920F2203998A4061469143902246
:102FA000D20594460491002260450DD01E4A9446F5
:102FB0003200604508D01D4E9218B04204D01C4E1D
:102FC0003A00B04200D0059A03998A4004990A4316
:102FD0000199AA600E00174ACD4317683E43E103EA
:102FE00001D43E002E4016605768019E3E43A10367
:102FF00001D43E002E4056609768019E3E43E10298
:1030000001D43E002E409660D668019F3743A1024E
:1030100001D42E403700D760013357E700F0FFB7E7
:103020000010024000000140000400480008004871
:10303000000C00480004014000690840431E98410C
:10304000C0B2704770B504000120002C28D00223C4
:10305000A51CEB772068134B0268A1681A406368CF
:103060000B43E1680B4321690B4361690B43A16981
:103070000B43E1690B43134303600B4B1421C0184E
:10308000FDF73CF8094B80002064E3630020012336
:10309000A062E06220636063A063E418EB77E077EE
:1030A00070BDC0460FC0FFFFF8FFFDBF000002402B
:1030B000F7B5451C0193EB7F04000220012B27D0BC
:1030C00001232718EB77FB7F00269C466046DBB286
:1030D000012828D10130F8772068A6630568266C9E
:1030E0009D43B3400560E56B6B60019B4360636883
:1030F000102B0ED18260C160E36A0268002B0BD0F6
:103100000E2313430360012302681343036000206E
:10311000FEBD8160C260EFE70A231343042203600F
:1031200003689343EEE70220EE77F1E7F8B5042752
:103130003E00016CC26B8E40156803681C68354206
:103140000DD03C420BD01968890602D41968B943E6
:103150001960C36A5660002B19D0984717E0022700
:103160003E008E40354213D03C4211D0196889068A
:1031700006D40A241968A14319600121C319D9771B
:1031800056600022431CDA77836A9342E5D1F8BD8A
:10319000082637008F403D42F9D03442F7D00E2543
:1031A0001C68AC431C6001231C008C405460821CD2
:1031B0008363D3770022C318DA77036BE5E7000057
:1031C00030B5FF2503242A000440E400A240890111
:1031D0002940D243A140C3B200280BDA0F2003409C
:1031E000083B0A489B089B001B18D8690240114302
:1031F000D96130BD064B80088000C018C0239B00F9
:10320000C45822401143C150F3E7C04600ED00E02E
:1032100000E100E01F2318401E3B8340014A136079
:103220007047C04600E100E08022431E52040120A6
:1032300093420DD2C021074A07485360036A09062A
:103240001B021B0A0B4303620020072390601360DC
:103250007047C04610E000E000ED00E00C4A10218D
:10326000D06830B503000B40084205D0022309485E
:10327000C4692343C3610B000420D168014205D017
:103280000121044C0343E5692943E161D36030BD6A
:103290000020024020010020064B00201A6912067F
:1032A00006D5054A5A60054A5A6018690006C00FDB
:1032B0007047C0460020024023016745AB89EFCD2F
:1032C0008023034A002011690B4313617047C046F5
:1032D0000020024070B50400FFF7D8FD012605006C
:1032E000104BDA68324211D12022D968114200D045
:1032F000DA60D968102208001040114202D1DB6860
:103300005B0708D5FFF7AAFF012004E0621CE8D0A4
:10331000002C01D1032070BDFFF7B8FD401BA04277
:10332000DED9F7E700200240F0B585B003931C4BCF
:10333000019102921A7E04000220012A2ED001225D
:1033400018481A76FFF7C6FF002824D12600012C62
:1033500002D0022C00D004260024029803992201F6
:10336000FCF714FF002201270D4B0F4DDA612B698A
:10337000019A3B432B6163009B1880B21880094877
:10338000FFF7A8FF2B69BB432B61002803D1E41989
:10339000E3B29E42E1D80022014B1A7605B0F0BD9F
:1033A0002001002050C300000020024085239B0024
:1033B000C35810B5002B01D1022010BD1B689847DF
:1033C0000028FAD0F8E7852310B59B00C3585B6846
:1033D0009847002010BD000082239B0070B5C518DF
:1033E0000400280000F095FAFA2301225B00E25065
:1033F000124BE25A163BE2501033E15CEA3BFF3BD2
:103400000B40012B09D0022B0CD0002B0FD129002F
:10341000200000F0E5F8002070BD2900200000F039
:10342000F1F9F8E72900200000F008FAF3E77F231C
:103430002000994300F01EFBEDE7C0460E0200009D
:1034400070B504001500002927D1FA235B00C3588A
:10345000032B0FD1421DFF329068D36898420BD9DD
:10346000C01A9060834200D90300290020009AB25C
:1034700000F079FA002070BD85239B00E3581B699A
:10348000002B06D0FE225200A25C032A01D12000AC
:103490009847200000F06FFAECE785239B00C358A3
:1034A0009B69002BE6D0FE225200825C032AE1D108
:1034B0009847DFE7F8B50D0004001100002D41D159
:1034C000FA235B00C358022B0ED1C369066AB342CC
:1034D00013D99B1BC3619AB200F03DFA2B002A005E
:1034E0002900200000F0F9FA80239B00E25C012A09
:1034F00001D10022E2540020F8BD87693100380074
:10350000FCF738FE0D1E0CD1BE420AD8FC26760010
:10351000A3599F4205D20A00200000F01CFAA551D1
:10352000DCE785239B00E358DB68002B06D0FE22F6
:103530005200A25C032A01D120009847200000F02D
:1035400026FAD1E785239B00C3585B69002BD2D0B4
:10355000FE225200825C032ACDD129009847CAE797
:10356000002270B504001100402300F078FA230017
:103570004025FC3300225D6180212B00200000F0FB
:103580006EFAFE2301225B002562E2541C33E358ED
:10359000002B07D063682000D9B285239B00E35835
:1035A0005B689847002070BD017400207047FE23BF
:1035B00010B55B00C35C032B06D185239B00C35869
:1035C000DB69002B00D09847002010BD10B5040027
:1035D000802100F04FFA0021200000F04BFA10BDCE
:1035E00073B5040048780D00092800D97EE0FCF787
:1035F0007BFDD400F5007D00E7007D0072000A002D
:103600007D00C30095004B88180A013806286DD844
:10361000FCF756FD041F2E6C6C4A550084236A4645
:103620009B00E358207C1B68911D98476B46D98806
:103630009E1D002970D0EA88002A6DD00B1C914293
:1036400000D9131C01009AB23380200000F075F9F4
:1036500062E08523227C9B00E358002A06D19B6A06
:103660006A46901D984702234370DFE7DB6AF7E75D
:10367000D8B205283AD884229200237CA258FCF7BD
:103680001FFD03090B0D0F11526869461800063122
:103690009047CBE79268F8E7D268F6E71269F4E75B
:1036A0005269F2E79269F0E7237C002B1ED1852353
:1036B0006A469B00E358901D5B6B9847B6E7237CF6
:1036C000002B13D185236A469B00E358901D1B6B8A
:1036D00098470723C8E78B88002B07D1CB88002B9E
:1036E00004D1FE267600A35D032B03D12000FFF753
:1036F0006DFF11E07F234D8820001D408033FF3394
:10370000E554290000F0D9F9200000F034F9022333
:10371000002D00D10123A355002076BD8978384DB6
:1037200029700129E2D8FE235B00E25C022A0DD059
:10373000032ADBD1002915D102222000E254616066
:10374000FFF741FE200000F016F9E5E70029F9D067
:10375000012103226160E2542000FFF727FE0228C6
:10376000F0D1C3E761680129ECD0C9B22000FFF7AE
:103770002AFE29786160EFE7CA88012AB6D1FE23C4
:103780005B00E35C022B03D0032BAFD1211D5CE770
:1037900000232100A360083157E7FE235B00E35CB0
:1037A000023B012BA2D80123E36081239B00E35855
:1037B000002B01D00323E360210002220C3144E7F7
:1037C0004B88012BA8D181229200A35085239B0016
:1037D000E358290020009B689847B3E7FE235B006D
:1037E000E35C023B012B00D980E74B88012B00D022
:1037F00092E7812300229B00E2501033E8E7C046A5
:1038000040010020FE2370B55B00C35C04000D0086
:10381000032B0FD10B79012B0CD885239B00C358A8
:103820009B689847EB88002B02D1200000F0A3F89A
:10383000002070BD2000FFF7C9FEF9E770B50D004C
:10384000040060208A882B78D1B20340202B08D155
:10385000F533FF33E358290020009B689847002088
:1038600070BD6B78012B3BD0032B1BD0002BF6D106
:10387000FE235B00E35C022B42D0032B19D17F2592
:103880000D402D01130641D51435200000F002F93A
:10389000431E98416519286002222900200000F08B
:1038A0004CF8DCE7FE235B00E35C022B28D0032B03
:1038B00003D02000FFF78AFED1E76B88002B04D1EC
:1038C0004B0602D0200000F0D5F885239B00E3587A
:1038D000290020009B689847200000F04CF8BEE7C4
:1038E000FE235B00E35C022B0AD0032BE1D16B8843
:1038F000002BB4D14B06EFD0200000F0C3F8E4E772
:103900004B06ACD0200000F0B5F8A8E70535FF3530
:10391000BBE70B7803704B784370CA788B78120240
:103920009B1843804A790B7912029B188380CA79CD
:103930008B7912029B18C38070471300FA2210B5CE
:103940000224520084500A0083610021C36100F008
:10395000BCF8002010BD10B513000A00002100F0D3
:10396000B4F8002010BD10B513000A00002100F0CB
:10397000B4F8002010BDFA2304225B0010B5C25039
:1039800000231A00190000F0A0F8002010BDFA234F
:1039900005225B0010B5C25000231A00190000F088
:1039A0009CF8002010BD86239B00C3588220800015
:1039B00019508421890000205A50704786239B00AB
:1039C000C25810B50223002A11D08521890054580D
:1039D000013B002C0BD1535084239B00D3580C394E
:1039E000525888399BB2FF3900F06FF82300180055
:1039F00010BD0100872310B59B00ED31C058FF3189
:103A0000FFF7EAFC10BD1C234B43C318FC33DA69F3
:103A1000872310B59B00C058FFF712FD10BD1C2373
:103A20004B43C3189A6B872310B59B00C058FFF710
:103A300041FD10BD872310B59B00C058FFF7B7FDAF
:103A400010BD70B587250400AD0001214059FFF776
:103A5000ABFD6059FFF784FD70BD7047704710B52E
:103A600014001A0023008824A4000059FEF7A2F8CD
:103A7000002010BD882310B59B00C058FEF76CFADB
:103A8000002010BD882310B59B00C058FEF7B0FA87
:103A9000002010BD88239B00C35848B21C22002878
:103AA00006DA7F20014051435B182A3318787047AB
:103AB00051435B18FF33D87AF9E7882310B59B0090
:103AC000C058FEF761F8002010BD10B58824A4008E
:103AD0000059FEF7F7FA002010BD10B58824A400A5
:103AE0000059FEF79DF9002010BD000010B5084CEC
:103AF0000849A068FCF7C4FB002806D0FE216069D5
:103B00008905FCF7BDFB431E9841C0B210BDC046FD
:103B10006400002000007041F0B5A84E87B0F08826
:103B200002F0DEFA03F0AAFE0022A54B02F0E4FD4B
:103B3000A44AA54B03F052F90022A44B03F066FB04
:103B4000A34AA44B02F0D8FD03F0DAFEA24C051CF8
:103B5000A061708802F084FAA04F396802F0F6F88C
:103B6000796802F001F89E4901F076FE291C01F007
:103B70000DFD2060051CB08803F054FE0022904B20
:103B800002F0BAFD8F4A904B03F028F98D4A954B0D
:103B900003F024F903F0B4FEA060308803F042FE85
:103BA0000022874B02F0A8FD864A874B03F016F9E6
:103BB0008D4A8E4B03F012F98D4A8E4B02F09CFD1C
:103BC00000228D4B03F00AF906000F00E0688B49D4
:103BD00001F0CAFF03F052FE0B0002003900300072
:103BE00002F0B8FA03F08CFE84490290E06060684D
:103BF00001F0BAFF8249061C281C01F0B5FF011C28
:103C0000301C01F0C3FC051C6060FFF76FFF7D4BAB
:103C10001B680493002800D1CAE07B4C2368019301
:103C2000636A0198191C039302F090F80590011C37
:103C3000281CFCF725FB002869D00399019801F0A6
:103C4000A5FC011C281CFCF707FB00285FD0291CE1
:103C5000019802F07BF8A1696060061C01F084FF06
:103C6000A16801F093FCE468071C211CFCF7FEFA34
:103C7000002809D180231B06E418211C381CFCF7FE
:103C8000E1FA002800D13C1C5F4F301CF969BC6090
:103C900001F06AFF396A061C201C01F065FF011C57
:103CA000301C01F073FC02F0BDF9584B1B885843DF
:103CB000B882029803F0E2FD554A564BFCF792FA9F
:103CC000454E514C544F00285ED00599281CFCF7F6
:103CD000D7FA002809D00399019801F057FC011C7C
:103CE000281CFCF7B9FA00284ED1FA223B881201B1
:103CF00093421ED90023C82100226360A360236180
:103D0000424B89001980A282B31DDA7713E0019932
:103D1000281CFCF7A1FA0023002806D03B4A128891
:103D2000A2823E4A6260A360C3E700226360A2826F
:103D3000F9E701333B801423E75E3B1C002F00DAD8
:103D40000023FA2219B2D200914200DD131C7169DE
:103D50000298A3821DB2FCF789FA00281CD0C82360
:103D60009B009F4215DD294BADB2AA1E1A802C4B39
:103D7000ED18A5821422A35E049A5363FA23049AD1
:103D80001B01136407B0F0BD002301223B80B31D6B
:103D9000BBE70023A382EDE7FA211C4AC900138880
:103DA00064339BB28B4201D21380E3E71180E1E7D9
:103DB000049B0634E0775863E0E7C04664050020C2
:103DC00000FEAF406666666666660A400000E03F39
:103DD0007B14AE47E17A843F640000208C00002011
:103DE00000007A4466661A4025068195438BFA3FA7
:103DF000B81E85EB51B8E63FE07A843FA4707D3F62
:103E000000D7233C800800203C00002094000020C4
:103E1000FCA9F1D24D62503F9007002000004041C4
:103E2000E0FCFFFF084B10B51A68002A0BD00022F7
:103E30001A608022054C064920009200FFF7B3FD6E
:103E40002000FFF7BBFD10BDDC0900206C05002041
:103E5000640300201FB5064B03AA1380FA239B00BE
:103E60000093782102230348FCF7BCFF05B000BD96
:103E700080AFFFFF240800201FB5064B03AA138064
:103E8000FA239B000093782102230348FCF7AAFF42
:103E900005B000BD80AEFFFF24080020FA2307B55F
:103EA0009B0000937821D123024A0348FCF79AFF34
:103EB00007BDC046000900202408002010B5C0221C
:103EC0000021024800F067FE10BDC0461109002025
:103ED00007B5FFF7D1FF11220A490B4800F052FE47
:103EE000FA239B007821094A009309483023FCF704
:103EF00079FFFFF7E3FF6420FEF7CEFFFFF7AAFF8D
:103F000007BDC046E87A0008000900200000002034
:103F10002408002010B55F281BDC0F2919DC012ABA
:103F200018D10723CA171A4052185933D2105A43CE
:103F3000164B10181130164A194004D508230139C0
:103F40005B4219430131012309B28B40115C0B43E1
:103F5000135410BD002AFCD1CB17073213405B1855
:103F6000DB10593253431818084B094C11301940D3
:103F700004D5082301395B4219430131012209B2FA
:103F80008A40235C93432354E3E7C0460700008044
:103F900000090020F7B505000F001E000024019263
:103FA00039193200280009B2FFF7B4FF019B013430
:103FB000A342F5DAF7BD0000F0B585B00300039227
:103FC000602202911340104203D07F231840203812
:103FD000C3B206200024012758430E4BC318019397
:103FE0000025029BE61836B2039BE918019B09B233
:103FF0001B5D2B411A003A403B4200D03A00300092
:104000000135FFF787FF082DEED10134062CE7D1EB
:1040100005B0F0BDF97A0008F8B505000C001600EF
:104020001F002878002800D1F8BD21003B00320095
:104030000634FFF7C1FF0135E4B2F2E730B51025D1
:1040400099B02C2200210CA800F0A5FD2A00002127
:10405000684600F0A0FD1C22002104A800F09BFD92
:1040600032230B93C02301240F9511955B020E3D63
:104070000BA8149515930E94139410941794FEF7AF
:104080000FFB072301950025210068460093029548
:104090000395FEF779FD044B04A8049308950A954F
:1040A000FEF728FE19B030BD20000200F0B5A3B025
:1040B000FEF7D4FEFFF7C2FF102200211CA800F07B
:1040C0006AFD8021C84D89026A6990200A436A61AD
:1040D0006B6902260B4080210993099B6A69C9021A
:1040E0000A436A616B69C0050B4080210A930A9BF1
:1040F0006A6909030A436A616B691D960B400B9359
:104100000B9B18231BA91B93FEF7D6FE80230024CC
:104110009B01B6481BA91B931D961C94FEF7CCFE71
:10412000802301275B01B2481BA91B931C941D949B
:10413000FEF7C2FE6B6922003B436B616B69210095
:104140003B4009200893089BFFF73AF80920FFF746
:1041500061F8220021001020FFF732F81020FFF74D
:1041600059F880216B6989003B436B616B691BA81F
:104170003B400693069BAA690A43AA61AB690C22DD
:104180000B4007932100079B00F005FD994E9A4BC9
:10419000082033604023B36280237061DB0030006D
:1041A0003761F362376377637460B460F460B4615D
:1041B000F46134627462FCF743FA062080231D9098
:1041C0005B011BA930001C931B94FCF7E9FB1BA9A6
:1041D00030001B97FCF7E4FB02221BA930001B9266
:1041E000FCF7DEFB05231BA930001B93FCF7D8FB73
:1041F0003000FCF7DFF8814F814B38003B60814B8A
:10420000BC607B6001233C61FB607C61BC61FC6144
:104210003C62FCF791FD21003800FCF7FBFF210018
:104220003800FDF71DF88021AA6909010A43AA6137
:10423000AB6910AF0B4010222100380005930CAF82
:10424000059B00F0A8FC08222100380014AF00F004
:10425000A2FC1C22210038001BAF00F09CFC1C2299
:104260002100380000F097FC674F684B06203B6048
:1042700080235B01FB60802378603800BB61BC60F9
:104280003C617C61FDF700FA802310A95B013800D6
:104290001093FDF729FB3800FDF72CFA3800FDF7E5
:1042A0000EFA0CA938000C940D94FDF70BFC60235A
:1042B000220014A938001493159416941794189496
:1042C00019941A94FDF79EFA70230C22149314A9E2
:1042D000663B38001593FDF769FA8021890120912A
:1042E00038001BA91B941C941D941E941F942194A8
:1042F000FDF70AFC3800FCF727F90222EB692100E0
:104300001343EB61EB691BA8134004930E32049B2B
:1043100000F041FC3E4D3F4B28002B603E4B2C6192
:10432000EB609023FF336B60AC60AC61FDF7ACF9E0
:1043300080231BA95B0128001B93FDF7D5FAFA2205
:1043400036495200012000F0FDFA354A3549022075
:1043500000F0F8FAFA2233491201032000F0F2FAD1
:10436000032000F05BFBC8204000FEF795FDFFF73F
:10437000AFFDFFF7A3FD21003800FDF79FFB0C21E7
:104380003800FDF775FB284904223000FCF7FEF9E0
:1043900090200821C005FEF74FFEA04250D090208B
:1043A0001021C005FEF748FEA04249D001231F4C52
:1043B0001A0019002068FFF72FFE012308221900B8
:1043C0002068FFF729FEFFF769FD2820FEF764FD4E
:1043D000174B184A1A60BFF34F8F174B174ADA6012
:1043E000BFF34F8FC046FDE70010024000080048B1
:1043F0000004004894070020002401402408002005
:10440000005400400B02000080080020002C0140F6
:10441000C0080020000400400F270000881300009F
:10442000DC050000204E0000640500203400002060
:10443000F03F0020EFBEADDE00ED00E00400FA0525
:104440000123F1481A000F210068FFF7E5FDEF484E
:10445000012309220A210068FFF7DEFDFFF71EFD98
:10446000FA204000FEF718FD1422E94C10A8631D45
:10447000DA7700F055FAE51D002300280FD102ABD2
:10448000188F8005800D01F02BFEE24901F0E4F960
:104490003B2302AA9B181B7860615B065B0FEB77DE
:1044A0000734E37F002B00D1FEE1DB4A032B00D869
:1044B000DA4ADB4914A800F077FBD54E7569281C51
:1044C00001F030F884B2B06803F0D8F900F090FF42
:1044D000060020000F0001F0C3FD011C281C01F0A4
:1044E00035FCD04901F040FB01F01CF883B2281CD8
:1044F000029303F0C3F932003B0002F06FFC01F0BD
:1045000029F880B200902200029BC7491BA800F046
:104510004BFBFFF7D3FC01230A211A0014A8FFF775
:104520007BFD012309220A211BA8FFF775FDFFF778
:10453000B5FCFA208000FEF7AFFCFA208000FEF701
:10454000ABFCBA48BA4B036000234360B94BC3606D
:104550008360FCF7A9FEB84BB84C1888C8235B00F1
:10456000984200D3A9E101F0BBFD20600125322073
:10457000FEF792FC90200821C005FEF75DFDA44CDB
:104580001021A0779020C005FEF756FD802106007F
:104590008901AB48FEF750FD0643F6B2A74F667798
:1045A000012E08D13868A74901F0D0FB38602820D7
:1045B0002677FEF771FCA67F012E08D13868A14945
:1045C00000F0E4FF386028202677FEF765FC3E689F
:1045D0009D49301CFBF74AFE002800D070E19B4942
:1045E000301CFBF72FFE002800D06BE13E60237FDC
:1045F000012B2BD1FEF750FE0222954B19690A437D
:104600001A618D4A5A61402219690A431A61DA68AF
:1046100016002E402A42FAD12022D968114212D027
:10462000D96838680A430221DA601A698A431A6134
:1046300000F078FF330082B27F492800FEF774FE55
:10464000FEF73EFE26770C230534E377814C0B22E0
:1046500021000CA800F096FA332002ABC018032208
:10466000002100F098FA21000B2210A800F08AFA2D
:10467000432002ABC0180322002100F08CFA210075
:104680000B2214A800F07EFA532002ABC0180322BC
:10469000002100F080FA21000B221BA800F072FA22
:1046A0006F2002AB03220021C01800F074FA634BA4
:1046B000186800F037FF684982B20CA800F074FA5D
:1046C000534C6768381C00F02DFF86B2300001F0B3
:1046D000C7FC011C381C01F039FB524901F044FAB7
:1046E00000F020FF320083B25C4910A800F05CFAB1
:1046F000A768381C00F016FF86B2300001F0B0FC4D
:10470000011C381C01F022FB464901F02DFA00F093
:1047100009FF320083B2524914A800F045FA276914
:10472000381C00F0FFFE86B2300001F099FC011C3D
:10473000381C01F00BFB3B4901F016FA00F0F2FEC9
:10474000320083B247491BA800F02EFAFFF7B6FBF0
:104750002B002A000A210CA8FFF75EFC2B0009227F
:104760000A2110A8FFF758FC2B002A003C2114A8AE
:10477000FFF752FC621DD37F002B00D0A4E02B007A
:104780002A000A211BA8FFF747FC3749206901F0DE
:10479000EBF903F073F80600E0680F0003F06EF821
:1047A0000022324B02F01AFB0B00020039003000ED
:1047B00001F0D0FC03F0A4F8A31D2061DB7F002BE7
:1047C00000D18AE02849206A01F0CEF903F056F8BA
:1047D0001A4B029003912649586801F0C5F9254902
:1047E000061CFBF743FD002871D10021301CFBF7AC
:1047F00029FD00286ED1301C03F040F800221B4B2D
:1048000002F0ECFA38E0C04638000020300000200A
:10481000640000200000C842507A0008577A00085F
:104820006B7A000800002041757A000870080020AB
:1048300000300040FF0F000000E400083C000020B2
:10484000000800480000A0400000C8430000A0414C
:1048500000200240207A00089F7A0008A77A00080A
:10486000AF7A0008B77A00086666663F9A99B93F42
:10487000000040400000F041029A039B01F06AFCF6
:1048800003F03EF800262062206A01F0CBFB86424E
:104890002EDC300008223C302B00110000B2013623
:1048A000FFF778FBB6B2EFE7144914A800F09CF9C3
:1048B00013491BA800F098F92BE6124B236055E62C
:1048C000114E93E6114E91E6013BD3775DE7002050
:1048D0000F4993E70020002190E70734E37F0D485C
:1048E000002B00D10C482B0009223C21FFF794FB40
:1048F000FFF7D4FA0948FCF703FD38E6857A00088B
:10490000917A000800005C430000C8430000A04109
:1049100000003E405F7A0008657A000870080020B9
:104920001FB5FA239B000293042300900193912268
:104930005021033B0248FCF7A9FB05B000BDC0466F
:1049400024080020FA23F0B59B0093B002930C23B7
:104950002D4F08AC059006910792502101930094C9
:104960000B3B85223800FCF791FB2300274C0321E9
:1049700025005A781E78120292199E780139360461
:104980009219DE78C9B236069219226004330834CF
:104990000029EED1059B5C1EE3B2022B25D80798B7
:1049A0000A31FBF7ABFBE6008005830DA85B800AAC
:1049B00080021843059BA853012B18D1AD192B6811
:1049C000134A1A40134B13432B60FA239B000293A4
:1049D000042301930D4BA2009E198532012350211F
:1049E000380092B20096FCF791FA13B0F0BD069829
:1049F0003221FBF783FB8005AA59030B06481040C0
:104A00001843A851E1E7C04624080020E00900202F
:104A1000FF03F0F700900108FF03F0FF7FB51722B6
:104A20006A4403001070FF20032B0AD8FA239B006E
:104A30000293012300925021702203480193FCF756
:104A400065FA07B000BDC0462408002080B51A4BA7
:104A50001A4A196800AF91420AD1194A1A60194BD3
:104A600083F30888184B194A1B6813609847FEE7C0
:104A70000121174B17481A68BD460A431A605A6845
:104A800002405A601A68144802401A601A681348B3
:104A900002401A605A68124802400F205A60DA6ACF
:104AA0008243DA621A6B0F4802401A635A6B8A43D8
:104AB0005A6300229A6080BDF03F0020EFBEADDE59
:104AC000EDFEFECA5022002004C8FF1FF809002096
:104AD000001002400CB8FF08FFFFF6FEFFFFFBFFCF
:104AE000FFFFC0FF2CFEFCFF0D4885460D480E4918
:104AF0000E4A002302E0D458C4500433C4188C4238
:104B0000F9D30B4A0B4C002301E013600432A2429C
:104B1000FBD3FFF79BFF00F011F8FFF7C7FAFEE7A2
:104B2000004000200000002000010020847D0008DB
:104B300000010020180A0020FEE7000070B50026E2
:104B40000C4D0D4C641BA410A64209D1002602F0A6
:104B50005BFF0A4D0A4C641BA410A64205D170BD30
:104B6000B300EB5898470136EEE7B300EB5898478F
:104B70000136F2E77C7D00087C7D00087C7D000822
:104B8000807D0008002310B59A4200D110BDCC5C96
:104B9000C4540133F8E703008218934200D17047F0
:104BA00019700133F9E700000EB400B50B499CB051
:104BB0001DAB02900690079104910948094904CB66
:104BC0000591006802A9019300F07AF80023029A87
:104BD00013701CB008BC03B01847C046FFFFFF7F2E
:104BE0009C0000200802FFFF03000A7801311A70C0
:104BF0000133002AF9D1704770477047F0B58E68CD
:104C000085B007000C00039201939E423CD890238C
:104C10008A89DB001A4234D00325096923685B1AAC
:104C20000293636902985D43EB0F5D19019B6D1060
:104C300001331B18AB4200D91D00530532D52900A2
:104C4000380000F027FB061E09D10C233B604023EF
:104C50000120A28940421343A38105B0F0BD029A0E
:104C60002169FFF78FFFA389144A1A408023134359
:104C7000A381029B2661F61826606561019EED1AEC
:104C8000A560019B9E4200D9019E320003992068D5
:104C900000F0A3FAA36800209B1BA36023689E1961
:104CA0002660DAE72A00380000F052FB061EE0D149
:104CB0003800216900F0A4FAC7E7C0467FFBFFFF78
:104CC000F0B5A1B003901D008B890F0016001B06E4
:104CD00011D50B69002B0ED1402100F0DBFA3860B2
:104CE0003861002805D10C23039A0138136021B0E4
:104CF000F0BD40237B61002308AC63612033637601
:104D00001033A376079535002B78002B01D0252B87
:104D100047D1AB1B0593B5420CD032003900039844
:104D2000FFF76CFF431C00D1AEE06269059B94461F
:104D3000634463612B78002B00D1A5E0012200239E
:104D40005242626004A9543252186E1C2360E36020
:104D5000A3601370A36505223178544800F032FA3D
:104D6000751C00281FD12268D30604D5532304A93B
:104D70005B1820211970130704D5532304A95B186D
:104D80002B21197033782A2B16D0350000210A20E8
:104D9000E3682A786E1C303A092A4ED9002911D1CD
:104DA00017E00135B0E7414B2268C01A0123834068
:104DB00013432E002360CEE7079B191D1B68079144
:104DC000002B01DB0B9304E05B42E36002231343FF
:104DD00023602B782E2B0AD16B782A2B35D1079B99
:104DE00002351A1D1B680792002B2BDB0993304EEE
:104DF00003223000297800F0E5F9002806D040238E
:104E0000801B8340226801351343236029780622E2
:104E100028486E1C217600F0D5F900283CD0264B9E
:104E2000002B25D10722079B0733934308330793B1
:104E30006369049A9B18636165E743433500012168
:104E40009B18A6E701235B42D0E700230A201A0043
:104E50000135636029786E1C3039092903D9002B8C
:104E6000C5D00992C3E74243350001235218F1E748
:104E700007AB00933A002100104B039800E000BFFD
:104E80000490049B0133D3D1BB890D985B0600D4F9
:104E90002DE7012040422AE707AB00933A002100AA
:104EA000064B039800F07CF8EAE7C046497D00080D
:104EB0004F7D0008537D000800000000FD4B0008F6
:104EC000F7B5150001938A680B690C0000909342B6
:104ED00000DA130022002B6043321278002A01D03E
:104EE00001332B6023689B0602D52B6802332B60AD
:104EF0002268062317001F401A4227D0230043339D
:104F00001B785A1E93412268920630D422000199E0
:104F10000098089E4332B047431C25D006232068E2
:104F20002A68E16800250340042B03D18D1AEB4366
:104F3000DB171D40A3682269934201DD9B1AED181F
:104F40000027BD4220D1002010E00137E3682A6825
:104F50009B1ABB42D2DD2200012301990098089ED2
:104F60001932B047431CF0D101204042FEBD302031
:104F7000E1184331087021005A1C45310978A21804
:104F8000433202331170C1E72200012301990098D6
:104F9000089E1A32B047431CE6D00137D1E7000023
:104FA000F0B58BB006920A00433207930590049245
:104FB0000A7E0C00109B782A06D8622A08D8002A9C
:104FC00000D1C0E0582A52D026004236327022E08A
:104FD000100063381528F7D8FBF77CF816001F007F
:104FE000F6FFF6FFF6FFF6FF1F00F6FFF6FFF6FFEF
:104FF000F6FFA80036009A00F6FFF6FFB900F6FFAC
:105000003600F6FFF6FF9E0026001A684236111D94
:105010001960136833700123A7E0086819680A1D36
:1050200005060BD50D681A60002D03DA2D23049AAE
:105030006D421370614B0A27039332E00D681A60CA
:105040004106F1D52DB2EFE70D681968081D18600B
:105050002E0601D50D6803E06D06FBD50D68ADB2D7
:10506000564B0A2703936F2A17D1082715E04531BD
:105070000A70524A03921A68216820CA1A60080608
:1050800050D5CB0702D52023194321601027002DCE
:1050900003D1202322689A43226023000022433355
:1050A0001A706368A360002B03DB0422216891431C
:1050B0002160002D02D1049E002B0CD0049E2800FC
:1050C0003900FBF757F8039B013E5B5C33702B0004
:1050D00005009F42F3D9082F09D12368DB0706D5C5
:1050E00063682269934202DC3023013E3370049BE3
:1050F0009B1B2361079B210000930598069B09AA2F
:10510000FFF7DEFE431C35D1012040420BB0F0BD5D
:10511000202209680A43226022007821453211705A
:10512000274AA7E74806ACD5ADB2AAE71A680D68CA
:10513000101D4969186013682E0601D5196002E038
:105140006D06FBD519800023049E2361D2E71A68FF
:10515000111D1960166800213000626800F032F8F5
:10516000002801D0801B6060636823610023049ADB
:105170001370BFE72369320006990598079DA84779
:10518000431CC1D023689B0715D4099BE068984253
:10519000BCDA1800BAE72200012306990598079E99
:1051A0001932B047431CAFD00135E368099A9B1A06
:1051B000AB42F0DCE9E70025F7E7C0465A7D00087E
:1051C0006B7D0008C9B28218904201D1002070475F
:1051D00003788B42FBD00130F6E710B5884202D944
:1051E0008B18984203D3002307E08B5C8354013A69
:1051F000FBD210BDCC5CC45401339A42FAD1F8E71B
:1052000070B50500002910D00C1F2368002B00DAB0
:10521000E418280000F0D4F81D4A1368002B05D1CB
:1052200063601460280000F0D3F870BDA34208D971
:10523000216860188342F3D118685B6841182160C7
:10524000EEE71A005B68002B01D0A342F9D9116880
:105250005018A0420BD120680918501811608342E1
:10526000E0D118685B68411811605360DAE7A0422A
:1052700002D90C232B60D5E721686018834203D143
:1052800018685B684118216063605460CAE7C046D3
:10529000FC090020F8B50323CD1C9D43083506000A
:1052A0000C2D1FD20C25A9421ED8300000F088F822
:1052B00025490A681400002C1AD1244F3B68002BA2
:1052C00004D12100300000F069F838602900300076
:1052D00000F064F8431C2BD10C233000336000F045
:1052E00077F803E0002DDEDA0C2333600020F8BDF0
:1052F00023685B1B19D40B2B03D92360E4182560AA
:1053000003E06368A2420ED10B60300000F060F849
:10531000200007220B30231D9043C21A9842E6D08A
:105320001B1AA350E3E75360EFE722006468C2E76B
:105330000323C41C9C43A042E1D0211A300000F09A
:105340002DF8431CDBD1C7E7FC090020000A002030
:10535000F8B507000D001600002905D11100FFF770
:1053600099FF04002000F8BD002A03D1FFF748FF91
:105370003400F7E700F034F82C00B042F2D23100EC
:105380003800FFF787FF041EECD029003200FFF73A
:10539000F9FB29003800FFF733FFE3E7002370B57E
:1053A000064D040008002B6000F0AEF8431C03D14A
:1053B0002B68002B00D0236070BDC046140A00206B
:1053C00010B50248FFF718FC10BDC0460C0A0020BB
:1053D00010B50248FFF711FC10BDC0460C0A0020B2
:1053E0000B1F1B68181F002B01DA0B58C0187047E1
:1053F0003F4AF8B5474690464B005B0D9844CE4671
:10540000424680B505000C000E000700132A35DC6B
:10541000002A21DB374B134199460B40034315D03B
:10542000354A364B00F096FE00220023FAF7E4FEE0
:10543000002809D0002C04DD8026434676031E4157
:1054400036194B4600279E433D00340028002100BA
:105450000CBC90469946F8BD274A284B00F07AFECE
:1054600000220023FAF7C8FE0028EDD0002C38DB1C
:10547000002700262C43E7D0214EE5E7332A0ADD3A
:105480008023DB009845E1D102000B0000F062FEB2
:1054900005000C00DAE71B4A94460122634452429D
:1054A000DA4091460242D1D0134A144B00F052FE2A
:1054B00000220023FAF7A0FE0028C5D0002C0BDD47
:1054C0004346142B0BD03422D21A012393405D198A
:1054D000BD420AD22F00661C4B469F43B4E7661CB0
:1054E000FAE7802600273606AEE72F00F4E7C0462D
:1054F00001FCFFFFFFFF0F009C7500883CE4377E36
:105500000000F03FEDFBFFFF044A03001068002895
:1055100002D0C318136070470148FAE7040A00205C
:10552000180A00209E2110B5C905041CFAF7A8FE30
:1055300000280AD09E21201CC90500F007FC00F0BD
:1055400071FD80231B06C01810BD201C00F06AFDF1
:10555000FAE7000070B500220B4B04000D00FAF7CB
:1055600055FE00280BD0084B00222000290001F036
:105570004DFE02F025F980231B06C01870BD2000E7
:10558000290002F01DF9F9E70000E041F7B5802796
:1055900043025A0A44004E0094464A02240EC50FA4
:1055A000360E500A01909B09C90F9209A01BFF04F7
:1055B0008D4200D09AE000282BDD002E18D1002A61
:1055C00000D13AE1461E01280ED101249B185A0150
:1055D00054D50134FF2C00D12DE101229C491A4001
:1055E0005B080B40134349E0FF2805D1FF2445E049
:1055F000FF2C43D006003A4301211B2E07DC11008B
:105600002020F140861BB240501E824111435B189E
:10561000DDE7002821D0311B002C0CD1002B00D15C
:1056200004E1481E012902D19B180134CFE7FF296C
:1056300005D11300DAE7FF2EFBD008003B43012120
:105640001B2807DC19002024C140201A8340581E63
:105650008341194334008B18B9E7FE26611C31429F
:105660003ED1002C2BD1002B00D1E1E0002A05D047
:105670009B183B4202D0774A13400C005A0704D0D3
:105680000F221A40042A00D004335A0105D50134F0
:10569000FF2C00D1DAE06F4A1340DB08FF2C04D165
:1056A000002B02D08022D2031343E005FF24E4053F
:1056B0005B0220405B0A0343E8071843FEBD002B52
:1056C000B7D0FF24002AD9D080236246DB031A42D8
:1056D00003D0019A1A4200D194466346DB0085E765
:1056E000FF2900D1A6E09B185B08C6E7002823DD50
:1056F000002E1CD1002A00D19FE0461E012802D1B5
:105700009B1A01240EE0FF2800D16FE701211B2E18
:1057100007DC11002020F140861BB240501E824160
:1057200011435B1A5A01A9D59B019E0961E0FF2C28
:10573000A4D006003A43E9E7002822D0301B002C11
:105740000CD1002B07D0441E012802D10D00D31A22
:10575000D7E7FF2806D1130004001FE0FF2E6ED00C
:1057600004003B4301201B2C07DC18002025E040EF
:105770002C1BA3405C1EA341184334000D00131AD8
:10578000D0E7FE26601C30422ED1002C14D1002B15
:1057900006D11D00002A00D170E713000D006DE74F
:1057A000002A00D16AE7981AD31A3842F6D1031EAC
:1057B00000D063E71D0061E7002B04D1002A41D02F
:1057C00013000D0012E7FF24002A00D156E78023C2
:1057D0006246DB031A4200D17FE7019A1A4200D0E9
:1057E0007BE794460D0078E79E1A3E4215D00D00E7
:1057F000D61A3000FAF74EFD05388640844211DC97
:10580000001B3200202433000130C240201A8340A4
:10581000591E8B410024134330E7002EE9D1330099
:105820003400C7E70B4B241A334027E7130024E763
:10583000130023E70C00002320E704001EE71300F9
:105840003400ABE71D0080239B04CFE6002324E750
:10585000FFFFFF7DFFFFFFFBF0B5C30F85B04402E4
:1058600045000F1C640A2D0E039302930AD0FF2DEE
:105870003BD08023E400DB041C4300237F3D0195E3
:1058800000930EE0012301940093002C09D0200026
:10589000FAF700FD431F9C4076235B421B1A0193DD
:1058A00000957D027E006D0A360EFF0F002E23D07C
:1058B000FF2E2ED08023ED00DB041D4333007F3B01
:1058C000002201980399C31A009879408000104380
:1058D00001380E2831D8FAF7F3FB5B9D6F9D989D38
:1058E0006F5B5B986F222222610002230195009377
:1058F000002CD6D00133C3E72B000122002DE0D0CD
:105900002800FAF7C7FC431F9D4076235B421B1A11
:10591000D6E733000222002DD3D00132D1E703991C
:10592000009A00200500012A64D082421CD0022A7D
:105930002ED0032A18D1029138E064016D01AC42E7
:1059400028D31A200122641B01262700520064007C
:10595000002F01DBA54201D8641B32430138002827
:10596000F3D1601E844114431D007F35002D26DDD8
:10597000620704D00F222240042A00D004342201FE
:1059800003D580331D00264A1440E008FE2D31DD8A
:1059900000200FE01B200022013BD5E78023DB0322
:1059A0001C4203D01D4201D12C0002978020029995
:1059B000C0032043FF251DE02C003900B1E7012280
:1059C0000020521B05001B2A14DC9E3320009C4043
:1059D000D040631E9C412043430704D00F23034063
:1059E000042B00D0043080230500DB041D40184246
:1059F00013D1C008FF23ED05DB0540021D40400A1E
:105A00002843C907084305B0F0BD80240023E40300
:105A10000293CBE700200500ECE700200125E9E731
:105A2000FFFFFFF770B54B00440245004E02C20F66
:105A3000640A01202D0E760A1B0EC90FFF2D06D118
:105A4000002C13D1FF2B11D1002E06D00EE0FF2B1E
:105A50000CD09D420AD1B44208D100208A4205D020
:105A60000130002D02D12000431E984170BD30B599
:105A70004A02440245004B00640A2D0EC00F520A30
:105A80001B0EC90FFF2D04D1002C27D0022040424D
:105A90001BE0FF2B01D1002AF8D1002D20D1002BD3
:105AA00001D1002A17D0002C07D0884201D19D4295
:105AB00007DD002803D1012007E0081E05D10120E1
:105AC000E5E79D4202DA0028F9D030BD9442F0D8D3
:105AD000F9D30020F9E7002CFBD0EAE7FF2BDAD05E
