:020000040800F2
:100000000040002089520008010300080303000893
:1000100000000000000000000000000000000000E0
:1000200000000000000000000000000005030008C0
:10003000000000000000000007030008090300089A
:10004000D9520008D9520008D9520008D9520008E4
:10005000D9520008D9520008D9520008D9520008D4
:10006000D952000831030008D9520008D9520008BB
:10007000210300084503000855030008D952000871
:1000800065030008D9520008D9520008D952000867
:10009000D9520008D9520008D9520008D952000894
:1000A000D9520008D9520008D9520008D952000884
:1000B000D9520008D9520008D9520008110300088B
:1000C00003B47146490840004900095E49008E4466
:1000D00003BC7047002934D00123002210B48842A9
:1000E0002CD301242407A14204D2814202D2090167
:1000F0001B01F8E7E400A14204D2814202D2490088
:100100005B00F8E7884201D3401A1A434C08A0422A
:1001100002D3001B5C0822438C08A04202D3001BC0
:100120009C082243CC08A04202D3001BDC082243D7
:10013000002803D01B0901D00909E3E7100010BC17
:10014000704701B5002000F00BF802BD0029F8D07F
:1001500003B5FFF7C1FF0EBC4243891A1847C046DA
:100160007047C0468446100062468C4619006346BC
:1001700000E0C0461FB507F0F5F8002801D40021C3
:10018000C8421FBD10B507F057F84042013010BDFE
:1001900010B507F0E7F8002801DB002010BD0120B2
:1001A00010BDC04610B507F0DDF8002801DD0020C5
:1001B00010BD012010BDC04610B507F077F800282B
:1001C00001DC002010BD012010BDC04610B507F0B5
:1001D0006DF8002801DA002010BD012010BDC046D6
:1001E000844608006146FFE71FB505F09EFF002822
:1001F00001D40021C8421FBD10B505F033FF4042B5
:10020000013010BD10B505F090FF002801DB002083
:1002100010BD012010BDC04610B505F086FF0028B6
:1002200001DD002010BD012010BDC04610B505F055
:100230003EFF002801DC002010BD012010BDC0469B
:1002400010B505F034FF002801DA002010BD0120B0
:1002500010BDC04602B4714649084900095C490016
:100260008E4402BC7047C04603B471464908400042
:100270004900095A49008E4403BC70471C210123E0
:100280001B04984201D3000C10391B0A984201D379
:10029000000A08391B09984201D30009043902A257
:1002A000105C40187047C0460403020201010101BE
:1002B000000000000000000010B5064C2378002B61
:1002C00007D1054B002B02D0044800E000BF0123FA
:1002D000237010BD1801002000000000E47F00081A
:1002E000044B10B5002B03D00349044800E000BFC5
:1002F00010BDC046000000001C010020E47F000883
:100300007047FEE77047704710B503F02DF810BD39
:1003100010B5024802F036FB10BDC0465C0100205B
:1003200010B5024800F0F8FA10BDC046B007002032
:1003300010B5034803F0ADF904F058F910BDC046FC
:10034000FC07002010B5024801F0A9F810BDC04616
:100350009C08002010B5024801F0A1F810BDC0466D
:100360009C08002010B5024801F099F810BDC04665
:10037000DC08002082B00A4B99690122114399617F
:1003800099690A400092009ADA69802149050A4376
:10039000DA61DB690B400193019B02B07047C046F4
:1003A0000010024030B589B004001422002103A8D7
:1003B00004F0B8FF1D4B22689A4201D009B030BD4D
:1003C0001B4B996980208000014399619A69024022
:1003D0000192019A5A69802189020A435A615B6934
:1003E0000B400293029B27230393243B0493713811
:1003F000FF3803A9C00502F0D7FF0E4D0E4B2B604E
:1004000000236B60AB608033EB6080332B61802313
:10041000DB006B612023AB6180239B01EB61280033
:1004200003F0D0F8E5636C62C8E7C04600240140E1
:1004300000100240FC0700200800024010B58AB0FE
:1004400004001422002105A804F06CFF2368254A4B
:10045000934204D0244A934222D00AB010BD234CC8
:1004600062698021C9020A43626163690B4001939A
:10047000019BC0230593AE3B0693113B07930322D8
:100480000892099305A91A4802F08EFFE2698021BB
:1004900089030A43E261E3690B400293029BDCE7B4
:1004A000124C62698021C9020A43626163690B4090
:1004B0000393039BC0231B01059312230693113B57
:1004C000079303220892099305A9094802F06CFFDB
:1004D000E2698021C9030A43E261E3690B400493A6
:1004E000049BBAE70054004000580040001002404E
:1004F0000004004800B583B00268104B9A4201D056
:1005000003B000BD0E4A9169802000010143916152
:10051000936903400193019B002200210D2003F009
:100520000DF90D2003F03AF9002200210E2003F00E
:1005300005F90E2003F032F9E2E7C046002C014035
:100540000010024010B588B004001422002103A856
:1005500004F0E8FE2268124B9A4201D008B010BDA8
:10056000104B996980200001014399619A6902400A
:100570000192019A5A69802189020A435A615B6992
:100580000B400293029B80235B000393FE3B04938A
:100590000793902003A9C00502F006FFDEE7C046DE
:1005A000002C01400010024030B583B0040000234D
:1005B00001930368996803220A40012A14D09968BC
:1005C000204A114218D19A6801210A439A601E4BB1
:1005D00018681E49FFF77EFD0190019B002B16D085
:1005E000019B013B0193F8E71A68D20727D4DA6828
:1005F0001204E4D5002008E0636C10221343636406
:10060000A36C0F3A1343A364012003B030BD02F082
:10061000B3FE050023681B68DB070ED402F0ACFEB6
:10062000401B0228F6D9636C102213436364A36C49
:100630000F3A1343A3640120E7E70020E5E7002019
:10064000E3E7C04617000080AC00002040420F00E6
:1006500070B5041E00D1B2E0436C002B7FD0636CF8
:10066000DB0600D5A5E022689168042005000D4056
:10067000084200D09DE0616C524B19400633FF33B5
:1006800019436164916801330B40012B6DD0D3682D
:1006900018218B43A1680B43D360226813699B0028
:1006A0009B0861680B4313612268D36846490B407D
:1006B000D360A3699B03E269D2031343216A4A030F
:1006C0001343626B012A57D0802252011343E26820
:1006D00013432269022A51D02B43226B5200134349
:1006E000626A012A4CD0A26AC221FF318A4202D03A
:1006F000E16A0A4313432168CA681A43CA60A26BBD
:10070000802149058A420DD0012A0BD0022A09D046
:10071000032A07D0042A05D0052A03D0062A01D0CF
:10072000072A0AD120684169072291434161206864
:100730004169A56B2A400A4342612268D268234975
:100740000A409A422BD0636C12229343023A13431D
:100750006364A36C0F3A1343A36401202EE0836407
:1007600040228354FFF71EFE79E71368DB079BD412
:10077000D3681B0498D48AE72A00A7E70425ABE7CF
:10078000002903D1802252021343ACE7626C20217E
:100790000A436264A26C1F390A43A264A3E70023E0
:1007A000A364636C03229343023A134363640020FF
:1007B00004E0636C102213436364012070BD0120C8
:1007C000FCE7C046FDFEFFFF1902FEFFE7FF3F8387
:1007D000F8B504000D00160003689B685B073ED463
:1007E0004023C35C012B3CD040230122C254C36987
:1007F000012B04D0FFF7D8FE071E2ED100E0002702
:10080000636C194A1A4080235B001343636400231E
:10081000A3644022A354E36B144A9A62E36B144A24
:10082000DA62E36B134A1A6323681C221A60226897
:10083000536810210B4353602268D3680F390B4370
:10084000D3602168403133002A00E06B02F0E6FEFD
:100850002268936804210B4393603800F8BD022797
:10086000FBE70227F9E7C046FEF0FFFF7D0800081E
:10087000EF080008FD0800087047000010B5436A43
:100880005A6C502111422BD1596C802292000A439C
:100890005A641A68D068C0210901084213D1196A44
:1008A000002910D1116809070DD5916849070ED4A8
:1008B00051680C20814351605A6C0B490A40043145
:1008C000FF310A435A641800FFF7D6FF10BD5A6C77
:1008D00020210A435A649A6C1F390A439A64F2E74A
:1008E000DB6B1B6B9847F1E7FEFEFFFF704710B50F
:1008F000406AFFF7FBFF10BD7047704710B5406AB4
:10090000436C402213434364836C3C3A1343836437
:10091000FFF7F3FF10BD000010B5040003681A686C
:10092000520702D55A68520705D41A68120729D50A
:100930005A68120726D5626CD20604D4616C8022F4
:1009400092000A436264D968C0221201114213D195
:10095000226A002A10D11A6812070DD59A68520728
:1009600031D45A680C218A435A60636C204A134080
:100970000432FF32134363642000FFF77DFF2368D6
:100980000C221A6023681A68120602D55B681B06DF
:1009900022D423681A68D20614D55A68D20611D513
:1009A000626B012A02D0DA68D20708D5A26C022154
:1009B0000A43A26410221A602000FFF79EFF2368FA
:1009C00010221A6010BD636C202213436364A36C71
:1009D0001F3A1343A364CFE7626C80235B02134387
:1009E00063642000FFF788FF236880221A60D0E745
:1009F000FEFEFFFF30B583B00400002301934033B7
:100A0000C35C012B00D18AE040230122C254036859
:100A10009A68520775D4434A4868904256D09A6AF9
:100A200001200D68A84002439A62A36B8022520500
:100A300093421ED0012B1CD0022B1AD0032B18D0AE
:100A4000042B16D0052B14D0062B12D0072B10D058
:100A500022685069072303408868984209D050698A
:100A6000072398435061206842698D682B401343E7
:100A700043610B681A00103A022A4CD82A4A1268BD
:100A8000102B0ED0112B09D080235B041343264A70
:100A900013600B68102B07D0002037E08023DB03A6
:100AA000F4E780231B04F1E7204B18682049FFF787
:100AB00011FB83001B185B00019302E0019B013BCB
:100AC0000193019B002BF9D100201FE09A6A0120BD
:100AD0000D68A84082439A620B681A00103A022AF5
:100AE0001BD8114A1268102B09D0112B05D0114BBD
:100AF00013400D4A1360002008E00F4BF8E70F4B3E
:100B0000F6E7436C20221343436401204023002274
:100B1000E25403B030BD0020F8E70020F6E70220E1
:100B2000F7E7C0460110000008270140AC00002094
:100B300040420F00FFFFFFFEFFFFBFFFFFFF7FFFF1
:100B400003689A69920701D500229A6203689A693C
:100B5000D20703D49A6901210A439A6170470000C1
:100B600030B504686068064D28408905890D120477
:100B700011431943039B19430143616030BDC046D3
:100B8000009800FCF8B505000F00160003689B698B
:100B9000DB0601D40020F8BD2B689C69A20612D4A4
:100BA0007B1CF9D0002F04D002F0E6FB801BB8427A
:100BB000F2D941232022EA5400232232AB54023AD4
:100BC000AB540320E7E71022DA612B682024DC61B4
:100BD0002800FFF7B5FF2A68536807490B405360A8
:100BE00004236B643D33EC5400234222AB54023A9D
:100BF000AB540120CFE7C04600E800FE70B504000A
:100C00000D00160023689B699B071CD43200290045
:100C10002000FFF7B7FF002817D16B1CF2D0002D82
:100C200004D002F0A9FB801BA842EBD9636C202200
:100C3000134363644123E25400232232A354023A53
:100C4000A354032000E0002070BD0120FCE7F0B5B4
:100C5000C64600B507000D0090461E003B689C6923
:100C60002C40641B63425C41444513D1731CF5D096
:100C7000002E05D002F080FB069BC01AB042EDD9D1
:100C800041232022FA5400232232BB54023ABB549F
:100C9000032000E0002080BCB846F0BD70B582B0F3
:100CA000040016001D00DAB280239B01009300238C
:100CB000FFF756FF079A06992000FFF79FFF0028CD
:100CC00006D0636C042B01D0032010E001200EE05D
:100CD000012D0ED12368F6B29E62079B0093069BFE
:100CE000002240212000FFF7B2FF002816D102B0F9
:100CF00070BD2368320A9A62079A06992000FFF7AE
:100D00007DFF002806D0636C042B01D00320EEE7A2
:100D10000120ECE72368F6B29E62DEE70320E6E7F7
:100D200070B505000C0016002B689B699B061AD451
:100D3000320021002800FFF725FF002815D1002CE4
:100D400004D002F019FB801BA042EDD96B6C20226D
:100D500013436B644123EA5400232232AB54023A1A
:100D6000AB54032070BD0020FCE70120FAE700002F
:100D700010B5041E59D04123C35C002B43D041233E
:100D80002422E2542268136801218B4313602268F5
:100D9000274B61680B4013612268936825490B401B
:100DA0009360E368012B34D0226884231B02A1687E
:100DB0000B439360E368022B32D0226851681E4BCC
:100DC0000B4353602268D3681A490B40D3602369F0
:100DD00062691343A269120221681343CB6022683F
:100DE000E369216A0B4313602268136801210B43F6
:100DF00013600023636441221F31A1542363013235
:100E0000A354002010BD40330022C254FFF716FB4C
:100E1000B5E7226880231B02A1680B439360C9E7F2
:100E20002368802212015A60C7E70120EAE7C04622
:100E3000FFFFFFF0FF7FFFFF00800002F0B585B0ED
:100E400004000F00029203930A9E4123C35C202BEF
:100E500000D0AAE02033C35C012B00D1A8E04023DE
:100E60000122C25402F088FA050080210090192363
:100E7000012209022000FFF7EAFE002800D099E0D5
:100E800041232122E2540133113AE25400236364E6
:100E9000029A6262039A62856363638D9BB2FF2B41
:100EA0000CD9FF2323857F3B8022920100925B04B3
:100EB000FF2239002000FFF753FE20E0628D92B23E
:100EC00022858023D2B28021890100919B043900C0
:100ED0002000FFF745FE12E0636C042B01D00320D5
:100EE00064E0012062E0628D92B222858023D2B25A
:100EF000002100919B0439002000FFF731FE638D33
:100F00009BB2002B33D02A0031002000FFF776FE81
:100F10000028E1D1636A5A1C626222681B789362DE
:100F2000638D013B9BB26385238D013B9BB223857F
:100F3000002BE4D1638D9BB2002BE0D000953300F1
:100F4000002280212000FFF782FE002834D1638D2B
:100F50009BB2FF2BC7D9FF2323857F3B0022009242
:100F60005B04FF3239002000FFF7FAFDC7E72A00D3
:100F700031002000FFF7D4FE002806D0636C042B5C
:100F800001D0032012E0012010E023682022DA6162
:100F900021684B68094D2B404B604123E2540023EC
:100FA0002232A354023AA35400E0022005B0F0BD5F
:100FB0000220FBE70320F9E70320F7E700E800FE43
:100FC000F0B587B004000391049205930CAB20CBDD
:100FD0001F884123C35C202B00D0C1E0002D00D12D
:100FE000C1E0002F00D1C0E02033C35C012B00D151
:100FF000BDE040230122C25402F0BEF90600802168
:1010000000901923012209022000FFF720FE00288A
:1010100000D0AEE041232222E25401331E32E254DA
:101020000023636465626785636301960E98009090
:10103000059B049A03992000FFF730FE00280CD08E
:10104000636C042B04D040230022E254032088E088
:101050003C330022E254012083E0638D9BB2FF2BDE
:101060000CD9FF2323857F3B9022920100925B04E1
:10107000FF2203992000FFF773FD1DE0628D92B2FD
:1010800022858023D2B29021890100919B0403998B
:101090002000FFF765FD0FE0628D92B2228580236C
:1010A000D2B2002100919B0403992000FFF758FD64
:1010B000638D9BB2002B35D000960E9B002204213D
:1010C0002000FFF7C4FD002855D123685A6A636ADF
:1010D000591C61621A70238D013B9BB22385628D7E
:1010E000013A92B26285002BE2D1638D9BB2002B54
:1010F000DED000960E9B002280212000FFF7A7FD86
:1011000000283AD1638D9BB2FF2BC5D9FF232385DD
:101110007F3B002200925B04FF3203992000FFF71F
:101120001FFDC5E732000E992000FFF7F9FD0028EA
:1011300006D0636C042B01D0032012E0012010E0E4
:1011400023682022DA6121684B680D4D2B404B60EB
:101150004123E25400232232A354023AA35400E074
:10116000022007B0F0BD0120FBE70120F9E70220D3
:10117000F7E70320F5E70320F3E70320F1E7C04694
:1011800000E800FE4123C05CC0B27047F0B54123C7
:10119000C35C202B20D12033C35C012B1ED0402404
:1011A00001220255412524234355066833689343A1
:1011B0003360066833680A4F3B4033600668336823
:1011C0001943316001680B6813430B6020234355BA
:1011D000002303550020F0BD0220FCE70220FAE7BF
:1011E000FFEFFFFFF0B54123C35C202B1ED120335E
:1011F000C35C012B1CD0402401220255412524232D
:101200004355066833689343336006683368094F73
:101210003B4009021943316001680B6813430B60BE
:1012200020234355002303550020F0BD0220FCE796
:101230000220FAE7FFF0FFFF70B5041E24D0036818
:10124000124A1A600368124A1A60036842685A60B8
:10125000036882689A6002F08FF805002368DA68F4
:10126000002A06D002F088F8401B2728F6D9032070
:1012700070BD1969E268914202D01A610020F7E757
:10128000044A1A600020F3E70120F1E7CCCC00000B
:1012900055550000AAAA00000368024A1A600020FF
:1012A0007047C046AAAA000030B5036A01229343E2
:1012B0000362036A426884697325AC430D682C435A
:1012C0000225AB438D682B43144DA84208D0144D22
:1012D000A84205D0134DA84202D0134DA84205D113
:1012E0000825AB43CD682B430425AB430B4DA842E7
:1012F00008D00B4DA84205D00A4DA84202D00A4D95
:10130000A84205D1094D2A404D692A438D692A43D7
:10131000426084614A684263036230BD002C014030
:10132000004001400044014000480140FFFCFFFF35
:1013300070B5036A194A13400362036A4268C469BC
:101340007325AC430E682643154C23408C68240259
:101350002343144CA04219D0124CA04208D0124C86
:10136000A04205D0114CA04202D0114CA04207D19E
:10137000104C14404A69120122438C6925012A430A
:101380004260C6614A68C263036270BD0A4C1C4079
:10139000CB681B022343094C2340DDE7FFFEFFFF20
:1013A000FFFDFFFF002C01400040014000440140D0
:1013B00000480140FFCFFFFFFFF7FFFFFFFBFFFFEC
:1013C00030B5036A134A13400362026A4368C46972
:1013D000114D2C400D682D022C43104D15408A688C
:1013E00012032A430E4DA84208D00E4DA84205D044
:1013F0000D4DA84202D00D4DA84204D10C4D2B40FA
:101400004D69AD012B434360C4614B6803640262C4
:1014100030BDC046FFEFFFFFFF8CFFFFFFDFFFFF88
:10142000002C0140004001400044014000480140C0
:10143000FFBFFFFF30B5036A046A0125AC430462B5
:101440008469EF35AC43120122430A24A3430B43C2
:101450008261036230BD000030B5036A1024A343EB
:1014600003628469036A054D2C4012032243A024C1
:10147000A343090119438261016230BDFF0FFFFFE1
:101480008368702293430722114389B21943816014
:10149000704770477047704770477047704710B586
:1014A000040003681A6992070FD5DA6892070CD511
:1014B000032252421A610123037703689B699B0749
:1014C00063D0FFF7E9FF0023237723681A695207E7
:1014D00012D5DA6852070FD5052252421A6102234B
:1014E000237723689A69C0239B001A4253D02000B7
:1014F000FFF7D2FF0023237723681A69120710D55C
:10150000DA6812070DD5092252421A6104232377A3
:101510002368DB699B0745D02000FFF7BDFF002350
:10152000237723681A69D20612D5DA68D2060FD556
:10153000112252421A61082323772368DA69C023F3
:101540009B001A4235D02000FFF7A6FF0023237727
:1015500023681A69D20702D5DA68D20730D4236823
:101560001A69120602D5DA68120630D423681A699D
:10157000520602D5DA68520630D423681A699206F8
:1015800002D5DA68920630D410BDFFF784FF200040
:10159000FFF783FF97E72000FFF77DFF2000FFF7AD
:1015A0007CFFA7E72000FFF776FF2000FFF775FF1D
:1015B000B5E72000FFF76FFF2000FFF76EFFC5E7DC
:1015C000022252421A61200003F0B6F9C7E78122D5
:1015D00052421A61200000F0F0FAC7E7412252425D
:1015E0001A612000FFF75AFFC7E7212252421A6111
:1015F000200000F0E1FAC7E70368214A904206D0D4
:101600008022D205904202D01E4A904203D170221D
:1016100093434A6813431A4A904212D08022D2055B
:1016200090420ED0174A90420BD0174A904208D0F1
:10163000164A904205D0164A904202D0154A90426E
:1016400003D1154A1340CA681343802293434A6961
:10165000134303608B68C3620B688362084B984234
:1016600008D00A4B984205D0094B984202D0094B4A
:10167000984201D10B690363012343617047C0465F
:10168000002C0140000400400020004000400140C8
:101690000044014000480140FFFCFFFF70B5041EFC
:1016A00014D03D23C35C002B0AD03D250223635593
:1016B000210001C9FFF7A0FF01236355002070BD81
:1016C0003C330022C254FFF7E4FEEEE70120F6E7C8
:1016D00070B5041E14D03D23C35C002B0AD03D25F9
:1016E00002236355210001C9FFF786FF01236355DB
:1016F000002070BD3C330022C254FFF7CBFEEEE762
:101700000120F6E770B5041E14D03D23C35C002B06
:101710000AD03D2502236355210001C9FFF76CFF64
:1017200001236355002070BD3C330022C254FEF7F4
:10173000E1FEEEE70120F6E770B5036A102293435D
:101740000362036A42688469174D2C400D682D02BC
:1017500025432024A3438C6824012343134CA04237
:1017600019D0124CA04208D0114CA04205D0114C07
:10177000A04202D0104CA04207D1104C14404A693C
:10178000920022438C69A6003243426085614A6818
:101790008263036270BD8024A3431C00CB681B01DD
:1017A00023434024A343DCE7FF8CFFFF002C0140D0
:1017B000004001400044014000480140FFF3FFFFAA
:1017C00010B504003C23C35C012B25D03C23012031
:1017D000E05401330130E054082A19D007D8002A18
:1017E0000BD0042A0CD12068FFF7A6FF08E00C2AD2
:1017F00006D12068FFF7E4FD02E02068FFF754FD02
:101800003D230122E254013B0022E254002010BD9E
:101810002068FFF78DFDF3E70220F8E770B50400BC
:101820000D003C23C35C012B69D03C230121C15432
:1018300001330131C154082A4DD019D8002A2FD0C4
:10184000042A40D129000068FFF776FF22689169D9
:1018500080231B010B4393612268936929490B4044
:10186000936121688B692A69120213438B612AE014
:101870000C2A28D129000068FFF7A2FD2268D1694F
:1018800080231B010B43D3612268D3691D490B40A0
:10189000D3612168CB692A6912021343CB6112E03C
:1018A00029000068FFF700FD2268936908210B43B7
:1018B00093612268936904398B4393612268936929
:1018C00029690B4393613D230122E254013B00222D
:1018D000E254002070BD29000068FFF729FD22684E
:1018E000D36908210B43D3612268D36904398B4340
:1018F000D3612268D36929690B43D361E3E70220EE
:10190000E8E7C046FFFBFFFF30B58468034D2C407D
:101910001B0213430B432343836030BDFF00FFFFD3
:1019200010B504003C23C35C012B00D17FE03C23B5
:101930000122C25401330132C254026893683D4807
:10194000034093600B68502B4ED019D8202B64D0E5
:101950000DD9302B66D0402B3ED1CA68496820682B
:10196000FFF768FD40212068FFF78AFD34E0002B77
:101970004ED0102B30D110212068FFF781FD2BE0D5
:1019800080225201934222D010D9802292019342A8
:1019900022D1CB684A6889682068FFF7B5FF2268C2
:1019A00091688023DB010B43936015E0602B25D009
:1019B000702B11D1CB684A6889682068FFF7A4FFB3
:1019C0002268936877218B430B43936004E022687D
:1019D000936807218B4393603D230122E254013B2E
:1019E0000022E254002010BDCA6849682068FFF751
:1019F00021FD50212068FFF743FDEDE7CA684968E3
:101A00002068FFF729FD60212068FFF739FDE3E733
:101A100000212068FFF734FDDEE720212068FFF772
:101A20002FFDD9E730212068FFF72AFDD4E70220F7
:101A3000D9E7C0468800FFFF10B501248C40036A37
:101A4000A3430362036A8A401343036210BD00008C
:101A500010B5040001220068FFF7EEFF23680C4A6E
:101A6000934208D00B4A934205D00B4A934202D0CE
:101A70000A4A934204D1596C802212020A435A64E2
:101A80002268136801210B431360002010BDC0467B
:101A9000002C01400040014000440140004801404A
:101AA00010B5040001220068FFF7C6FF23680C4A46
:101AB000934208D00B4A934205D00B4A934202D07E
:101AC0000A4A934204D1596C802212020A435A6492
:101AD0002268136801210B431360002010BDC0462B
:101AE000002C0140004001400044014000480140FA
:101AF000F0B53C23C35C012B1ED03C22012585544C
:101B00003D2402230355066873687027BB43736046
:101B1000066873680F683B4373600668B368802784
:101B2000BB43B3600668B36849680B43B3600555AF
:101B3000002383540020F0BD0220FCE770B53C2355
:101B4000C35C012B28D03C22012585543D2402236F
:101B50000355124BCE6833408E683343104E3340EA
:101B60004E6833430F4E33400E6833430E4E3340BE
:101B70000E6933430D4E33404E6933430C4E3340B0
:101B800089690B430B4E33400B4301684B64055589
:101B900000238354002070BD0220FCE7FFFCFFFF00
:101BA000FFFBFFFFFFF7FFFFFFEFFFFFFFDFFFFF81
:101BB000FFBFFFFFFF7FFFFF70477047F4235B000D
:101BC000C35C012B13D0F4235B000122C254002913
:101BD0000AD19D3BFF3B7F320168CA52F4235B0070
:101BE0000022C254002070472423C154F6E702208B
:101BF000F9E70000F0B54DB2002D2EDB7F260E4038
:101C0000F400A41BA4000934FF3404197F263140DA
:101C10002170ED0F6570E260E370F4235B00C35C3C
:101C2000012B00D18EE1F4235B000122C254E37842
:101C3000022B00D17BE018D8002B25D0012B2FD10F
:101C40002278920003689C4662441388BE4919407A
:101C5000BE4B0B439BB2138022E07F260E40F40064
:101C6000A41BA40028340419D0E7032B18D1227830
:101C7000920003689C4662441388B3491940B44BF0
:101C80000B439BB213800BE02278920003689C46C2
:101C900062441388AC491940AE4B0B439BB213808E
:101CA00023789A0001688C4662441188AA4D294025
:101CB0001943AA4B0B439BB21380A37A002B00D08D
:101CC0008FE06378002B3FD0A28805685023EB5A41
:101CD0002178C9005B185B198021C9008C466344D8
:101CE00001218A431A8023789B000268944663444A
:101CF0001A88520606D51A8897491140984A0A430D
:101D000092B21A802178890003689C4661440B884E
:101D1000944A1340202253409BB2904A13439BB2F3
:101D20000B80F4235B000022C2540020F0BD227817
:101D3000920003689C466244138883491940874B8C
:101D40000B439BB21380ABE7A28805685026AB5BC0
:101D50002178C9005B185B1983498C4663440121D3
:101D60008A431A8001688B5B2278D2009B185B182B
:101D70007E4A94466344E1683E2929D94A0992B2D1
:101D8000C90601D1013A92B2920292B278490A434D
:101D90001A8023789B000268944663441A88520490
:101DA00006D51A886C491140724A0A4392B21A80C9
:101DB0002278920003689C46624411886E4B194059
:101DC000C0239B015940654B0B439BB21380A8E78E
:101DD0004A0892B2C90701D5013292B292021A8022
:101DE000D7E72278920003689C46624413886349CF
:101DF0001940634B0B439BB21380E2880568502760
:101E0000EB5B2178C9005B185B198021C9008C4607
:101E100063440126B2431A8022890568EB5B21786E
:101E2000C9005B185B1950498C466344B2431A8061
:101E30006378002B44D123789B0002689446634466
:101E40001A88520406D51A8843491140494A0A4360
:101E500092B21A8023789B000268944663441A88E1
:101E6000520606D51A883C4911403D4A0A4392B2AF
:101E70001A802278920003689C466244138836498F
:101E80001940374B0B439BB21380217889000368BC
:101E90009C4661440B88384A1A40C0239B0153403A
:101EA0002E4A13439BB20B8023789B0001688C461B
:101EB000634419882B4C21400A4392B21A8030E7C0
:101EC00023789B000268944663441A88520406D51E
:101ED0001A8821491140274A0A4392B21A8023786E
:101EE0009B000268944663441A88520606D51A88F5
:101EF000194911401A4A0A4392B21A802278920074
:101F000003689C466244138813491940194B0B43DC
:101F10009BB213802178890003689C4661440B883A
:101F2000104A13400D4A13439BB20B8023789B0049
:101F300001688C46634419880F4C21400A4392B2D1
:101F40001A80EEE60220F1E60F0900008084FFFF10
:101F50008086FFFF8082FFFF0F0F00008080FFFF61
:101F6000C080FFFFBF8FFFFF0404000006040000D5
:101F70000080FFFF80C0FFFF8FBFFFFF0F0E00003C
:101F80008081FFFF30B57F242140CC00641AA4007B
:101F9000041925001935FF352A6022001D32FF3251
:101FA0001360083500222A60173D2A70220009328A
:101FB000FF3211701534FF3422689A423CD2CC00B3
:101FC000641AA40004191D34FF349B1A2360CB004B
:101FD0005B1A9B00C3181333FF331B78002B3ED1D1
:101FE00004685033E35ACD005B191B194E4CA446CC
:101FF00063443E2A2AD95409A4B2D20601D1013C35
:10200000A4B2A402A4B2494A14431C800268CB00C3
:10201000591A890040180930FF3003789B00D21804
:102020001188434B1940C0239B015940414B0B433E
:102030009BB21380002030BDCA00521A9200821851
:102040001D32FF32002414601A00C0E75408A4B205
:10205000D20701D50134A4B2A4021C80D6E70468DB
:102060005023E35ACD005B191B19334CA44663443B
:102070003E2A31D95409A4B2D50601D1013CA4B2FB
:10208000A402A4B2294D2C431C80CB005B1A9B00F8
:10209000C3180A33FF331B78002B2FD10468503349
:1020A000E55ACB005B1A9B00C3180933FF331B783A
:1020B000DB00EB181C191C4B9C4664443E2A14D9C7
:1020C00053099BB2D20601D1013B9BB29B029BB24A
:1020D000164A1343238099E75408A4B2D50701D5C3
:1020E0000134A4B2A4021C80CFE753089BB2D207EC
:1020F00001D501339BB29B02238087E7012B00D0DF
:1021000084E704684F33E55ACB005B1A9B00C31881
:102110000933FF331B78DB00EB181C19024B9C467C
:102120006444228072E7C046060400000080FFFF7E
:102130008FBFFFFF8080FFFF0204000010B50C007E
:10214000F4235B00C35C012B50D0F4235B0001221D
:10215000C2544AB2002A21DBCB005B1A9B00093330
:10216000FF33C318012199707E3121401970D20FBD
:102170005A7000291AD1890003689C4661440A8874
:102180001B4B1A401B4B5A401B4B13439BB20B80FB
:10219000F4235B000022C254002010BD7F212140A7
:1021A000CB005B1A9B002833C318DBE7002A0ED054
:1021B000890003689C4661440B88104A1340102232
:1021C00053409BB20C4A13439BB20B80E0E789005B
:1021D00003689C4661440A88094B1A4080235B01CE
:1021E0005A40054B13439BB20B80D1E70220D4E742
:1021F000BFBFFFFF101000008080FFFFBF8FFFFFF9
:102200008FBFFFFF10B50C004AB2002A3CDBCB00A9
:102210005B1A9B000933FF33C318002199707F318B
:1022200021401970D20F5A70F4225200825C012AA8
:1022300051D0F4225200012181545A78002A2BD027
:102240001A78920001688C4662441188490606D5C6
:102250001188224C0C402249214389B211801978FF
:10226000890003689C4661440B881E4A1340302253
:1022700053409BB21C4A13439BB20B80F4235B0078
:102280000022C254002010BD7F212140CB005B1AE8
:102290009B002833C318C0E71A78920001688C4667
:1022A00062441188490406D511880C4C0C400F4932
:1022B000214389B211801A78920003689C466244D7
:1022C00011880B4B1940C0239B015940064B0B430F
:1022D0009BB21380D2E70220D5E7C0460F0F000063
:1022E000C080FFFFBF8FFFFF8080FFFF80C0FFFF28
:1022F0008FBFFFFF10B501335C0812188023DB008D
:102300009C46624407E008784B781B020343138025
:102310000231013C0232002CF5D110BDF0B5C646A9
:1023200000B5050016007F240C40E000001B800073
:1023300028188263C363002202640200293201214B
:102340001170013A1470416B994252D25B1AC36307
:10235000E000001B8000281832300378002B50D09A
:102360002868A200821813885B0663D55023C35ADD
:10237000E2009B181B18414A944663441980E3000D
:102380001B1B9B00EB181A8E8BB2E600361BB600A7
:10239000AE19B16B2868FFF7ADFF29363378002BF3
:1023A00057D1E3001B1B9B00EB1828331A789200CF
:1023B0002B689C466244138831491940314B0B43CA
:1023C0009BB213802B68E1000C1BA4002D1928354B
:1023D0002978890059180B882B4A13403022534022
:1023E0009BB22A4A13439BB20B80002080BCB846A4
:1023F000F0BDE200121B9200AA180021D16319005F
:10240000A6E78BB29846E7003F1BBF00EF19BA8DD5
:1024100031002868FFF76EFF2A685023D35A283707
:102420003978C9005B189B18194A944663444246A0
:102430001A80C7E75023C35AE2009B181B18144A9E
:10244000944663441980E3001B1B9B00EB18DA8D54
:102450009AE7012BB6D1E3001B1B9B00EB18283336
:102460001A7892002B689C466244138804491940EC
:10247000084B0B439BB21380A4E7C0460604000040
:102480000F0F0000C080FFFFBF8FFFFF8080FFFFA6
:102490000204000080C0FFFF10B55C081018802205
:1024A000D2009446604406E002880A70120A4A701C
:1024B000013C02300231002CF6D1DB0701D5038844
:1024C0000B7010BDF0B583B0040001AB00221A8080
:1024D000BAE10388AE4A1340038021685023CB5AE7
:1024E0002822A25CD2009B185B18AA4A9446634437
:1024F0001B889B059B0D2364A26B94466344A363D6
:102500000021200001F070FE2423E35C002B00D1A9
:102510009AE1E36B002B00D096E12422A35C80219A
:1025200049420B43DBB2CC31206843520023A35411
:102530008AE15023C35A84225200A25CD2009B1825
:102540001B18954A944663441B889B059B0D2200EB
:102550000932FF3293612100ED31FF319288FFF79C
:102560009BFF226813888D490B401380200001F0E7
:1025700022FE69E1150092882969FFF78DFF2B691A
:10258000AA69944663442B619DE14B089BB2C9073D
:1025900001D501339BB29B021380B1E1AE008019DB
:1025A00003889BB201AA138013881BB2002B30DB77
:1025B00001AB1B881B0600D446E123689C46664499
:1025C0003388734A13403380EB005B1B9B00E31896
:1025D00032331B78002B00D0E6E020685033C35A1A
:1025E000EA00521B9200A218110028310978C90094
:1025F0005B181B1867498C4663441B889B059B0D21
:10260000136400D101E11100928D896BFFF772FE16
:10261000FBE00388614A13400380EB005B1B9B00D7
:10262000E3181333FF331B78002B23D1206850337A
:10263000C25AEB005B1B9B00E3180933FF331B7886
:10264000DB00D3181B18544A944663441B889B052F
:102650009F0D002B3AD0EB005B1B9B00E3181A0088
:102660000D32FF3212881933FF3319683B00FFF730
:1026700013FF2BE02068EB005B1B9B00E318093382
:10268000FF331B789A0082181288520458D55022C2
:10269000825ADB00D3181B183E4A944663441B88B9
:1026A0009B059F0D002B3CD1EB005B1B9B00E318AF
:1026B0000933FF331A78920023689C4662441388DA
:1026C00037491940374B0B439BB213803800E90060
:1026D000491B890061180A002132FF321368DB1997
:1026E00013600B001933FF331A68944667441F6068
:1026F0001D31FF310B68002B08D0E900491B890010
:1027000061181531FF310A68904235D2EB005B1B2E
:102710009B00E3180933FF331978200001F055FDC1
:1027200046E7EB005B1B9B00E3181A000F32FF32F9
:1027300012881933FF3319683B00FFF7ADFEB3E78A
:102740005022825ADB00D3181B18134A9446634464
:102750001B889B059F0D002BA6D0EB005B1B9B00ED
:10276000E3181A001132FF3212881933FF33196847
:102770003B00FFF791FE97E7EA00521B9200A21878
:102780000932FF3211783A002000FFF7FBFB0FE718
:102790000F8FFFFF02040000060400008F0F0000EF
:1027A0000F0F0000C080FFFF2068EB005B1B9B0049
:1027B000E31828331B789A0082181288520600D436
:1027C000B0E05022825ADB00D3181B18654A9446A9
:1027D00063441B889B059B0DEA00521B9200A218C4
:1027E0001364002B00D097E0EB005B1B9B00E31809
:1027F00028331A78920023689C46624413885A4909
:1028000019405A4B0B439BB2138026685023F25A4F
:10281000EB00581B80002018010028310978CF00F8
:10282000D21992194F4EB446624412889205920D05
:102830000264866BB44662448263C36B002B00D093
:1028400089E0200001F0D0FC20684423C35A9BB2E9
:102850006A46D3801BB2002B00DB80E06B46DA882F
:102860000F2315001D401A4200D097E66B46063331
:102870001B88DB0600D42CE603889BB201AA1380D8
:1028800013881B0500D554E601AB1B881BB2002B37
:10289000DADA0388364A1340038020685023C35A8B
:1028A00084225200A25CD2009B181B18314A944625
:1028B00063441B889B059B0D22000932FF32936104
:1028C000002B00D056E60021200001F07EFC23689A
:1028D00050229A5A9A18274B9C4662442300093387
:1028E000FF33D9683E2900D84FE64B099BB2C90691
:1028F00001D1013B9BB29B029BB21F490B4313804A
:1029000021680A881D4B1A40C0239B015A401C4B6A
:1029100013439BB20B8097E71100D28D896BFFF7B1
:10292000E9FC61E75022825ADB00D3181B18114AD8
:10293000944663441B889B059B0DEA00521B920042
:10294000A2181364002B00D14EE71100128E896B80
:10295000FFF7D0FC48E72000FFF7E0FC74E7002019
:1029600003B0F0BD020400000F0F000080C0FFFFA5
:102970008F0F0000060400000080FFFF8FBFFFFFE5
:102980008080FFFF70B5040044230268D35A1BB255
:10299000002B48DB236844229A5A520546D4236808
:1029A00044229A5A520404D544215A5A35480240C6
:1029B0005A52236844229A5A920404D544215A5AFE
:1029C000314802405A52236844229A5AD2043AD4D7
:1029D000236844229A5A120515D544215A5A2B4885
:1029E00002405A5220684022835A08252B439BB24A
:1029F00083522068835A04252B439BB28352236859
:102A00005B5ADB0431D5236844229A5A920530D4AC
:102A1000236844229A5AD20504D544215A5A1C48A4
:102A200002405A5270BDFFF74DFDB3E744215A5A98
:102A3000184802405A52200001F0EAFB0021200011
:102A4000FFF7BCF8ABE74022995A04208143995222
:102A5000114B21688B52200001F0E7FB21684422D2
:102A60008B5A0E4803408B52B2E7200001F0DCFB8A
:102A7000C9E744215A5A0A4802405A52200001F03C
:102A8000C0FBC5E7FFBFFFFFFFDFFFFFFFF7FFFF53
:102A9000FFFEFFFFFFFBFFFF00BDFFFFFFEFFFFF9C
:102AA000FFFDFFFF70B582B004000368DB072BD584
:102AB000B34B5A680C231340042B1DD0B04B5A68FB
:102AC0000C231340082B0ED06368012B41D0002B40
:102AD00056D1AB4B1A68AB490A401A601A68AA492A
:102AE0000A401A603BE0A64B5B68C02252021340CA
:102AF000802252029342E7D1A14B1B689B0303D56E
:102B00006368002B00D136E223689B0777D59C4B86
:102B10005B680C221A4262D0994B5A680C2313400E
:102B2000082B53D0E368002B00D18AE0944A136845
:102B300001210B43136000F01FFC0500904B1B6844
:102B40009B0775D400F018FC401B0228F6D903201F
:102B500018E28B4A116880235B020B4313606368A1
:102B6000002B25D000F008FC0500854B1B689B035B
:102B7000CAD400F001FC401B6428F6D9032001E20E
:102B8000052B09D07E4B1A687E490A401A601A68E4
:102B90007D490A401A60E2E7794B19688022D20227
:102BA0000A431A601968802252020A431A60D6E763
:102BB00000F0E2FB0500724B1B689B03A4D500F0FC
:102BC000DBFB401B6428F6D90320DBE16C4B5B6820
:102BD000C02252021340802212029342A2D1684BBB
:102BE0001B689B0703D5E368012B00D0C5E164494E
:102BF0000B68F82293432269D20013430B602368C9
:102C00001B0744D5E369002B2ED05D4A536A01218E
:102C10000B43536200F0B0FB0500594B5B6A9B0706
:102C200035D400F0A9FB401B0228F6D90320A9E106
:102C300053490B68F82293432269D20013430B6077
:102C4000DDE74F4A136801218B43136000F094FBCA
:102C500005004B4B1B689B07D1D500F08DFB401B3B
:102C60000228F6D903208DE1454A536A01218B439E
:102C7000536200F081FB0500414B5B6A9B0706D560
:102C800000F07AFB401B0228F6D903207AE1236882
:102C90005B0700D480E03A4BDB69DB001DD4384A87
:102CA000D169802040050143D161D369034001937C
:102CB000019B0125354B1B68DB0510D5A368012B53
:102CC00021D0002B36D12E4B1A6A01218A431A6279
:102CD0001A6A03318A431A621AE00025EAE72B4A8E
:102CE000116880235B000B43136000F045FB060076
:102CF000264B1B68DB05E1D400F03EFB801B6428FB
:102D0000F6D903203EE11E4A136A01210B431362E8
:102D1000A368002B24D000F02FFB0600184B1B6A81
:102D20009B0737D400F028FB801B194B9842F5D93C
:102D3000032027E1052B09D0114B1A6A01218A4390
:102D40001A621A6A03318A431A62E1E70C4B1A6A63
:102D500004210A431A621A6A03390A431A62D7E73E
:102D600000F00AFB0600064B1B6A9B0712D500F019
:102D700003FB801B064B9842F5D9032002E1C046B5
:102D800000100240FFFFFEFFFFFFFBFF007000404E
:102D900088130000012D39D02368DB0610D5636944
:102DA000012B39D0053357D1784A536B04218B431B
:102DB0005363536BF4318B43A169C9000B435363D5
:102DC00023689B066DD5714B5A680C2313400C2B5E
:102DD00060D06E4B5A680C231340082B53D0236AE3
:102DE000002B7CD0694A516B80235B020B435363F9
:102DF00000F0C2FA0500654B5B6BDB0351D400F0B9
:102E0000BBFA401B0228F6D90320BBE05F4AD36916
:102E10005F490B40D361BFE75C4B5A6B04210A4307
:102E20005A635A6B03390A435A6300F0A5FA050046
:102E3000564B5B6B9B0706D400F09EFA401B0228A2
:102E4000F6D903209EE051494B6BF8229343A269C7
:102E5000D20013434B63B3E74C4B5A6B04210A4334
:102E60005A635A6B03398A435A6300F085FA0500A6
:102E7000464B5B6B9B07A3D500F07EFA401B0228F4
:102E8000F6D903207EE0414B5B68C022520213401A
:102E90009342A4D13D4B5B6BDB0302D5236A012B2C
:102EA0006DD1636A002B6CD0384A51680C220A40FD
:102EB000082A69D0022B25D0344A136835490B40C3
:102EC000136000F059FA0400304B1B689B0150D589
:102ED00000F052FA001B0228F6D9032052E02B4AD8
:102EE000536B2D490B40536300F046FA0500274B06
:102EF0005B6BDB03D5D500F03FFA401B0228F6D907
:102F000003203FE0214A136822490B40136000F080
:102F100033FA05001D4B1B689B0106D500F02CFA07
:102F2000401B0228F6D903202CE0184BDA6A0F2147
:102F30008A43216B0A43DA625A6818490A40E16AF7
:102F4000A06A01430A435A601968802252040A4366
:102F50001A6000F011FA04000C4B1B689B0106D4A8
:102F600000F00AFA001B0228F6D903200AE000202C
:102F700008E0002006E0012004E0012002E001203A
:102F800000E0002002B070BD0120FBE7001002400D
:102F9000FFFFFFEFFFFFFFFEFFFFFEFFFF7FC2FF10
:102FA00010B588B004AA1E4B13CB13C21B68136064
:102FB0006A461C4B13CB13C21B6813601A4B5A682A
:102FC0000C231340082B04D00C2B26D1174808B033
:102FD00010BD910C0F23194004A8445C1249C96A22
:102FE0000B406946C95CC0235B021A4080235B0228
:102FF0009A4208D0C0235B029A4209D00C48FDF7E0
:1030000069F86043E3E70A48FDF764F86043DEE7E8
:103010000648FDF75FF86043D9E70548D7E7C046A3
:103020000C8000082080000800100240006CDC02C8
:1030300000127A0070B504000D005A4B1A68012383
:1030400013408B420AD257490B68012293432B430A
:103050000B600B681A40AA4200D09CE023689B07D3
:1030600006D5514A5368F0218B43A1680B43536046
:103070002368DB0764D56368012B09D0022B29D0B4
:10308000032B2DD0484A1268920706D4012081E014
:10309000454A1268920300D47FE043494A680320FE
:1030A000824313434B6000F067F906006368012B0D
:1030B0001CD0022B28D0032B34D03B4B5B680C2256
:1030C0001A423DD000F058F9801B384B9842F4D991
:1030D00003205FE0344A12689201DED4012059E0F7
:1030E000314A526BD203D8D4012053E02E4B5A6898
:1030F0000C231340042B23D000F03EF9801B2B4AF5
:103100009042F3D9032045E0274B5A680C23134023
:10311000082B15D000F030F9801B244B9842F3D9CE
:10312000032037E0204B5A680C2313400C2B07D0A8
:1031300000F022F9801B1D4B9842F3D9032029E0AF
:10314000184B1A6801231340AB4209D915490B6883
:10315000012293432B430B600B681A40AA421ED1F5
:1031600023685B0706D5104A536811490B40E16894
:103170000B435360FFF714FF0B4B5A6812090F23E0
:1031800013400C4AD35CD8400B4B1860002000F071
:10319000C9F8002070BD0120FCE70120FAE70120FA
:1031A000F8E7C046002002400010024088130000EB
:1031B000FFF8FFFF60830008AC000020014B186897
:1031C0007047C046AC00002070B582B004000368B0
:1031D000DB0337D54C4BDB69DB0067D44A4AD16946
:1031E000802040050143D161D36903400193019BD5
:1031F0000125464B1B68DB055AD5434B1A6AC02391
:103200009B00110019401A4213D0626813408B4290
:103210000FD03D4B186A3E4A02401E6A8021490287
:1032200031431962196A3B4E314019621A62C30771
:1032300052D4354A136A36490B4061680B43136216
:10324000012D58D02368DB0706D52F4A136B0321C5
:103250008B43A1680B43136323689B0706D52A4A57
:10326000136B2D490B40E1680B43136323689B06E6
:1032700006D5254A136B10218B4321690B43136339
:1032800023689B0306D5204A136B80218B43A169D9
:103290000B43136323685B0532D51B4A136B402134
:1032A0008B4361690B43136300202AE00025A0E7EC
:1032B000164A116880235B000B43136000F05CF832
:1032C0000600124B1B68DB0597D400F055F8801BF5
:1032D0006428F6D9032014E000F04EF806000A4BEB
:1032E0001B6A9B07A5D400F047F8801B0B4B984244
:1032F000F5D9032005E0D36909490B40D361A1E763
:10330000002002B070BDC0460010024000700040B6
:10331000FFFCFFFFFFFFFEFFFFFFFCFF8813000025
:10332000FFFFFFEF10B50400FFF748FFFA21890007
:10333000FCF7D0FE00F03CFA0120002221004042C0
:1033400000F0FCF9002010BD10B5064A13681021EA
:103350000B4313600020FFF7E5FFFDF70BF800209B
:1033600010BDC04600200240024A136801331360BA
:103370007047C04634010020014B18687047C046B2
:103380003401002030B583B00190FFF7F5FF050050
:10339000019C631C00D00134FFF7EEFF401BA042EC
:1033A000FAD303B030BD0000F0B5D6464F464646CE
:1033B000C0B582B0002338E0042600E00026A64015
:1033C00034003C43023292005F4E94515F4A1468CD
:1033D0004A46D24326004D46AE434D68ED0302D522
:1033E0004D462C432600594C266064682600164042
:1033F0004D68AD0302D54D462C432600534C666004
:10340000A468260016404D68ED0202D54D462C43B7
:1034100026004E4CA660E46822404D68AD0201D5FE
:103420004A462243494CE26001330C682200DA40EC
:1034300000D182E001229A4025001540A94614429D
:10344000F2D04C68022C01D0122C0ED1DC080834CA
:10345000A400275807261E40B6000F25B540AF43ED
:103460000D69B5402E003E4326500468A4465E0018
:103470000324A2462700B740B846FF4365464446AA
:10348000A543AC464C68554625402C00B4406546E3
:103490002C4304604C68651E012D03D9112C01D00A
:1034A000122C13D184683C40A446CC68B4406546D5
:1034B0002C4384604468944322004C682409A44649
:1034C000012465462C409C4014434460C268174068
:1034D0008A68B2403A43C2604A68D200A4D51C4C04
:1034E000A66901221643A661A46922400192019AAD
:1034F0009A08941CA400144EA75903261E40B40039
:103500000F26A640B7439026F605B04200D155E7F6
:10351000104EB0420BD0104EB0420AD00F4EB04207
:1035200009D00F4EB04200D146E7052647E70126F5
:1035300045E7022643E7032641E702B0E0BCBA466E
:10354000B146A846F0BDC04600000140000401405D
:10355000001002400004004800080048000C004829
:103560000010004803690B4201D001207047002081
:10357000FCE730B50124056CAC40C56B6C60046899
:1035800063604368102B04D0036899600368DA60B5
:1035900030BD03689A600368D960F9E710B504008C
:1035A0000368064A9446634418001421FCF792FD10
:1035B00080002064024BE36310BDC046F8FFFDBFEE
:1035C0000000024070B5041E24D02125022343557B
:1035D00001680B68104A1A40436880680343E0683A
:1035E00003432069034360690343A0690343E0691F
:1035F000034313430B602000FFF7D0FF0023A362B7
:10360000E36223636363A363012262551F32A35401
:10361000002070BD0120FCE70FC0FFFF70B5040063
:103620002020205C012832D02020012525540130A3
:10363000205C012804D020230022E254022070BD27
:103640002030013525540020A06325682868012614
:10365000B04328602000FFF78CFFE36A002B0BD0FB
:10366000226813680E210B4313602268136801213E
:103670000B4313600020E2E7226813680A210B4322
:1036800013602268136806398B431360EDE702204C
:10369000D5E770B5C36B1A6804682568016C04230C
:1036A0008B401A4212D06B0710D523689B0603D4B7
:1036B0002368042293432360C26B0423016C8B4074
:1036C0005360C36A002B00D0984770BD02238B4023
:1036D0001A4218D0AB0716D523689B0606D4236878
:1036E0000A22934323602123093AC254C26B022366
:1036F000016C8B40536020230022C254836A002B4C
:10370000E3D09847E1E708238B401A42DDD02B072E
:10371000DBD523680E2293432360C26B012319007B
:10372000046CA14051608363212283541F33002223
:10373000C254036B002BC8D09847C6E770B5002869
:1037400011DB8308134DC0339B005C5903221040EA
:10375000C000FC3216008640B44389010A40824012
:1037600022435A5170BD0F230340083B9B08063388
:103770009B00094A944663445D6803242040C000CE
:10378000FF2214008440A54389010A4082402A4355
:103790005A60E7E700E100E000ED00E01F23184079
:1037A0001E3B8340014A13607047C04600E100E0C1
:1037B000013880235B0498420FD2094A50600948BF
:1037C000036A1B021B0AC02109060B430362002384
:1037D000936007331360002070470120FCE7C04668
:1037E00010E000E000ED00E010B5054B0022DA61CA
:1037F000044A1369012423431361018010BDC046AC
:1038000038010020002002400D4BDA6810210B0027
:103810001340114205D00B4AD3690E390B43D361D3
:103820001023074AD268520706D50649CA69012003
:103830000243CA6104221343014AD3607047C04661
:103840000020024038010020084B1B691B0609D5E7
:10385000064B074A5A60074A5A601B691B0603D485
:10386000002000E0002070470120FCE7002002401B
:1038700023016745AB89EFCD034A136980210B43D0
:10388000136100207047C0460020024070B504005C
:10389000FFF772FD0500124BDB68DB070AD5631CDE
:1038A000F9D0002C04D0FFF767FD401BA042F2D9ED
:1038B00003200FE00A4BDB689B0602D5084B202251
:1038C000DA60074BDB68DB0605D4054BDB685B077A
:1038D00001D4002070BDFFF797FF0120FAE7C04632
:1038E00000200240F8B5CE46474680B505000E00E0
:1038F00090461F00224B1B7E012B3ED0204B012205
:103900001A762048FFF7C2FF041E2FD1012D07D0E1
:10391000022D02D0042399461DE0022399461AE0A5
:103920000123994617E02022D21A390091400A005B
:103930004146D940114389B28019FFF755FF11481C
:10394000FFF7A4FF104A136901218B43136100287C
:103950000CD10134E4B24C4508D26000230120228E
:1039600052429A18DFD43900D140E4E7044B0022D8
:103970001A76C0BCB946B046F8BD0220F9E7C04689
:103980003801002050C300000020024010B58523FC
:103990009B00C358002B06D01B689847002800D115
:1039A00010BD0220FCE70220FAE710B585239B003A
:1039B000C3585B689847002010BD000070B5040034
:1039C00082239B00C518280000F013F9FA235B003E
:1039D0000122E250124BE25A163BE2501033E15CF6
:1039E000EA3BFF3B0B40012B0FD0022B12D0002BE8
:1039F00005D07F239943200000F023FC03E0290039
:103A0000200000F099FA002070BD2900200000F08D
:103A1000B7FAF8E72900200000F0D0FAF3E7C04633
:103A20000E02000010B50400130000292AD1FA226A
:103A300052008258032A01D0002010BD421DFF32DF
:103A40009168D26891420ED885239B00C3581B69A8
:103A5000002B04D0FE225200825C032A10D02000EA
:103A600000F069FBE8E7891A0530FF3081608A427F
:103A700000D90A0092B21900200000F054FBDBE7E5
:103A80009847ECE785239B00C3589B69002BD3D054
:103A9000FE225200825C032ACED19847CCE770B553
:103AA0000400130000294FD1FA2252008258022A42
:103AB00006D080239B00E35C012B40D0002070BD2A
:103AC000C269056AAA421CD8866929003000FCF741
:103AD0003DFB002906D1B54204D8FC235B00E35826
:103AE0009E421BD385239B00E358DB68002B04D048
:103AF000FE225200A25C032A1ED0200000F027FB09
:103B0000D7E7521BC26192B2190000F004FB0023F8
:103B100000220021200000F0CDFBCAE70022200097
:103B200000F0F9FAFC235B000022E25000230021A0
:103B3000200000F0BFFBBCE720009847DDE78023B2
:103B40009B000022E254B9E785239B00C3585B69C0
:103B5000002BB3D0FE225200825C032AAED19847DC
:103B6000ACE770B5040040230022002100F05EFBAA
:103B7000402588235B00E550D03B002280212000B7
:103B800000F054FB2562FE235B000122E2541C334B
:103B9000E358002B06D085239B00E3585B6821790E
:103BA00020009847002070BD01740020704710B5B8
:103BB000FE235B00C35C032B01D0002010BD8523D6
:103BC0009B00C358DB69002BF7D09847F5E710B589
:103BD00004004B88012B00D010BD81239B000122E3
:103BE000C2501033C3589B689847200000F0A3FAD6
:103BF000F2E70B7803704B7843708B78CA78120227
:103C00009B1843800B794A7912029B1883808B7929
:103C1000CA7912029B18C380704710B50400802136
:103C200000F00FFB0021200000F00BFB10BD000096
:103C300030B583B004000D004A88130A072B00D961
:103C40008EE09B004F49CB589F4684239B00C3586E
:103C50001B68007C6A46911D98476B4606331B889B
:103C6000002B03D0EA88002A00D07EE003B030BDEC
:103C7000037C002B09D185239B00C3589B6A6A46AD
:103C8000901D984702234370E7E785239B00C358A4
:103C9000DB6A6A46901D984702234370DDE7D2B283
:103CA000052A39D89200384B9B589F4684239B00A5
:103CB000C3585B68007C6A46911D9847CDE7842312
:103CC0009B00C3589B68007C6A46911D9847C4E7D7
:103CD00084239B00C358DB68007C6A46911D98478B
:103CE000BBE784239B00C3581B69007C6A46911D77
:103CF0009847B2E784239B00C3585B69007C6A46FF
:103D0000911D9847A9E784239B00C3589B69007CB9
:103D10006A46911D9847A0E72900FFF77EFFA5E7B7
:103D2000037C002B07D185239B00C3585B6B6A463D
:103D3000901D984791E72900FFF76FFF96E7037CF6
:103D4000002B09D185239B00C3581B6B6A46901D2D
:103D500098470723437080E72900FFF75EFF85E758
:103D600029002000FFF759FF80E7191C934200D972
:103D7000111C8AB26B46D9800100200000F0BDF909
:103D800074E7C046348000085480000870B5040011
:103D90008B88002B22D1CB88002B1FD18B787F25DD
:103DA0001D40FE235B00C35C032B0FD0FF235B0091
:103DB000C554290000F06EFA200000F0BCF9002D77
:103DC00007D0FE235B000222E2540AE0FFF725FF42
:103DD00007E0FE235B000122E25402E02000FFF72F
:103DE0001CFF70BD70B504000D008978284B197058
:103DF00001290AD8FE235B00C35C022B09D0032BE8
:103E00001ED02900FFF709FF02E02900FFF705FF98
:103E100070BD002911D04160FE235B000322C25413
:103E2000FFF7B4FD022803D0200000F084F9EFE78B
:103E300029002000FFF7F1FEEAE700F07CF9E7E750
:103E4000002911D0436899421ED0D9B2FFF7ADFDC9
:103E50000F4B197861602000FFF798FD02280ED003
:103E6000200000F068F9D3E7FE235B000222C25471
:103E70004160FFF79AFD200000F05DF9C8E72900D6
:103E80002000FFF7CAFEC3E700F055F9C0E7C046BF
:103E90005801002010B5CB88012B09D1FE235B000F
:103EA000C35C022B07D0032B0DD0FFF7B6FE01E059
:103EB000FFF7B3FE10BD002383600100083101222B
:103EC00000F01BF9F6E7011D012200F016F9F1E7F9
:103ED00010B5FE235B00C35C023B012B0ED801230F
:103EE000C36081239B00C358002B01D00323C36010
:103EF00001000C31022200F000F910BDFFF78DFE29
:103F0000FBE710B50400FE235B00C35C023B012B02
:103F10000ED84B88012B0DD181239B000022C2506B
:103F20001033C3589B689847200000F004F901E063
:103F3000FFF773FE10BD000010B54B78092B19D8A0
:103F40009B000E4AD3589F46FFF772FE002010BD1B
:103F5000FFF71CFFFAE7FFF745FFF7E7FFF79AFFC8
:103F6000F4E7FFF7B5FFF1E7FFF731FEEEE7FFF704
:103F7000C8FFEBE7FFF751FEE8E7C0466C8000089A
:103F800070B504000D00FE235B00C35C032B11D150
:103F90000B79012B0BD885239B00C3589B6898474E
:103FA000EB88002B08D1200000F0C5F804E0FFF7F3
:103FB00034FE01E0FFF731FE002070BD70B5050052
:103FC0000C0088880979227860231340202B08D0C0
:103FD0006378012B37D0032B0BD0002B5BD0002054
:103FE00070BDF533FF33EB589B68210028009847DC
:103FF000F5E7FE235B00EB5C022B06D0032B0CD015
:1040000021002800FFF709FEE9E70029E7D0802911
:10401000E5D0280000F015F9E1E76388002B03D113
:10402000002901D080290AD185239B00EB589B6889
:10403000210028009847280000F07DF8CFE72800ED
:1040400000F0FFF8F0E7FE235B00EB5C022B06D0EC
:10405000032B0CD021002800FFF7DFFDBFE700296C
:10406000BDD08029BBD0280000F0EBF8B7E763880B
:10407000002BB4D14B0603D1280000F05CF8AEE76A
:10408000280000F0E6F885239B00EB589B68210090
:1040900028009847F0E7FE235B00EB5C022B06D07C
:1040A000032B0BD021002800FFF7B7FD97E74B0645
:1040B00000D194E7280000F0C4F890E7030612D47A
:1040C0007F240C40103424012C190434280000F003
:1040D000C8F800280ED00123236002222100280006
:1040E00000F00BF87BE77F240C40013424012C19ED
:1040F0000434EBE700232360EFE710B51300FA2246
:104100005200022484508361C3610A00002100F040
:10411000C9F8002010BD10B513000A00002100F0FE
:10412000C1F8002010BD10B513000A00002100F0F6
:10413000C1F8002010BD10B5FA235B000422C25064
:1041400000230022002100F0ADF8002010BD10B5C2
:10415000FA235B000522C25000230022002100F058
:10416000A9F8002010BD86239B00C3588220800040
:104170001950842189005A500020704710B58623B9
:104180009B00C258002A14D0043BD358002B01D006
:10419000012010BD85239B000121D150043BD35A3F
:1041A0008221890052588839FF3900F07BF80020BD
:1041B000EFE70220EDE710B5010087239B00C05810
:1041C000ED31FF31FFF7FAFB10BD10B50300872278
:1041D00092008058CA00521A92009B181933FF337C
:1041E0001A68FFF71FFC10BD10B50300872292006C
:1041F0008058CA00521A92009B189A6BFFF74FFC26
:1042000010BD10B587239B00C058FFF7D0FC10BD30
:1042100070B504008725AD0001214059FFF7C4FCAB
:104220006059FFF79EFC70BD7047704710B51400D1
:104230001A0088239B00C0582300FDF7DBFC0020F8
:1042400010BD10B588239B00C058FDF777FF0020F4
:1042500010BD10B588239B00C058FDF7D3FF002088
:1042600010BD88239B00C3584AB2002A09DB7F2275
:104270001140CA00511A89005B180B33FF331878BC
:1042800070477F221140CA00511A89005B182A33F7
:104290001878F5E710B588239B00C058FDF78EFC11
:1042A000002010BD10B58824A4000059FEF736F890
:1042B000002010BD10B58824A4000059FDF762FE4F
:1042C000002010BD30B589B01422002103A801F0F0
:1042D00029F81D4B596980208002014359615A69B0
:1042E00002400092009A59698020C002014359613E
:1042F0005A6902400192019A5A69802109030A43CE
:104300005A615B690B400293029B182303930225B9
:104310000595902003A9C005FFF746F880239B016F
:10432000039300240494059503A90848FFF73CF87B
:1043300080235B0103930494059403A90448FFF7C9
:1043400033F809B030BDC0460010024000080048F4
:104350000004004800B583B00D4A51690123194398
:104360005161526913400193019B002200210920F1
:10437000FFF7E4F90920FFF711FA002200211020CD
:10438000FFF7DCF91020FFF709FA03B000BDC046C3
:104390000010024070B586B0274B5A69012632439F
:1043A0005A615A6932400192019A9A6980218900C2
:1043B0000A439A619B690B400293029B0C220021E5
:1043C00003A800F0AFFF1D4C1D4B23600025656066
:1043D000A560E560266108236361A561E56125624A
:1043E00065623833A3628023DB00E3622663666381
:1043F0002000FCF72DF9039580235B01049306232D
:10440000059303A92000FCF7F5FA039603A9200001
:10441000FCF7F0FA0223039303A92000FCF7EAFA61
:104420000523039303A92000FCF7E4FA2000FBF71F
:10443000B9FF06B070BDC04600100240B0070020B2
:104440000024014010B50D4C0D4B23600D4B6360F3
:104450000023A3600122E26023616361A361E36141
:1044600023622000FCF784FC00212000FCF78EFE74
:1044700000212000FCF7B6FE10BDC0464008002019
:10448000005400400B02000010B586B0124AD169FA
:1044900002231943D161D26913400193019B102279
:1044A000002102A800F03EFF0C4C0D4B23600D4B89
:1044B000E3609023FF33636000232361A360A36163
:1044C0002000FDF7EBF880235B01029302A9200096
:1044D000FDF726FA06B010BD00100240DC080020EF
:1044E000000400400F27000070B596B0334A916970
:1044F0008020000101439161936903400193019B76
:104500001022002112A800F00DFF0822002110A89F
:1045100000F008FF1C22002109A800F003FF1C2264
:10452000002102A800F0FEFE254D264B2B6006233D
:104530006B600024AC6080267601EE602C616C61BB
:104540007A33AB612800FDF7A9F8129612A928006A
:10455000FDF7E6F92800FDF7D5F82800FDF7B8F8D3
:104560001094119410A92800FDF7C2FA6023099352
:104570000A940B940C940D940E940F94002209A9A4
:104580002800FDF74BF970230993663B0A930C2230
:1045900009A92800FDF714F90294039404940594E2
:1045A000069480239B010793089402A92800FDF735
:1045B000C5FA2800FBF7C6FF16B070BD0010024018
:1045C0009C080020002C014010B50548054B0360F5
:1045D00000234360044BC3608360FCF72DFE10BDD5
:1045E0008C08002000300040FF0F0000F8B5CE46D8
:1045F000474680B5B54B9946D88802F091F803F04C
:104600002BFC0022B24B02F097FBB24AB24B02F0F5
:1046100005FF0022B14B03F019F9B14AB14B02F08A
:104620008BFB03F05BFC051CAF4CA0614B4658882C
:10463000AE4E376802F034F8391C01F0A7FE7168FD
:1046400001F0B2FDAA4901F027FC011C281C01F071
:10465000BDFA051C20604B46988803F0D1FB002270
:104660009B4B02F069FB9B4A9B4B02F0D7FE994A99
:10467000A04B02F0D3FE03F031FC8046A0609E49BF
:10468000E06801F091FD03F0E7FB06000F004B46E8
:10469000188803F0B5FB00228D4B02F04DFB8D4ACC
:1046A0008D4B02F0BBFE954A954B02F0B7FE954A42
:1046B000954B02F041FB0022944B02F0AFFE02004A
:1046C0000B003000390002F065F803F007FC061C0F
:1046D000E0608949606801F067FD071C8C49281C6F
:1046E00001F062FD011C381C01F070FA051C6060CD
:1046F00088494046FBF7A4FD002808D06069802166
:10470000C905FBF79DFD002859D1002300E00023D7
:10471000002B00D1D4E0804B1C68DF6A391C201CC0
:1047200001F034FE011C281CFBF78AFD002848D04C
:10473000391C201C01F04AFA011C281CFBF76CFDF7
:1047400000283ED0291C201C01F020FE041C724FC2
:104750007860FB689846F96901F026FD011C404627
:1047600001F034FA8046F8603B699946191CFBF762
:104770005DFD00280AD180231B064B441900994691
:104780004046FBF73FFD002800D1C146624F4B4633
:10479000FB60396A201C01F007FD80464946786AB3
:1047A00001F002FD011C404601F010FA01F05AFF31
:1047B00003B25A4A108858433883BC600DE0012385
:1047C000A6E7211C281CFBF727FD00282AD0524B06
:1047D000524A12881A83524A5A60301C03F03CFB3A
:1047E000504A514BFBF7DEFC002825D04F49281CCE
:1047F000FBF71CFD00281FD04D4B1B88FA22D2006E
:10480000934215D9444B64221A8300225A60DA601D
:104810005A619A60414B96221A80334A252300211F
:10482000D15410E03C4B00221A8300225A60D4E796
:1048300001333F4A138006E03D4B00221A802A4A8A
:1048400025230121D154344B18229B5EFA22D20039
:10485000934206DC1C1C002B01DB24B203E0002485
:10486000FBE7FA24E4002C4B1C831F4B5969301CD6
:10487000FBF7DCFC002809D0642C07DDA4B2A21EE3
:10488000264B1A80643C244B1C830AE0234A13887D
:1048900001339BB21380FA22D200934201D31F4B03
:1048A0001A80244B1B681C4A1821525E5A63214B04
:1048B0001B68FA2212011A64C0BCB946B046F8BDA2
:1048C000094A25230021D154F1E7C0467C05002088
:1048D00000FEAF406666666666660A400000E03F1E
:1048E0007B14AE47E17A843F78000020A0000020CE
:1048F00000007A4466661A40A4707D3F25068195C3
:10490000438BFA3FB81E85EB51B8E63FE07A843F0F
:1049100000D7233C0000704148000020A800002080
:1049200000004041FCA9F1D24D62503F0000C84256
:10493000AC0700209C08002010B5094B1B68002B19
:1049400000D110BD064B00221A608032054C920047
:1049500005492000FFF707FC2000FFF70FFCF0E7F8
:10496000F8090020880500207C03002010B584B0E1
:104970000A230293063B0193114B009301239122DA
:1049800050211048FCF71CFB002811D10C4C20884A
:104990008005800D01F0C4FE0B4901F07DFA0B4A41
:1049A0005061E3785B065B0F2621535404B010BDC1
:1049B000064B00225A61262200219954F6E7C04690
:1049C00084050020400800200000C8427800002034
:1049D00010B582B0104A114B13CB13C211001A68E4
:1049E0000A601B790B7100240D48FCF7CBFB2028D3
:1049F00006D0631C9BB20B4A944201D81C00F3E71B
:104A0000FA239B0000933223074A78210448FCF7DD
:104A100015FA02B010BDC0461C0900200C81000828
:104A200040080020102700000000002010B582B0D0
:104A300000240B48FCF7A6FB202806D0631C9BB281
:104A4000084A944201D81C00F3E7FA239B00009324
:104A5000D123054A78210248FCF7F0F902B010BDD5
:104A600040080020102700001C09002010B5C022BB
:104A70000021024800F056FC10BDC0462D09002060
:104A800030B55F2832DC0F2930DC012A18D0002A2B
:104A90002CD1CD17073213002B405B18DC106300BC
:104AA0001B195B01181811306D0F49191140491B72
:104AB00009B2063A8A400E490B5C93430B5415E049
:104AC000CD17063213002B405B18DC1063001B1956
:104AD0005B01181811306D0F49191140491B09B2BB
:104AE000063A8A4002490B5C13430B5430BDC04662
:104AF0001C090020F0B5C64600B580460F00150021
:104B00001E00002406E0E11909B232004046FFF71A
:104B1000B7FF0134A542F6DA80BCB846F0BD00000C
:104B2000F0B5C64600B50F0090467F2303406021D4
:104B30000A000240014201D0203BDAB25600B6180A
:104B40007600114BF618002516E04346191978191E
:104B50000022FFF795FF0134E4B2072C0AD8735DF9
:104B60002341DB07F1D54346191978190122FFF7D4
:104B700087FFF0E70135EDB2052D01D80024ECE701
:104B800080BCB846F0BDC04620810008F8B50500DD
:104B90000C0017001E0007E0013533003A00210029
:104BA000FFF7BEFF0634E4B228780028F4D1F8BD40
:104BB00010B598B0342200210BA800F0B3FB1024EC
:104BC0001022002107A800F0ADFB1C22002168463E
:104BD00000F0A8FB32230B93313B0E9313931093F9
:104BE0000F9411940E3C1494C02252021592179304
:104BF0000BA8FDF757FF0723079308940024099497
:104C00000A94012107A8FEF715FA044B00930494B7
:104C100006946846FEF7D8FA18B010BD20000200CE
:104C2000F0B5DE4657464E464546E0B599B0FEF72C
:104C30008BFBFFF7BDFFFFF745FBFFF78BFBFFF794
:104C4000A9FBFFF7FFFBFFF74FFCFFF71DFC32202E
:104C5000FEF798FBFFF7BCFE9620FEF793FBFFF7ED
:104C600005FFEF4C00212000FCF71AFF0C2120006B
:104C7000FCF7EEFE0422EB49EB48FBF7A9FD902080
:104C80000821C005FEF76EFC002806D090201021F8
:104C9000C005FEF767FC00283FD1E44B18680123EC
:104CA00001220F21FFF772FFE14B1868012309224F
:104CB0000A21FFF76BFFFFF7B9FEFA24A4002000DA
:104CC000FEF760FBFFF7D2FEDA4B186801230122E2
:104CD0000E21FFF75BFFD84B18680123092208213A
:104CE000FFF754FFFFF7A2FED44A24231421D15426
:104CF0002000FEF747FBFFF767FCD14B188801F057
:104D00000FFDD04B1860D049FBF79AFA002800D16C
:104D10000CE2CC4BCD4A1A6008E2CD4C01231A00BC
:104D200019002068FFF732FF0123082219002068CC
:104D3000FFF72CFFFFF77AFE2820FEF723FBC54B79
:104D4000C54A1A60BFF34F8FC44BC54ADA60BFF340
:104D50004F8FC046FDE7BB4CC249206801F016FBEF
:104D60002060B64B01221A772820FEF70BFBF8E1F2
:104D7000B44CBC49206800F029FF2060AF4B0122F1
:104D80001A772820FEF7FEFAF0E1AF4CAD4B1C601D
:104D9000AA4B1B7F012B00D128E16F46B24C3B0090
:104DA000250006CD06C32A881A80AA789A700322A5
:104DB00000210B20684400F0B5FA04AB9A462200AB
:104DC00003CA03C32A881A80AA789A700322002192
:104DD0001B20684400F0A6FA08AB9946220003CADB
:104DE00003C32A881A80AA789A70032200212B20F4
:104DF000684400F097FA0CAB9846220003CA03C33C
:104E00002A881A80AA789A70032200213B206844DD
:104E100000F088FA10AB220003CA03C32A881A8064
:104E2000AA789A70032200214B20684400F07AFA95
:104E300014AE330006CC06C32A881A80AA789A706A
:104E4000032200215B20684400F06CFA7D4B186857
:104E500000F0A4FE82B28549380000F06BFA774C6E
:104E600063689B46181C00F099FE83B21D00180071
:104E700001F016FC011C584601F088FA7C4901F04B
:104E800093F900F08BFE83B22A007A49504600F075
:104E900051FAA3689B46181C00F080FE83B29A4624
:104EA000180001F0FDFB011C584601F06FFA704933
:104EB00001F07AF900F072FE83B252466E4948461C
:104EC00000F038FA23699A46181C00F067FE83B296
:104ED0009946180001F0E4FB011C504601F056FA17
:104EE000634901F061F900F059FE83B2634A9246CA
:104EF0004A465146404600F01DFA63699946181C1F
:104F000000F04CFE83B29846180001F0C9FB011C6A
:104F1000484601F03BFA564901F046F900F03EFEE2
:104F200083B24246514610A800F004FA2623E25C00
:104F30005349300000F0FEF9FFF798FD01230122EC
:104F40000A213800FFF722FE012301223C21300014
:104F5000FFF71CFE012309220A2110A8FFF716FE05
:104F60002423E35C002B00D1AFE0013B3349242232
:104F70008B54324C4349206901F016F902F06CFF62
:104F800006000F00E06802F067FF00223E4B02F0CF
:104F900045FA02000B003000390001F0FBFB02F083
:104FA0009DFF20612523E35C002B00D1FEE0206AF9
:104FB000344901F0F9F802F04FFF06000F00214BD1
:104FC0005868324901F0F0F8041C3149FBF72EF91A
:104FD000002800D08CE00021201CFBF713F90028EA
:104FE00000D0D5E0201C02F037FF83E0FEF72CFC58
:104FF000284B1A6902210A431A61114A5A611A6937
:105000003E310A431A61234BDB68DB07FBD4214B9B
:10501000DB689B0640D4094A24230C21D154BCE60A
:105020009C0800207C050020B007002044000020E0
:1050300038000020340000204000002078000020CC
:1050400000E40008480000200000C84300005C4362
:105050003C000020F03F0020EFBEADDE00ED00E0A0
:105060000400FA050000A040FC7F000894800008BE
:10507000000020419C800008A4800008AC8000084B
:10508000B48000086666663F9A99B93F00004040C8
:105090000000F04100200240484BDA6820210A431A
:1050A000DA601A691E398A431A61454B186800F0A4
:1050B00075FD82B2002343490120FEF713FCFEF781
:1050C000DBFB0022404B1A77A5E7013309220A21B6
:1050D00004A8FFF75BFD012301223C2108A8FFF78C
:1050E00055FD012301220A210CA8FFF74FFD40E7DF
:1050F000002036490022364B02F090F902000B00E6
:105100003000390001F046FB02F0E8FE2E4B186239
:1051100000242D4B186A01F0A5FA84423BDDFFF70D
:1051200085FC2C48FCF7B8F8FFF720FC3220FEF78E
:1051300029F99024E40508212000FEF713FA224DF6
:10514000A87710212000FEF70DFA040080218901C4
:105150002148FEF707FA2043C0B26877012800D142
:10516000F9E5194B9B7F012B00D101E6144B1C681C
:105170001A49201CFBF75AF8002800D005E6184908
:10518000201CFBF73FF8002800D1FFE5144CFDE59B
:1051900000200021AEE720003C3000B201230822AD
:1051A0000821FFF7A7FC0134A4B2B2E701230922CA
:1051B0003C210C48FFF7EAFCB1E7C0460020024062
:1051C0004800002000E400087800002000003E4075
:1051D0009A99B93F8C080020000800480000C84395
:1051E0000000A041BC80000880B500AF1A4B1A68CF
:1051F0001A4B9A4223D01A4B1A6801210A431A60AB
:105200005A68184802405A601A68174802401A60E3
:105210001A68164802401A605A68154802405A60D7
:10522000DA6A0F208243DA621A6B124802401A636C
:105230005A6B8A435A6300229A60BD4680BD064B72
:105240000D4A1A600D4B83F308880D4B1B680D4AFD
:1052500013609847FEE7C046F03F0020EFBEADDE8A
:10526000001002400CB8FF08FFFFF6FEFFFFFBFF37
:10527000FFFFC0FF2CFEFCFFEDFEFECA5022002007
:1052800004C8FF1FFC0900200D4885460D480E4943
:105290000E4A002302E0D458C4500433C4188C4290
:1052A000F9D30B4A0B4C002301E013600432A242F5
:1052B000FBD3FFF799FF00F011F8FFF7B1FCFEE711
:1052C000004000200000002014010020AC830008F2
:1052D000180100201C0A0020FEE7000070B500261F
:1052E0000C4D0D4C641BA410A64209D1002602F0FF
:1052F00079FE0A4D0A4C641BA410A64205D170BD6C
:10530000B300EB5898470136EEE7B300EB589847E7
:105310000136F2E7A4830008A4830008A4830008F0
:10532000A883000803008218934200D170471970C7
:105330000133F9E70EB400B50B499CB01DAB0290E8
:105340000690079104910948094904CB059100682A
:1053500002A9019300F072F80023029A13701CB0A6
:1053600008BC03B01847C046FFFFFF7FB000002015
:105370000802FFFF70477047F0B58E6885B00700E0
:105380000C00039201939E423CD890238A89DB0053
:105390001A4234D00325096923685B1A02936369B2
:1053A00002985D43EB0F5D19019B6D1001331B18D3
:1053B000AB4200D91D00530532D52900380000F05A
:1053C00031FB061E09D10C233B6040230120A2893A
:1053D00040421343A38105B0F0BD029A216900F059
:1053E000BAFAA389144A1A4080231343A381029B6B
:1053F0002661F61826606561019EED1AA560019B85
:105400009E4200D9019E32000399206800F0ACFA58
:10541000A36800209B1BA36023689E192660DAE71F
:105420002A00380000F05CFB061EE0D1380021693C
:1054300000F0AEFAC7E7C0467FFBFFFFF0B5A1B0B2
:1054400003901D008B890F0016001B0611D50B69F8
:10545000002B0ED1402100F0E5FA386038610028B9
:1054600005D10C23039A0138136021B0F0BD40230D
:105470007B61002308AC6361203363761033A3762D
:10548000079535002B78002B01D0252B47D1AB1B7E
:105490000593B5420CD0320039000398FFF76CFF3A
:1054A000431C00D1AEE06269059B9446634463618E
:1054B0002B78002B00D1A5E001220023524262602C
:1054C00004A9543252186E1C2360E360A360137069
:1054D000A36505223178544800F032FA751C002883
:1054E0001FD12268D30604D5532304A95B182021B9
:1054F0001970130704D5532304A95B182B211970C5
:1055000033782A2B16D0350000210A20E3682A7848
:105510006E1C303A092A4ED9002911D117E0013505
:10552000B0E7414B2268C01A0123834013432E0089
:105530002360CEE7079B191D1B680791002B01DB39
:105540000B9304E05B42E3600223134323602B7858
:105550002E2B0AD16B782A2B35D1079B02351A1DC9
:105560001B680792002B2BDB0993304E032230007F
:10557000297800F0E5F9002806D04023801B8340FD
:1055800022680135134323602978062228486E1CBF
:10559000217600F0D5F900283CD0264B002B25D1F0
:1055A0000722079B07339343083307936369049AE1
:1055B0009B18636165E74343350001219B18A6E70B
:1055C00001235B42D0E700230A201A000135636003
:1055D00029786E1C3039092903D9002BC5D00992CE
:1055E000C3E74243350001235218F1E707AB0093AC
:1055F0003A002100104B039800E000BF0490049B88
:105600000133D3D1BB890D985B0600D42DE701206F
:1056100040422AE707AB00933A002100064B03986B
:1056200000F07CF8EAE7C046708300087683000843
:105630007A8300080000000079530008F7B51500D0
:1056400001938A680B690C000090934200DA130002
:1056500022002B6043321278002A01D001332B60E4
:1056600023689B0602D52B6802332B602268062331
:1056700017001F401A4227D0230043331B785A1EBD
:1056800093412268920630D4220001990098089E26
:105690004332B047431C25D0062320682A68E168BE
:1056A00000250340042B03D18D1AEB43DB171D406B
:1056B000A3682269934201DD9B1AED180027BD42C1
:1056C00020D1002010E00137E3682A689B1ABB4212
:1056D000D2DD2200012301990098089E1932B047BB
:1056E000431CF0D101204042FEBD3020E11843317F
:1056F000087021005A1C45310978A2184332023340
:105700001170C1E72200012301990098089E1A3206
:10571000B047431CE6D00137D1E70000F0B58BB0AD
:1057200006920A0043320793059004920A7E0C0009
:10573000109B782A06D8622A08D8002A00D1C0E037
:10574000582A52D026004236327022E010006338C8
:105750001528F7D8FAF7B4FC16001F00F6FFF6FF7D
:10576000F6FFF6FF1F00F6FFF6FFF6FFF6FFA800B4
:1057700036009A00F6FFF6FFB900F6FF3600F6FF96
:10578000F6FF9E0026001A684236111D1960136844
:1057900033700123A7E0086819680A1D05060BD5B8
:1057A0000D681A60002D03DA2D23049A6D421370E0
:1057B000614B0A27039332E00D681A604106F1D568
:1057C0002DB2EFE70D681968081D18602E0601D587
:1057D0000D6803E06D06FBD50D68ADB2564B0A2788
:1057E00003936F2A17D1082715E045310A70524AF2
:1057F00003921A68216820CA1A60080650D5CB07A0
:1058000002D52023194321601027002D03D1202326
:1058100022689A4322602300002243331A7063688F
:10582000A360002B03DB0422216891432160002D3B
:1058300002D1049E002B0CD0049E28003900FAF7F8
:1058400085FC039B013E5B5C33702B0005009F428F
:10585000F3D9082F09D12368DB0706D563682269CD
:10586000934202DC3023013E3370049B9B1B236177
:10587000079B210000930598069B09AAFFF7DEFE0F
:10588000431C35D1012040420BB0F0BD20220968F5
:105890000A4322602200782145321170274AA7E787
:1058A0004806ACD5ADB2AAE71A680D68101D496963
:1058B000186013682E0601D5196002E06D06FBD54D
:1058C00019800023049E2361D2E71A68111D196014
:1058D000166800213000626800F032F8002801D01C
:1058E000801B6060636823610023049A1370BFE724
:1058F0002369320006990598079DA847431CC1D02B
:1059000023689B0715D4099BE0689842BCDA18000D
:10591000BAE72200012306990598079E1932B0477D
:10592000431CAFD00135E368099A9B1AAB42F0DC07
:10593000E9E70025F7E7C046818300089283000865
:10594000C9B28218904201D10020704703788B427F
:10595000FBD00130F6E7002310B59A4200D110BD0C
:10596000CC5CC4540133F8E710B5884202D98B18D7
:10597000984203D3002307E08B5C8354013AFBD2A7
:1059800010BDCC5CC45401339A42FAD1F8E7000050
:1059900070B50500002910D00C1F2368002B00DA19
:1059A000E418280000F0D4F81D4A1368002B05D134
:1059B00063601460280000F0D3F870BDA34208D9DA
:1059C000216860188342F3D118685B684118216030
:1059D000EEE71A005B68002B01D0A342F9D91168E9
:1059E0005018A0420BD1206809185018116083424A
:1059F000E0D118685B68411811605360DAE7A04293
:105A000002D90C232B60D5E721686018834203D1AB
:105A100018685B684118216063605460CAE7C0463B
:105A2000000A0020F8B50323CD1C9D43083506006D
:105A30000C2D1FD20C25A9421ED8300000F088F88A
:105A400025490A681400002C1AD1244F3B68002B0A
:105A500004D12100300000F069F8386029003000DE
:105A600000F064F8431C2BD10C233000336000F0AD
:105A700077F803E0002DDEDA0C2333600020F8BD58
:105A800023685B1B19D40B2B03D92360E418256012
:105A900003E06368A2420ED10B60300000F060F8B2
:105AA000200007220B30231D9043C21A9842E6D0F3
:105AB0001B1AA350E3E75360EFE722006468C2E7D4
:105AC0000323C41C9C43A042E1D0211A300000F003
:105AD0002DF8431CDBD1C7E7000A0020040A002090
